:400000000080002011000000450700004507000080B500AF00F0A0FB80B500AF254B12221A6001F0F5FF244B180002F0A1F9012001F0FEFF0C2001F0C7FC204B204A1A60D0
:40004000204B8022D2051A601F4B1F4A126802210A431A601D4B1E4A1A601E4B00221A601D4B1D4A126808218A431A60FA23DB00180001F09BFD194B180001F0A3FE184BD9
:40008000C02292001A60174B174A1A60174BA62212061A60164B00221A60164B40221A60084B8022D2051A60024B00221A60C046BD4680BD30001040001BB70004010B4008
:4000C000060000800C020B4078002E407C002E406A2D000064F02E406CF02E40DC050000000301400000014040FF008008010B4000010B401801014080B582B000AF72B6D1
:40010000374B00221A60FB1D00221A7022E0FB1D1A7813005B009B185B00324A9B183B603B681A78597809020A43997809040A43DB781B06134318003B681A795B791B0219
:4001400013439BB2190000F05BFAFB1D1A78FB1D01321A70FB1D1B78012BD8D9224A234B1100180000F05CFA214B03221A60214B00221A60204B00221A60204B204A1A60C5
:40018000204B802212061A601F4B992212041A601E4B802292021A601D4A1D4B1B78DBB206210B43DBB213701A4B81221A601A4B8022D2031A60194B802212021A60184B8F
:4001C00001221A60174BC1221A60174B174A1A60FFF722FF00F066FAC046BD4602B080BD6CF02E40C44A0100DC4A0100D04A010000030240000002400800044020500F405A
:400200000400990024500F4030500F4038500F4000700F4000020440080204400C0204401802044000030440080304400600D80010B5064C2378002B07D1054B002B02D03F
:40024000044800E000BF0123237010BDB810002000000000C04A0100084B10B5002B03D00749084800E000BF07480368002B00D110BD064B002BFBD09847F9E7000000003E
:40028000BC100020C04A0100A80B00200000000080B500AF012001F0CFFA012001F00CFB62B601F05BFB00F0DBFA064B180000F04DFE054B180000F0D3FC00F073F9C0464B
:4002C000BD4680BDFD040000C104000090B583B000AFFFF7DDFF00F083FC00F069F800F037FC00F083F902002D4B1A602C4B1A682C4B1B68D31A2C4A934230D900F0B2F8EE
:40030000274B1A68274B1A6029E002F051FCFC1D032002F045FC03002370BC1D02F031F803002370FB1D1B78032B0CD104F0D8FC0300042B04D004F0D3FC0300062B09D1B1
:4003400001F0ACFD06E004F0CBFC0300022B01D001F08AFDBB1D1B78180002F016F800F045F902000E4B1B689A42CED00F4B1B78002BB0D000F07EFE01F0CCF901F0E2F93A
:40038000012001F059FA012001F096FA002001F03BFA002001F078FA01F0B6FD9BE7C046D4100020D8100020E7030000EA10002090B583B000AF00237B6000F073FB02208C
:4003C00000F080FBBC1C002000F0A0FB03002380BB1C00229A5ED423DB009A422EDD1B4B1B78002B26D01A4B1B78002B08D0184B00221A7000F0FAF80200164B1A6019E0E3
:4004000000F0F4F80200144B1A60134B1A68114B1B68D31A7B607B68002B07D079680F4802F0CCF90300DAB20D4B1A700A4B1A68084B1A60054B00221A7002E0034B012246
:400440001A70C046BD4603B090BDC046AC0B0020AD0B0020E0100020E410002060EA0000DC10002080B582B000AF124B1B78002B1BD03B1D1A000221002000F0FFFB0E4BA6
:400480001A783B1D5A70391D0C4B1A785B781B02134300201B041B0C020C1204134318000B000222002100F037FCC046BD4602B080BDC046E9100020DC10002078220020BB
:4004C00080B582B000AF786039607B68D5225200934204D0AC22FF32934204D007E0064B01221A7003E0044B00221A70C046C046BD4602B080BDC046E910002080B582B0B1
:4005000000AF786039607B68282B19D004D8012B07D0262B0CD029E0412B15D0422B1DD024E0002000F0B2FD002001F085F91DE0104B1B78042B18D10F4B01221A7014E06C
:400540000D4B01221A7011E00C4B01221A70012001F072F9002001F0AFF907E0084B00221A70064B00221A7000E0C046C046BD4602B080BD70220020EA100020E8100020A6
:40058000E910002080B500AF054B1B680A331A00034B1A60042001F0B3FEC046BD4680BDEC10002080B500AF0F4B1900082001F047FB01F087FD0121002001F0C5FD0121E6
:4005C000002001F0EFFD4023FF331900002001F04FFE012001F01CFE082001F0ABFB01F047FDC046BD4680BD8505000080B500AF024B1B681800BD4680BDC046EC100020D4
:4006000080B582B000AF786039603A687B680021180002F08DFAC046BD4602B080BDC04680B586B000AF7860396000233B6100237B612FE07B699B007A68D3181B68BB60BC
:400640000F23FB18BA681A70BB68FF229343BB6018E03B695B003A68D3181B781A00BB68D31819003B695B003A68D3185B780B703B6901333B610F23FB181A780F23FB1892
:40068000013A1A700F23FB181B78002BE1D17B6901337B617B69022BCCD9C046BD4606B080BDC04680B500AF0E4B802212061A600D4B03221A600D4B0D4A1A600D4B032206
:4006C0001A600D4B802212061A600C4B8022D2031A600B4B00221A60012000F013F8C046BD4680BD000030403000304080003040044004003000314000003A4000033A4078
:40070000000E3F4080B584B000AF0200FB1D1A700B4B1B68FB60FB1D1B78002B05D0FB68802212061343FB6003E0FB685B005B08FB60034BFA681A60C046BD4604B080BD40
:4007400080033A4080B500AF02F0AEF903001B680C2B00D1FEE7FEE780B586B000AF224B7B61224B3B61204B7B6135E03B691B68FB603B695B68BB603B699B683B60002376
:400780007B600CE0FB681A68BB681A60BB680433BB60FB680433FB607B6804337B607A683B689A42EED13B69DB683B6000237B6008E0BB6800221A60BB680433BB607B68F2
:4007C00004337B607A683B689A42F2D13B6910333B617B69013B7B617B69002BC6D102F069F9FFF773FDFEE7010000003450010080B582B000AF154B144A126801218A433C
:400800001A6000237B600FE07B68032B04D8104B7A689200D35800E00E4B0F4A796889008B507B6801337B607B682F2BECD9FFF763FC0A4B00221A60044B044A1268012120
:400840000A431A60C046BD4602B080BD00001040000000004507000000000020C000002080B500AF064B1B78002B04D100F00AF8034B01221A7000F0EBF8C046BD4680BD4F
:40088000F010002080B584B000AF03210F2001F0FDF9564B19000F2001F0D2F9544B01221A60544B1B68002B01DA534900E05349534B534A12680A431A60524B524A1A6076
:4008C000524B534A1A60534B00221A60524B534A1A60534B514A1A60524B524A1268802149020A431A60504B00221A604F4B00221A604F4B01221A604E4B1B687B607B68BF
:400900004D4A13407B607B688022920513437B607B68012293437B60464B7A681A600023FB605BE00022DC239B0113407B60FB689B00424A944663447A681A6000220123B0
:4009400013400AD0384B384A11680120FA68904002001204120C0A431A600022022313400AD0324B314A11680120FA68904002001204120C0A431A60002280239B00134094
:4009800003D080235B00BB6002E080235B01BB60002280235B00134005D1294BFA6852000021D15204E0264BFA6852000021D152BB68244A53438022D20094466344002B06
:4009C00002DA214A94466344DB121BB219001F4BFA689200D150FB680133FB60FB68002BA0D0C046BD4604B080BDC046350C000020003A4080033A40C0021051C0020051DF
:400A000000003A4004003A408C000A8018003A400000FF071C003A4010003A400400040014003A4000033A4028023A4038023A4018023A4030003A40FFFFFFDF80003A4071
:400A40006422002010270000FF0700006022002080B500AF0A4B1B68002B0EDBC046094B1B68002BFBDB064B054A1268802109060A431A600A2001F0A5F9C046BD4680BDB3
:400A800000003A4008023A4080B500AF044B044A1268520052081A60C046BD4680BDC04600003A4080B500AF024B01221A60C046BD4680BD24003A4080B500AFC046BD46B2
:400AC00080BDC04680B584B000AF78600023FB607B680322134011D00B4B1B6801221340FB60FB68002B03D17B6802221340F3D1FB68002B02D0044B01221A60FB68180018
:400B0000BD4604B080BDC04610023A4080B584B000AF78607B68002B02D0002001F020F97B68002B09D17B689B00084A944663441B681B041B0CFB6001E00023FB60FB6816
:400B40001BB21800BD4604B080BDC04680013A4080B500AF1D4B1B685B005A081C4B5A601A4B1A4A1268802109060A431A60194B1B68002B24DA184B1A6880235B021340EC
:400B800003D0134B03221A7002E0114B01221A70FFF792FFFFF778FF0E4B1A6880235B03134010D00B4B0B4A12680C490A401A60074B1B7804221343DAB2054B1A7002E080
:400BC000034B00221A70C046BD4680BD30003A40F410002000003A4004003A40FFFFEFFF80B500AF104A114B5B6813600F4B1B78002B16D00D4B1B781A000423134006D0E0
:400C00000B4B0B4A1268802149030A431A60FFF71FFF064B1B781A000223134001D0FFF741FFC046BD4680BD30003A40F410002000003A4080B582B000AF054B1B687B60F8
:400C4000034B7A681A60C046BD4602B080BDC04610023A4080B500AFC046BD4680BDC04680B582B000AF7860034B7A681A60C046BD4602B080BDC046FC10002080B586B0E3
:400C800000AF3A60FB1D021C1A70BB1D0A1C1A701623FB1800221A80FB1D1B78022B04D91623FB1801221A802CE0FB1D1B78012B07D11123002B04D11623FB1813221A80D3
:400CC00020E0FB1D1B78134A5B00D31802331A880823FB181A81BB1D1B789AB20823FB189A800823FB183A681A600823FB180122002118000FF080FA031E03D01623FB183A
:400D000001221A801623FB181B881800BD4606B080BDC046EC4A010090B589B000AF0C243C192080080011007B600B23FB18021C1A700A23FB180A1C1A702D4B1B78022B65
:400D400005D01E23FB180422FF321A8049E00B23FB181B78022B04D91E23FB1801221A803FE00F23002B14D00F235A1E214913009B009B189B00CB1810331B685B6818004D
:400D800000F020FA03001A00012313409BB2002B05D11E23FB18802252001A8021E00B23FB181B78144A5B00D31802331A881023FB181A811023FB187A681A600A23FB1852
:400DC0001B789AB21023FB189A801E23FC181023FA180C23FB18110018680DF0A3FF030023801E23FB181B881800BD4609B090BD70220020144B0100EC4A010090B587B025
:400E000000AF786000237B611323FB1800221A700823FB187A6812881A800823FB1800225A607B689B890F2293421FD10823FB1800229A707B685B68180000F0C3F90300F5
:400E40001A00012313409BB2002B03D0D5235B007B6102E0AC23FF337B61294B1B78DBB201229343DAB2264B1A701DE07B689B891322934218D10823FB1802229A707B684E
:400E80005B681B78012B03D1AA23FF337B6103E01323FB1880221A70194B1B78DBB201229343DAB2164B1A707B69002B21D07B68181D7A681323FC18402300210FF0CDF928
:400EC000030023701323FB181B78002B11D10D4B1B68002B07D00B4B1B680822B9187A691000984705E0084B1B687A6811004C2098471323FB181B781800BD4607B090BDFC
:400F00007B220020FC1000206822002080B500AF064B00221A70064B00221A70054B00221A7000F009F8C046BD4680BD7B220020742200207A22002080B500AF00F0E4FB2B
:400F4000FFF788FEC046BD4680BDC046B0B594B004AF78603E23FB1800221A802823FA183D4B1000190014231A0001F0D8FD3B4B1B78002B04D1FFF7C9FF384B01221A7019
:400F80007B68002B5CD0364B7A681A603E23FB181B88002B29D11023FB181C22BA185A601023FB182022BA181A601023FB1800221A812023FB181B221A802023FB181B2237
:400FC0005A802023FB1804221A711C23FB1808221A703E23FC180E23FA181023FB181100180001F0DBFE030023803E23FB181B88002B29D13E23FC182823FD18AE231A0176
:40100000184919480023029300230193052300932B0001F019FE030023803E23FB181B88002B11D1114B01221A703E23FC18104B0922262118000FF0C7F80300238003E01D
:401040003E23FB1801221A803E23FB181B881800BD4610B0B0BDC046F84A01000011002068220020C8000020ED13000070220020144B010080B500AF01F0B0FD024B0022D1
:401080001A70C046BD4680BD7022002090B585B000AF0200FB1D1A70FB1D1B78022B04D90E23FB1801221A804AE0294B1B78042B41D1284B1B78DBB21A00042313403AD187
:4010C000FB1D1B78002B0BD1234B1E221A82224B5B6820221A80204B5B6850225A8010E0FB1D1B78012B0CD11B4B96221A821A4B5B68C822D2001A80174B5B688022D201F8
:401100005A80164BFA1D12781A700E23FC18124B18000CF067FC030023800E23FB181B88002B0DD10B4B1B78DBB204221343DAB2084B1A7004E00E23FB180422FF321A8026
:401140000E23FB181B881800BD4605B090BDC046702200207B220020000C00207A22002080B584B000AF78600A00FB1C1A700023BB60BB68002B20D07B689A79BB681A7054
:401180000F23FB1800221A7012E00F23FB181B780133BA68D3180F22BA18127879688A5C1A700F23FB181A780F23FB1801321A700F23FB181B78052BE7D9C046BD4604B0F7
:4011C00080BDC04680B582B000AF78607B681B789AB27B6801331B789BB21B029BB213439BB21800BD4602B080BDC04690B585B000AF78600F23FB1800221A707B689B89EF
:401200000B22934232D17B68181D7A680F23FC18402300210FF021F8030023700F23FB181B78002B1AD17B685B681800FFF7CAFF03001A00022313409BB2002B07D00F4B8E
:401240001B687968822252001000984706E00B4B1B6879680622FF3210009847084B1B78DBB201229343DAB2054B1A700F23FB181B781800BD4605B090BDC04668220020C6
:401280007B22002090B585B000AF78600F23FC187B681800FFF7AAFF030023701F4B1B78DBB21A00012313400CD00F23FB181B78002B07D10F23FC187B681800FFF79EFD56
:4012C00003002370154B1B78DBB21A00012313401FD10F23FB181B78002B16D00823FB1812229A707B689A890823FB181A800823FB180F22BA181278DA700823FA187B68DF
:40130000110018680DF0D0FC03E07B6818680DF055FDC046BD4605B090BDC0467B22002080B582B000AF7860C046BD4602B080BD80B500AF044B00225A70034B00221A70F1
:40134000C046BD4680BDC0467822002080B582B000AF7860C046BD4602B080BD80B500AFC046BD4680BDC04680B584B000AF78600E23FB1800221A707B689B79002B1CD162
:401380000F23FB1800221A7012E00F23FB181B787A68D35C002B04D00E23FB1801221A700BE00F23FB181A780F23FB1801321A700F23FB181B78052BE7D90E23FB181B780E
:4013C0001800BD4604B080BD80B582B000AF0200BB1D1A80C046BD4602B080BD80B582B000AF7860C046BD4602B080BD80B588B000AF02003960FB1D1A70B84B1B78DBB2FD
:4014000001221343DAB2B54B1A70FB1D1B78712B00D942E19A00B24BD3181B689F461423FB1807221A701423FB1800225A701423FB18180003F0B4FC1423FB1807221A70BB
:401440001423FB1801225A701423FB18180003F0A7FC0023002B01D001F09EFBA14B1B681800FFF781FF031E11D09E4B1B68180001F0A2FB9B4B1B6800211800FFF770FE7D
:40148000984B1B6801211800FFF76AFE0DE0964B180001F091FB944B00211800FFF760FE914B01211800FFF75BFE03200CF03EF91023FB183F221A701023FB1800225A7041
:4014C0001023FB1818000CF04FF9884B04221A70EAE03B681800FFF739FFE5E03B681A78834B1A70E0E03B68BB61BB691B78002B00D0D4E0BB695B78002B0BD17D4B0022F5
:40150000DA807C4B00229A807A4B7B4A1A60BB69784A5A60714B1B78DBB201229343DAB26E4B1A70BBE06D4B1B78DBB21A002023134000D0B5E0714B1B78102B02D16F4B67
:401540000522DA706E4B1B786C4A110018000CF00BFA03001A000E23FB181A800E23FB181B88002B06D0674B1B680E22BA18110036209847594B1B78DBB201221343DAB2A5
:40158000564B1A708DE03B681800FFF727FF8BE03B681800FFF722FF544B02221A7083E0524B04221A707FE0504B1B78022B00D179E04A4B1B78DBB21A000123134000D187
:4015C00071E0464B1B78DBB21A00042313400BD0464B03221A70414B1B78DBB204229343DAB23E4B1A705EE03C4B1B78DBB21A00082313400BD03D4B04221A70374B1B784E
:40160000DBB208229343DAB2344B1A704BE0374B1B78032B47D1354B04221A7043E03B681B881800FFF7D0FE3EE0354A3B681000190002231A0001F072FA2D4B00221A7064
:40164000FFF78CFE30E0FFF773FE2DE03B685B88162B05D81E23FB183A6852881A8003E01E23FB1817221A801E23FB1819883B681A8800231204120C1B0C1B041343180009
:401680000DF01CFB10E03B681800FFF7FBFD0BE03B681800FFF744FE06E0C04604E0C04602E0C04600E0C0460C4B1B78DBB21A00112313400ED0094B1B78DBB20122934398
:4016C000DAB2064B1A700F4B1B68FA1D1278396810009847C046BD4608B080BD7B220020184E01001C0C0020140C0020702200207422002004110020A80B0020DC0C002053
:40170000782200206822002080B500AFC046BD4680BDC04680B582B000AF094B1B68DAB2FB1D7F218A431A70054BFA1D12781A60FB1D1B78DB09DBB21800BD4602B080BDFC
:401740001002044080B500AF00F054F8054B180000F010F8032000F01BF800F041F8C046BD4680BD6917000080B500AFC046BD4680BDC04680B582B000AF7860034B7A6830
:401780009A64C046BD4602B080BDC0460000002090B585B000AF0200FB1D1A701623FB600B23FC1800F0EDFD030023700A4B0A4A12680A491140FA1D1078FA689040020060
:4017C0000A431A600B23FB181B78180000F0DDFDC046BD4605B090BD00E400E0FFFF3FFF80B500AF024B04221A60C046BD4680BD00E100E080B500AF024B04221A60C046B2
:40180000BD4680BD80E100E080B582B000AF0200FB1D1A70064B064A126806491140FA1D127892040A431A60C046BD4602B080BD08030440FFFFE3FF80B584B000AF020073
:40184000FB1D1A700F4B1B68DAB20F23FB1840218A431A70FB1D1B789B01DBB240221340D9B20F23FB180F22BA1812780A431A70044B0F22BA1812781A60C046BD4604B090
:4018800080BDC0460003044080B582B000AF0200FB1D1A70064B064A126806491140FA1D127852050A431A60C046BD4602B080BD08030440FFFF1FFF80B584B000AF0200ED
:4018C000FB1D1A700D4B1B68DAB20F23FB187F210A401A70FB1D1B78DB01D9B20F23FB180F22BA1812780A431A70044B0F22BA1812781A60C046BD4604B080BD00030440D4
:4019000080B500AF074B02221A60074B802212061A60064B00221A60054B03221A60C046BD4680BD101100200000304004003040080F304080B500AF064A064B1968064B28
:401940001B680B43802109010B431360C046BD4680BDC046040030401011002080B500AF064B1B78002B04D1FFF7CAFF034B01221A70FFF7DFFFC046BD4680BD0C11002050
:4019800090B585B000AF78600F23FC1800F0F9FC030023700A4B7A68D104E02292031140074A1268074802400A431A600F23FB181B78180000F0E9FCC046BD4605B090BD7E
:4019C00000010B40FFFFC7FF90B585B000AF78600C23FC1800F0D5FC030023707B68022B00D8AFE07B68302B00D9ABE05C4B1B78DBB21A007B689A420AD35A4A0F23FB18BD
:401A000012781A70584A0E23FB1812781A703FE0564B1B78DBB21A007B689A420AD3544A0F23FB1812781A70524A0E23FB1812781A702DE0504B1B78DBB21A007B689A4276
:401A40000AD34E4A0F23FB1812781A704C4A0E23FB1812781A701BE04A4B1B78DBB21A007B689A420AD3484A0F23FB1812781A70464A0E23FB1812781A7009E0444A0F23C8
:401A8000FB1812781A70434A0E23FB1812781A707B68DA1E0B23FB183F498A5C1A700B23FB181B782F2B0DD97B682A2B0AD93B4B19221A60052000F05BFC0D23FB181922B2
:401AC0001A7007E0354B1B68DAB20D23FB183F210A401A700B23FA180D23FB1812781B789A4208D22D4B7A68033A2B498A5C1A60052000F03DFC2A4B7A6826498C46624422
:401B00001278D2B21A60274B0F22BA1812781A60254B0E22BA1812781A60052000F052F90B23FA180D23FB1812781B789A420CD91A4B7A68033A18498A5C1A60052000F013
:401B400017FC02E0002000F00BF90C23FB181B78180000F01AFCC046BD4605B090BDC04640F3FF0F41F3FF0F42F3FF0F43F3FF0F44F3FF0F45F3FF0F46F3FF0F47F3FF0F34
:401B800048F3FF0F49F3FF0F4AF3FF0F4BF3FF0F4CF3FF0F4DF3FF0FE04F01002CFF0B4028FF0B401CFF0B4020FF0B4080B584B000AF78600023FB60154B154A12680121AF
:401BC0000A431A60134B144A1A60144B134A1268802109020A431A607B68002B12D01023FB600CE0012000F0EDF800F019F8031E02D00023FB6005E07B68013B7B607B68AB
:401C0000002BEFD1FB681800BD4604B080BDC04660F02E4078002E400220000010002E4080B582B000AF054B1B68012213407B607B681800BD4602B080BDC0460C002E4059
:401C400080B584B000AF02003960FB1D1A7080239B05FB60FB1D1B781F2B02D9002000F07FF8FB1D1B7810339B00FA68D3181B68BB60FB1D1B7810339B00FA68D3183A682E
:401C80001A60BB681800BD4604B080BD90B587B000AF0200FB1D1A70BB1D0A1C1A70BB1D1B78032B02D9002000F05AF8FB1D1B781F2B02D9002000F053F8FB1D1B78032253
:401CC0001340DB0006337B611323FC1800F059FB03002370FB1D1B789B08DBB29B00144A944663441B68FB6003227B699A401300DA43FB681340FB60BB1D1A787B699A40FE
:401D00001300FA681343FB60FB1D1B789B08DBB29B00074A94466344FA681A601323FB181B78180000F031FBC046BD4607B090BD00E400E080B582B000AF0200FB1D1A70BE
:401D4000064BFA1D12781F210A40012191400A001A60C046BD4602B080BDC04600E100E080B582B000AF0200FB1D1A7001BEC046BD4602B080BDC04680B582B000AF78604C
:401D800009E00D4B1B68180000F0F2FA7B680B4A944663447B607A6880231B029A42F0D8074B1B687A685343180000F0E1FAC046BD4602B080BDC046F00C00200080FFFFC9
:401DC000E80C002080B582B000AF0200BB1D1A80BB1D1B88044A12785343180000F0C8FAC046BD4602B080BDEC0C002080B500AF164B164A1268920092081A60144B144A00
:401E00001268920092081A60124B124A1268920092081A60104B104A1268920092081A600E4B0E4A1268920092081A600C4B0C4A1268920092081A600A4B0A4A1268920081
:401E400092081A60C046BD4680BDC0460800044008010440080204400803044008040440080504400806044090B583B000AFFC1D00F087FA03002370074B074A1268042150
:401E80008A431A6030BFFB1D1B78180000F07DFAC046BD4603B090BD10ED00E090B583B000AFFC1D00F06DFA03002370114B114A1268520052081A600F4B104A128892B2C6
:401EC0001A600F4B0E4A126804210A431A600D4B1B683B600220FFF753FD30BF094B3A681A60FB1D1B78180000F04FFAC046BD4603B090BD00000B400C000B4052F2FF0F1A
:401F000010ED00E000010B4090B583B000AFFC1D00F037FA03002370FFF768FF114B114A1268802109060A431A600F4B0F4A128892B21A600E4B0E4A126804210A431A605A
:401F40000C4B0C4A1268FF218A43F1210A431A6030BFFB1D1B78180000F017FAC046BD4603B090BD00000B400C000B4050F2FF0F10ED00E02C000B4080B500AF0F4B0F4ADB
:401F8000126801218A431A600C4B0C4A126802218A431A600A4B0A4A126830218A4310210A431A60064B064A126807218A4301210A431A60C046BD4680BDC04600F02E40D1
:401FC00000FF2E4080B500AF0F4B0F4A126802218A431A600D4B0D4A126807218A4302210A431A60094B094A126830218A4320210A431A60044B044A126801210A431A60AA
:40200000C046BD4680BDC04600F02E4000FF2E4080B500AFFFF7B0FF044B044A1268802109060A431A60C046BD4680BD00F02E4080B584B000AF78600C4B1B68012213408E
:40204000FB607B68002B02D0012B03D005E0FFF793FF06E0FFF7B6FF03E00020FFF780FEC046FB681800BD4604B080BD00F02E4090B583B000AFFC1D00F083F9030023709C
:40208000074B074A1268C02109020A431A60FB1D1B78180000F079F9C046BD4603B090BD00010B4080B500AF054B1A68C0231B02134001D0012300E000231800BD4680BD7D
:4020C00000010B4090B583B000AFFC1D00F059F9030023700D4B0D4A12680D490A408021C9010A431A60094B084A126808490A40802109020A431A60FB1D1B78180000F0A0
:4021000044F9C046BD4603B090BDC04600010B40FF3FFFFF80B582B000AF78607B68022B02D90020FFF71CFE064B1A687B68DB000133DA401300012213401800BD4602B08D
:4021400080BDC04610020B4080B584B000AF786039607B68022B02D90020FFF701FE7B681800FFF7D7FF031E16D10D4B1B687A68D200032191400A00D2431340FB603B6873
:4021800003221A407B68DB009A401300FA681343FB60034BFA681A60C046BD4604B080BD0C020B4080B584B000AF786039607B68002B02D07B68012B01D1012300E00023F4
:4021C000002B02D10020FFF7CBFD7B681800FFF7A1FF031E16D10D4B1B687A68D2000232012191400A00D2431340FB607B68DB0002333A689A401300FA681343FB60034B04
:40220000FA681A60C046BD4604B080BD0C020B4080B582B000AF7860144B144A11687A680A431A607B680122134005D0C0460020FFF770FF031EFAD07A6880235B001340CB
:4022400005D0C0460120FFF765FF031EFAD07A6880235B02134005D0C0460220FFF75AFF031EFAD0C046BD4602B080BD10020B4080B584B000AF786039607B68002B02D0F3
:402280007B68012B01D1012300E00023002B02D10020FFF765FD174B1B689B0F9B0701D1C92300E05D231800FFF78CFD124B1B68FB607B681B01114A9A401300DA43FB68B8
:4022C0001340FB600C4B7A68120139689140FA680A431A60074B1B689B0F9B0701D1432300E01F231800FFF76DFDC046BD4604B080BDC0460C020B4008020B40FFFF0000AA
:4023000090B585B000AF78600B23FC1800F039F803002370FFF7C6FE031E04D00123FB60FFF7D0FE01E00023FB607B680D4A13407B600D4B0C4A12680C4911407A680A43ED
:402340001A60094B1B68FB68012B01D1FFF790FE0B23FB181B78180000F017F8C046BD4605B090BD0404040010020B40FBFBFBFF0230800803D00138FDD1C046C046C04632
:402380007047EFF3108072B6704780F31088704780B582B000AF78600A00BB1C1A80BB1C1A887B681A60C046BD4602B080BDC04680B582B000AF78600A00BB1C1A80BB1CD6
:4023C0001A887B681A60C046BD4602B080BDC04680B584B000AF494B1B78DBB21B02484A1278D2B21343FB60464B1B78DBB21B02454A1278D2B21343BB60BB68434A934245
:4024000007D1FB68072B04D1414BBB600423FB6009E0BA68D4231B019A4204D1FB68042B01D13B4BBB603B4BBA681A603A4BFA681A603A4B1B78DBB21B02394A1278D2B287
:402440001343FB60FA6880239B019A4202D0FB68002B01D1334BFB60334BFA681A60334B1B78DBB21B02324A1278D2B21343FB60FB68304A934206D0FB682F4A934202D0C8
:40248000FB68052B01D12D4BFB602D4BFA681A602C4B1B681B097B602B4B1B68AA2B29D17B68012B26D9214B1B78DBB20E2B21D1264B1B78DBB29BB21B0299B2244B1B78C2
:4024C000DBB29AB2BB1C0A431A80224BBA1C12881A60214B1B78DBB29BB21B0299B21F4B1B78DBB29AB23B000A431A801C4B3A0012881A60C046BD4604B080BD59F1FF0FAE
:4025000058F1FF0F5FF1FF0F5EF1FF0F580B0000580D00006C002E4074002E405BF1FF0F5AF1FF0F0220000078002E405DF1FF0F5CF1FF0F0F0F000005050000050F000057
:4025400080002E40EC0F00F0E00F00F06DF2FF0F6CF2FF0F84002E406FF2FF0F6EF2FF0F94002E4080B582B000AF0200BB1D1A80BB1D1B881800FFF725FCC046BD4602B00A
:4025800080BDC04680B582B000AF78607B681800FFF7F2FBC046BD4602B080BD80B500AF00F0ECF8C046BD4680BDC04680B500AF00F0F0F8C046BD4680BDC04680B500AF24
:4025C00000F0E8F8044B180000F0A2F8032000F0ADF8C046BD4680BDAD27000080B500AF034B180000F080F8C046BD4680BDC046AD27000080B500AF014B1800BD4680BDEE
:402600000202000080B582B000AF78602B231800BD4602B080BDC04680B582B000AF78602B231800BD4602B080BDC04680B582B000AF78602B231800BD4602B080BDC046B2
:4026400080B582B000AF78602B231800BD4602B080BDC04680B582B000AF78602B231800BD4602B080BDC04680B582B000AF78602B231800BD4602B080BDC04680B582B00F
:4026800000AF78602B231800BD4602B080BDC04680B582B000AF78602B231800BD4602B080BDC04680B500AF2B231800BD4680BD80B582B000AF0200FB1D1A702B2318003F
:4026C000BD4602B080BDC04680B582B000AF786039602B231800BD4602B080BD80B500AFC046BD4680BDC04680B582B000AF786000F050F87B68180000F00AF8032000F0AD
:4027000015F800F03BF8C046BD4602B080BDC04680B582B000AF7860034B7A681A67C046BD4602B080BDC0460000002090B585B000AF0200FB1D1A700623FB600B23FC181B
:40274000FFF71FFE030023700B4B0B4A1268C0218A431100FA1D1078FA68904002000A431A600B23FB181B781800FFF70EFEC046BD4605B090BDC0460CE400E080B500AF7F
:40278000034B802252011A60C046BD4680BDC04600E100E080B500AF034B802252011A60C046BD4680BDC04680E100E080B500AF12F072F9C046BD4680BDC0460022430817
:4027C0008B4274D303098B425FD3030A8B4244D3030B8B4228D3030C8B420DD3FF22090212BA030C8B4202D31212090265D0030B8B4219D300E0090AC30B8B4201D3CB0333
:40280000C01A5241830B8B4201D38B03C01A5241430B8B4201D34B03C01A5241030B8B4201D30B03C01A5241C30A8B4201D3CB02C01A5241830A8B4201D38B02C01A52415D
:40284000430A8B4201D34B02C01A5241030A8B4201D30B02C01A5241CDD2C3098B4201D3CB01C01A524183098B4201D38B01C01A524143098B4201D34B01C01A524103096B
:402880008B4201D30B01C01A5241C3088B4201D3CB00C01A524183088B4201D38B00C01A524143088B4201D34B00C01A5241411A00D20146524110467047FFE701B50020C2
:4028C00000F0F0F802BDC0460029F7D076E7704703460B437FD4002243088B4274D303098B425FD3030A8B4244D3030B8B4228D3030C8B420DD3FF22090212BA030C8B426A
:4029000002D31212090265D0030B8B4219D300E0090AC30B8B4201D3CB03C01A5241830B8B4201D38B03C01A5241430B8B4201D34B03C01A5241030B8B4201D30B03C01A8F
:402940005241C30A8B4201D3CB02C01A5241830A8B4201D38B02C01A5241430A8B4201D34B02C01A5241030A8B4201D30B02C01A5241CDD2C3098B4201D3CB01C01A5241DF
:4029800083098B4201D38B01C01A524143098B4201D34B01C01A524103098B4201D30B01C01A5241C3088B4201D3CB00C01A524183088B4201D38B00C01A524143088B4245
:4029C00001D34B00C01A5241411A00D201465241104670475DE0CA0F00D04942031000D34042534000229C4603098B422DD3030A8B4212D3FC22890112BA030A8B420CD302
:402A0000890192118B4208D3890192118B4204D389013AD0921100E08909C3098B4201D3CB01C01A524183098B4201D38B01C01A524143098B4201D34B01C01A52410309C9
:402A40008B4201D30B01C01A5241C3088B4201D3CB00C01A524183088B4201D38B00C01A5241D9D243088B4201D34B00C01A5241411A00D20146634652415B10104601D3E0
:402A80004042002B00D54942704763465B1000D3404201B5002000F005F802BD0029F8D016E770477047C046014B18687047C046B01000200E4B70B500251E000D4CE41A84
:402AC000A410A54204D0AB00F35898470135F8E712F09EFA084B00251E00084CE41AA410A54204D0AB00F35898470135F8E770BD1C5001001C5001001C50010024500100B9
:402B000030B50024A24208D0035D651C0C5DA34201D0181B02E02C00F4E7002030BD002310B59A4203D0CC5CC4540133F9E710BD03008218934202D019700133FAE7704756
:402B4000134A1088810703D08107890F401A001D11791030484381B25088820703D08207920F801A001D800040180A494030098980B2CA0701D0503080B2890706D5044966
:402B80005422091F09785143081880B270470000FE0C00202011002010B501F0E5FF10BD10B501F0E7FF10BD10B501F0F9FF10BD10B500F075FA10BD10B5074904460978C2
:402BC0000220002907D1204602F058F8002802D120460AF0AFFE10BD9C0E002010B507F037FF01F0DDFF02F033F8084C2078002801D000F05FFA00F073FAFF2001F0E4F917
:402C0000FF2001F0F1F90020207010BDF80C002070B504460120002C12D02368002B0FD0616800290CD0074D06222889208118462968FFF774FF6968606809780170002027
:402C400070BD000020110020FFB585B0002768460E9D07734F481C460078002802D0082009B0F0BD10990F9801900095029105A807C800F007F90028F2D16946264603ABD1
:402C800084460873002C19D0002115E08A00B75A082F09D990198078002805D0083FB7521878401C187005E0002914D00027B75290198770491CC9B2A942E7D36046002879
:402CC000CED10F98002809D0109901F0FBFA002804D00120C4E701208446EFE701F060FF2D480021416081600599016021888180022D07D3A1798171A17AC171A189018156
:402D0000218A418100211EE0481C19E082008B00A75AE65ABE46BE4211D26F463E80B4461E190296B678BE7001967646E6521719029EBB78B3706646A652019EBE70401C5F
:402D4000A842E3D3491CA942DED3134822460C3000906846037B0799069800F01BF90028B8D168460B4C007B60700B480C3001F047FF0028AED1084907480C3107F04AFE2B
:402D80000028A7D107F070FE0028A3D10121217066E70000F80C002014110020F8B5054636480F460078002802D002242046F8BD002F60D000243249002D16D02A89D007F0
:402DC0000DD02868002808D003881B3BE12B04D24088FB2801D81B2801D2012409E0900707D56868002804D1F7E70020088108604860002CDAD122482E8906811F481B21C2
:402E0000801D01804180042101711C490020891C0870F00705D019480622801D2968FFF77EFE1749B00703D56A68144812788270124D0E46AD1D281F0D60486001F044FFDF
:402E4000284601F033FF30890EF03CFB30890DF001FD28880DF004FD30890EF0AFFC03461033FFF76DFE1F21C018890140183880A91F88809AE7012498E70000F80C002057
:402E800020110020FFB58446384F1C460020BB883F78054602460646002F11D100290ED0029999420BD36146002908D0002C06D00A99002906D02E4B0B99994202D20120BC
:402EC00004B0F0BD002144E0AB001F19BF78002F3BD0E35A002B38D07B43591889B22B0000F04AF8050410161C253100A7782388BC46FF27233BEB37BB4222D26346032BC6
:402F00001FD322E0A388002B1FD0302B19D31CE02389002B19D0282B13D316E0A289002A13D01346134F233BBB420AD20DE0268A002A0AD033460F4F233BBB4201D296427E
:402F400003D901200EE0002001E000280AD16D1CEDB2099B9D42B7D31C2463435B1802998B42ACD89642AAD8AAE70000F80C002079020000BAFF000030B47446641E2578E8
:402F8000641CAB4200D21D46635D5B00E31830BC18470000FFB583B0002469460C801F4606468C80002806D00598002803D004983043800701D0012466E0002FFBD034492C
:402FC000049809888842F6D3FFF708FBFFF7EEFA00F06EFC002855D100F0D8FD002851D12C49084601F0A2F905042D0C4AD12A480499066081800021C18007810C98007A59
:40300000C00704D0684601F0E4FD040007D10C98007A800703D501A801F0E4FD0446BF1DFEB2002C20D13146059800F085F804001AD10EF0D1FB040016D16A461088928827
:4030400008368518144AF1B29088D288AEB29319984207D3401B801A80B201F059FC050007D000E0FF25012400F0BAFA002D04D008E0F8B200F044F9F6E700F0DDFA074978
:403080000120087000F026FC204607B0F0BD0000FC0C0020253200002C110020040D002010B503480078012801D101F0D3FA10BD040D002010B5FF2400F006FE00280AD170
:4030C00000F00CFC002806D10448007A801DC0B200F02EF90024204610BD00002C11002010B500F00DFE01F053F90449002008608880C88008810249087010BD2C110020A1
:40310000040D002070B5084B0446DA889E8803205518B54206D8186880182060D8884018D880002070BD00002C11002001480089704700002C110020F0B587B007460D46FB
:4031400000208900009006916846FFF7DBFF844600285DD1304800990160002117E02E4B88001A680629115406D22C4C0419667882185670628805E0C419203CA67A8218D3
:40318000567022891B68C018491C4280C9B2A942E5D300242DE0601CC2B2059025E01E4FA30039689600581840887118039604904E88B04217D938466F46FE80B6464F78E2
:4031C0006E4677710297049F4F800168039F5E18767879184E700168764659184E800068029F18184770521CD2B2AA42D7D30598C4B2AC42CFD36046002809D168460699F6
:40320000FFF780FF8446002802D1054900980860604607B0F0BD0000080D0020485001000C0D00207047000010B5002809D005494A68002A05D0011F08788000105801F000
:4032400015FB10BD080D002010B50446FFF76EFFC0B2801DA0420CD307484068002808D0A100405801F074FA002801D00470001D10BD002010BD0000080D0020F8B51646E9
:403280000D460446FFF752FFC0B2801DA04203D20020C0430090F8BDB2B2E9B2684601F07DFA0099481C03D0024AA000526811500098F8BD080D0020F8B50746FFF736FF69
:4032C000801DC6B20A49002005460C680DE06178002907D06188B94202D32078FFF7B4FF002804D1241D6D1CEDB2B542EFD3F8BD080D002010B5002801D0FFF795FF10BDA9
:4033000070B506460948002504680BE06178002905D062882078121D0023FFF7AFFF241D6D1CEDB2B542F1D370BD0000080D0020F8B5084F064600243D6808E028787968F8
:403340008000085801F03EFB2D1D641CE4B2B442F4D3F8BD080D0020FFB581B00A9F16000C4620D000F0F6F8054604281BD0002F0CD03846FFF7A0FF20492A015118486053
:40338000002810D03A460499FFF7C9FB1B4928010E504618778101980570200406D47D20C000444304E0FF2005B0F0BD6404640C00F0BEF80746042807D000F06FFAA0428F
:4033C0000BD800F06BFA201A03E0204600F0CCFA0020F06035720020E6E700F05FFA009000F0D8FA00980121001B009000F00CF902493A0151180098C860E6E7381100207E
:40340000F8B5042801D3FF20F8BD060116483418217A042903D0E068002802D017E00020F8BD00F03BFA054600F0B4FA00F0A0F804280CD001010C480F18F86800214519B7
:4034400000F0E2F80020F860284600F08DFA6068054D002801D0FFF74DFF042020720020A8516081E060DAE738110020FEB500266A46304601232549050169180D7A042DE6
:4034800002D0C96800291BD000211154401CC0B20428F0D300246846005D002830D01B48210108184189476805680291002101604160042241810272C160002E02D015E0A8
:4034C0001354E3E700F054F804280ED001010F4808180190C6680021304600F095F801980021C160304600F03FFA0126002D07D038460299A847002F02D03846FFF7FAFEEF
:40350000641CE4B2042CC6D3FEBD0000381100200EB5002005216A460090118150810348694600680FF00BF80EBD0000100D0020074A0020010189180B7A042B02D0C968A5
:40354000002903D0401CC0B20428F3D370470000381100200549002002015218127A042A03D0401CC0B20428F6D370473811002030B50A4B04200A4C00210A011219157A8A
:40358000042D06D0D268002A03D09A4201D808461346491CC9B20429EFD330BDFFFF00003811002070470000F8B500250B4F2E462801C419217A04290AD0042121723E5009
:4035C0006068002802D0FFF795FE66606681E6606D1CEDB2042DEBD3F8BD00003811002030B50020074C05460423020111190B72A5504D60401C4D81C0B2CD600428F4D386
:4036000030BD00003811002030B5094C00231A011219157A042D04D0D568002906D02D18D5605B1CDBB2042BF1D330BD2D1AF7E738110020002070471CB5002469460C70DE
:40364000142001902346054A05480EF07DFF04480068401C00D1FF2420461CBDB5360000100D00203EB5124A0146FF2000230124126800290DD0012914D0042908D10420E6
:403680006946009308814B8110460EF058FF80B23EBD6846009304814381694610460EF049FFF4E768460093048143816946EBE7100D002070B5458904684168008903000F
:4036C000FFF75AFC08280509091E22282628002006F050F81EE0022908D0C8B22A4621460DF00CF82046FFF705FE13E002202A4621460DF003F82946204600F00DF809E0DA
:4037000000200EF013FC05E02046FFF7AFFE01E0FEF7E4FF002070BD014B0022DB681847140D002070B5448905680089022803D0032809D0FF2070BD2246094C0023A468F6
:4037400029460120A04708E0FFF72EFA241DA2B200232946022007F010F8002070BD0000140D002070477047024800214160018041807047140D002070B50C46002186B074
:4037800016460391012802D0022859D116E003A9012007F047F801281BD1039D324621462846FFF7BCF90095287801900220694608814E816846FFF7B5FF41E0214D002B23
:4037C000686809D0049004A9022007F02BF801281DD0022006B070BD002812D0298840182146FFF79CF928880024801980B228806988091D884206D12C801348FFF792FFF6
:4038000003E00320E6E788421AD96C6018E004986860E278A378110219430B4A698000231060E3565360032313815181A1788170E178C170617841702178017004202880AF
:403840000020C7E7140D0020781100203EB515460C46022803D004280CD000203EBD0091019002206946088107484A8100680EF066FE07E00CF042FF044B0022DB68294629
:403880002046984701203EBD100D0020140D0020014AD16090607047140D0020034801688068081A0A214843000970478411002010B5FEF783FE4C2204490548FFF72FF97B
:4038C00003490120C870002010BD0000645001008815002010B5FEF761FE10BD0020704770B5134C2368002B08D0207B1149C20705D04008400020738868A08070BD88681A
:403900000B4AA18880B29268814203D90A4D691A091802E0814202D2411A5118A160A080A0689842EAD30EF027FE00F013F870BD84110020C0102E40FFFF000010B50846F7
:403940001946FFF7A5FF10BD704710B5FFF77EFF10BD000003480021016041608160C1607047000084110020024610B5FF20002A0CD0FFF7EFFF064C0321207B08432073E4
:4039800010010A21FEF7A0FF2060002010BD00008411002000B504480A21806848430209FFF7D8FF104600BD841100200248007B8007C00F704700008411002010B54B49F6
:4039C0000868002802DA4A4B01221A70022290430860484800694549C00B4031096A0246C907C90F0A4259D0012000F0EDFA3F480E216C30FEF7DCFC3E4820218430FEF790
:403A0000D7FC3C4814219C30FEF7D2FC3948FF21C131A430FEF7CCFC3648FF212F31B030FEF7C6FC33483449BC30FEF7C1FC31483249AC30FEF7BCFC30492E48491CB43067
:403A4000FEF7B6FC2B482E49B830FEF7B1FC29482C49CC30FEF7ACFC26482B490830FEF7A7FC24482949A830FEF7A2FC214828498830FEF79DFC1F4826498C30FEF798FC76
:403A80001C481921C9029030FEF792FCFEF7A0FCFEF7B0FDC0B2022812D01FE000290BD0002101420AD0114801216030FEF780FC0120FEF767FD97E70121F2E7FF2010BD0D
:403AC00015491648FEF774FC14481549001DFEF76FFC124800210830FEF76AFC54200449C043891C0870002010BD000000F02E40240D002000002E40320300002F3F0000D2
:403B00003102000010520000EC160000FA12000031D000003AE300009956000080012E40F80F000070B50646581C80B245086D00002408E0304600F0C1F81055000A11194A
:403B4000A41C4870A4B2AC42F4D3D80705D0D0182038D15CC47FD454C17770BD30B50A4C002100195B1E07E0541864782502545C2C430480891C89B29942F5DB994201D1B2
:403B8000515C018030BD000000102E4010B5FF2000F01AFA0F49FF2048700E481021801D41800121417001700A490020C91C4870FFF704FF04000AD100F02EF907210648B7
:403BC000FEF7E6FB044807211830FEF7E1FB204610BD0000240D0020CC112E4070B5002405465B1E0AE0284600F068F8010A161971702D1D1055A41CADB2A4B29C42F2DBF4
:403C00009C4203D1284600F059F8105570BD000070B500210A4D5B1E0AE0541864782602545C344346193480001D891C80B289B29942F2DB994202D1515C4019018070BDAE
:403C400000102E40F0B50599091FCFB200217E1E0BE0541864782502545C2C43164D45192C80001D891C80B289B2B142F1DBFC0712D01C78515C24020F4A0C4381180C8030
:403C80009C785D78001D210280B2294384182180001D80B2D9780CE059781A7809021143054A84182180001DD9789B78090280B2194380180180F0BD00102E400149401826
:403CC0000088704700102E4010B50B490020487000F0A2F8002000F09DF9002000F08AF907210648FEF754FB044807211830FEF74FFB002010BD0000270D0020CC112E4012
:403D000010B50C48007801280FD100F099FF00F0DDF8002804D10848016A490849000162054802213030FEF743FB02490020C91E087010BD270D002040F02E4010B50B4645
:403D4000062812D006DC01280CD0032801D1FFF7BBFF10BD0A28FCD00B28FAD105480078107010BDFFF712FF10BD1146184600F06DF910BD2A0D0020F8B5244DAC6A012765
:403D8000A007234E002816DA307806280ED1286A384328621F480069F903084381B21D481030FEF705FB042000F00EF9174802212830FEF7EDFAE00718D000F099FF012852
:403DC0000FD1002000F0E6FF062000F0FDF81049FF20C91E48707078002802D1686B384368630A4801212830FEF7D2FAE0050BD53078042802D1052000F0E6F80348FF2179
:403E000001312830FEF7C4FAF8BD000040F02E40270D002000002E4010B503212348FEF7C7FA0120FEF79EFB20483038406A204C80076178800F890001431C480C38FEF738
:403E4000B7FA6078002808D0401E022181401820FEF724FEC000083800E0B82081B21548FEF7A6FA1348032109021438FEF7A0FA10481149B830FEF79BFA612189010F485F
:403E8000FEF796FA0D480321001FFEF791FA0C490C48FEF78DFA0B480B496038FEF788FA084801218838FEF783FA10BD70F02E402A0D0020D8102E4090890000041E2E40F5
:403EC000FF0F000058122E40209000000449012009684907490F022900D000207047000000010B4000B5FFF7F1FF002805D009480168C908C900016000BD0748016A490872
:403F000049000162054801690122D2039143016100BD000000010B4040F02E4000002E400848017806290BD140780749002803D1486B400840004863C86A01221043C8624B
:403F400070470000270D002040F02E400148007870470000270D002002484078022800D001207047240D002000B50300FFF704F8080D050D0B070507090D012000BD0320A1
:403F800000BD042000BD022000BDFF2000BD0000074A9168D26889B2064B92B2994204D105498A4201D1012100E000210170704780002E4033D000003FE300000149487058
:403FC00070470000270D002010B50446FEF7EEFA072C01D9FF2C01D102480470FEF7DEFA10BD0000270D00200149487070470000240D002010B5064A012805D01921C902F2
:404000001046FEF7D5F910BD1D21C902F8E7000090002E4010B50A4A141D012808D009491046FEF7C5F908492046FEF7C1F910BD04491046891CFEF7BBF90349491DF3E75E
:4040400088002E4031D000003AE3000070B50C460546FEF7CFFAC0B202280E49287804D0FF2810D04C280CD810E0FF2809D10A4AD0680004800F032801D0087807E090697A
:40408000000A553803E00878207070BD4F382070087070BD260D002000002E40F0B50122002834D0002932D00424420600D00524792342065B06D21800D0641C034600225A
:4040C0001EE00C2516466E43124D00277519AF72104F002ABB51696007D0661EB24209D10D4E86197606760E05E05E06760E8027BE1B00E080269B198919521C2E81D2B204
:40410000A242DED303480549006B002288611046F0BD00001014002079020000300D002018B50020694608700A48006900280ED0132149014018047E684604704F21C90034
:40414000054800F05BF8A04201D0012018BD002018BD0000300D002094110020074900200C2242435218927A012A05D0401CC0B20628F5D30020704701207047101400209F
:40418000F8B50F000446164609D01A4D1A496868A04202D94018A04201D38E4201D90120F8BD39462046FEF7ABFC002820D0324639462046FEF7B3FC0E49F0B201262031D4
:4041C0008E7600210C220B4653430A4A9A1813895568EF18A74207D9641B1B1B9672834206DAC01A1469C0B2491CC9B20629E9D30020F8BD1014002079020000034610B5BE
:404200000020024604E09C5C2018521CC0B292B28A42F8D310BD000070B500F063F8084C064A216907480D46FEF779FC05492846FFF734FFFFF774FF207070BD790200004A
:40424000300D00209411002010B500F04BF810BD002070470020054A002902D0012902D002E0906000E0D06000207047300D002070B5084C154608460549E26889182A4639
:40428000FEF74DFCE0684019E06028B270BD000094110020300D00203EB50A226946FFF7E7FF044606480A2200686946FEF728FC002802D00020C0433EBD20463EBD00009F
:4042C000340D0020002802D0044A914201D2FF20704703494A6108610020704779020000300D0020024800218160C16070470000300D002070B5074C15460548A268801847
:404300002A46FFF73DFFA0684019A06028B270BD94110020300D002010B503490A220968FFF7E8FF10BD0000340D002010B50F4A002313600E4A13600E4B18600E48016091
:404340000E49012008600E490860000290600E490C4808600D4914300860FF381538506000F0BEF800F0CCF9002010BD640D00204C0D0020780D00207C0D0020680D00202E
:40438000580D0020581500205C0D0020700D002000207047014610B50020002910D0094B1A689C685118A14209D25868196080188A0704D08A07920F891A091D196010BD41
:4043C000002010BD4C0D0020F8B50024164E671E321F3D463168136806E01422624310328A58521C1BD0641C9C42F6D36A1C14D02C461422544322460C3288500C21484371
:40440000FFF7C8FF3168002808510AD031680020103408517068401C70602846F8BD2546E4E73846F8BD00005C0D0020F3B50026F64381B000281BDB1E490968884217D875
:404440000299002914D01B4F142204463F1D54432546396810354859401C09D0FEF7A6F838682F1F4159C359994203DBFEF796F83046FEBD214608310091465801590C2097
:40448000704308180C220299FEF749FB0948761C001D0068C159B14200D100260549009A091D865008684159491C4151FEF776F80020FEBD580D0020002803DB074909684C
:4044C000884202D90020C043704704491422091D096850431030085870470000580D0020F0B500200D4A451E0346171F50600FE014260146714314680E1DA3510C46166877
:40450000083433511668083435511468401C635039688842ECD30020F0BD00005C0D0020F3B50026F64381B0002841DB2349096888423DD8029900293AD0204F142204467B
:404540003F1D54432546396810354859401C2FD0FEF72CF83868415900292BD0211D009146580C21005971430F46C1190C220298FEF7D5FA11480021001D0068761C005938
:404580000C34C0190160416081600C48001D00680159B14200D100260849009A091D865008684159491E4151FDF7F8FF0020FEBD3046FEBDFDF7F2FFFAE70000580D0020B6
:4045C000FEB504460D4600201E49089E0860471E009001900290002C11D0486885420ED2002A0CD0002E0AD0642E08D808460C3001681C2068430C18207A002801D03846CB
:40460000FEBD0120226020721846FFF7DDFE6060401C13D06681A6810A4827610C3067610179A94200D205710021684601810A462846029B00F040F82846FEBD0020207214
:40464000DDE70000640D002038B50124009400F039F838BDFEB50027164EFF433D4600240EE01C20316860430818017A002906D04068FFF721FF002801D0254603E0641C7D
:404680003079A042EDDA681C12D01C2130684D434419FDF78BFF69466068FFF741FF0546FDF77CFF002DD9D1216868468847D5E7FEBD0000700D002038B50024009400F015
:4046C00001F838BD1FB500220C49541E0A60002811DB496888420ED808491C220C31096850430818406801A9FFF7A0FE401C02D0002004B010BD2046FBE70000640D0020B2
:40470000F0B50021114A4D1E174611710C3F0B46BD6016E008461C2460431668041D355114680646235014680836A3551468361DA353044616680A34335318301468491CA2
:40474000255078688142E5D30020F0BD700D002038B500210091002811DB0F49097888420DDA0D4D04010C3529680859002807D0201D0818694600F06FF9002801D00020B4
:4047800038BDFDF713FF28680F34015D491E0155FDF704FF009838BD800D0020F7B582B0002502986E1E06602E48D21C024017462D4A2C4610460C380178106805E02301D0
:4047C000C358002B0FD0641CE4B28C42F7D3711C28D03401211D40180191039900F02AF900281FD101E02646F1E71F48016820460C300F521C480399026820460E301154D2
:4048000019480399026820460F3011540398784300F0A0F8144900280968085102D00024009011E001251AE00F48016801980818009900F02CF9002801D0012502E0009883
:40484000C0190090641CE4B203988442ECD3002D05D10298066004480179491C0171284605B0F0BDFCFF00008C0D0020F8B50D4600216A468C461180002839DB2349097818
:40488000884235DA214B04010C3319680A59002A2ED020460C300B5A801C0E5C184670438018954224D3854222D2002006E007465F43BF18AF4206D0401CC0B2B042F6D308
:4048C0006046002814D0114E271DC8190C366A46294600F006F900280AD168460088012808D030682946C01900F0D1F8002803D00120F8BD0020F8BDFDF758FE30680F3494
:40490000015D491C0155FDF749FEF3E7800D0020F8B50F46002400F031F8002817D10C4900220B460C334A600EE021011D680E466A501D680C36AA53B61C1D680F31AA559F
:404940001D68641C6A54E4B2BC42EED31A71F8BD800D002000280BD0C01C074A81085068890053884118994203D89368516018187047002070470000800D0020F8B506463E
:4049800000200F4D009029700C0121466846FEF7B9FB00280CD129460C3100980860301B001F84B221466846FEF7ACFB002801D0FF20F8BD6C800098A8600020F8BD000057
:4049C000800D0020F8B5002827DB19490978884223DA174C05010C342168485900281CD028460C30085A009028460E300E5C401C0E5420682F1DC01900F064F800280CD134
:404A00002068002445590EE0094829460C300068C01900F03CF8002801D00120F8BD00982D18641CE4B2B442EED30020F8BD0000800D002030B50D4604000BD0A800FFF72D
:404A400089FF6060002805D000202570C0436080002030BD012030BD70B50D46040005D0002D03D00220205E002801DA012070BDFDF79CFD0221615E60688900405828601C
:404A80006088401E6080FDF789FD002070BD70B50D46040007D0002D05D002212078615E401E814201DB012070BDFDF77FFD6088401C00B26080616880000D50FDF76EFDA4
:404AC000002070BD10B5040009D0227800216068FEF72EF80020C0436080002010BD012010BDF0B500231D46002802D00224045F0AE00120F0BD46689F00F6598E4201D1A7
:404B0000012503E05B1CDBB29C42F4DA15700020F0BD00000148007870470000940D00207CB505460024FEF73FF8A8796946087000A8062229460130FDF7F1FF00216846FA
:404B400005F0F0F80C2806D0072806D01F2806D0122806D006E0022404E0042402E0272400E0012420467CBD01480121417270479416002010B502280BD0032802D00428A1
:404B800009D102E000F094F905E000F03FFAFF2801D100F04FFAFFF7D9F9FFF7E5F910BD10B500F077FAFFF7D1F9FFF7DDF910BD70B504460025FDF7F7FF002C06D0A079FB
:404BC000012803D8214602F0DDFE00E00125284670BD01460120002902D05020088000207047000001460120002905D003485422007850430880002070470000960D002056
:404C000010B502460D49FE204870032410460DF0B9FF002810D10DF05DFF00280CD105F05DFE002808D100F02BFC002804D105F01FFB002800D10024204610BD940D00201D
:404C400002480021018280210180704700102E4010B5FF240EF00EF8002804D10DF03AFF002800D1002403490020486002494872204610BD940D00209416002070B5002592
:404C8000044600280ED0A07901280BD8FDF78CFFA0790028204602D003F054FA03E003F029FA00E00125284670BD0000014610B50120002904D006220248FDF730FF0020CD
:404CC00010BD0000A00D002001460120002903D0087802490870002070470000960D002010B5FFF733F9012801D1FFF735F910BD0148007A704700009416002038B504468B
:404D00000120002C20D0617801291DD800290BD0FF25E535FDF748FF0C4828180088C0B22070072803D00EE0FF25CD35F2E70020694608706846FFF72BF96946087801284D
:404D400001D108202070002038BD000000102E40014A002192681047940D002008B500226B461A7026280CD0094A342852680BD0352805D1900703D50021352005F096FE6F
:404D800008BD19462620F9E7D007F9D03420F5E7940D0020014908727047000094160020F8B504460120002C26D06178012902D92278092A20D8002905D0FF25E535207822
:404DC000092803D004E0FF25CD35F8E708202070FDF7EAFE2078114F114E08280DD00020FFF718F970780128207810D00D4969180880FE2070700020F8BD0120FFF70AF9D2
:404E00000720B8810549203188800120F2E7B8810248217820308180EBE70000C0112E40940D002000102E4070B50E46050001D0002400E00C4C002C11D0E28A500609D55C
:404E4000D107C90F022003F01BFAE08A40218843E08204E0D107C90F012003F011FA3146284602F0EBFE70BDF4150020F8B50546002004460D4E009013E0224669462846D2
:404E800001F052F90098002801D00DF05DFEA878214602F0B5FCA878214602F0A3FC641CE4B2308AA042E8D8F8BD0000C0160020F8B54E4CFFF74AF8012847D14C480078A2
:404EC000002843D002F042FE00283FD004F0B0FB00283BD0474E7078C00703D000F040FD012833D0307E00287DD17078002500285BD0000706D540488089070B00F02EF9AC
:404F0000384370D13B484178684604F0D9F9217A3A4CA2788918C9B2814262D802F016FE002860D0344860300789324E203602F057FC6846008802F081FC02F01DFD304972
:404F40000988884203D10120FFF73EF84BE02D49012008702748807B00281DD0002F1BD04036F07E002817D123486030008821494000C031498981420AD26078002807D187
:404F800003F0ACF92049088A03221202104308822078002800D0257002F086FC0120FFF70DF800F049FC174C15E002F0CFFD002819D0102402F0E0FC214602F0C9FB02F026
:404FC0003DFC104C0120207002F06EFC0020FEF7F5FF00F031FC20780128B4D1FEF782FF25700020F8BDFF20F8BD0000C8150020240D0020D4150020A0102E40BA0D002093
:40500000CC0D0020A60D0020E0112E4010B50848FF244078002809D102F098FD012805D1FEF76EFE0720FEF7CFFF0024204610BDD415002038B5FEF789FF012801D000209E
:4050400038BD02F083FD00280AD0114C6078C00703D000F085FC012802D0207E002801D0FF2038BD617800290FD0684604F028F9022806D96846008802F0E0FB012002F01E
:405080001DFC0320FEF7A0FFD9E70020F7E70000D415002038B51E4CFEF758FF042813D0052811D0062812D003282AD007280AD100206946087002460120FEF73FFEFEF783
:4050C00045FF0128FBD138BD00F0D6FB38BD02F00DFC00F0D1FB02F089FC8007800F0228F4D10C4841880029F0D05B21095D0029ECD101210170A07D0140022003F0C0F80D
:4051000038BD02F0F7FB0120FEF75EFF38BD0000F4150020BA0D0020F8B50646002403F01DF90546304603F033F903460A480021068A0DE001228A401046174628401F4078
:40514000002803D0002F01D1224394B2491CC9B28E42EFD82046F8BDC016002070B500252C460A4E03E0002C01D0002000E030460079002803D02046FFF7CEFF0543641C31
:405180002406240EEFD0284670BD0000F41500201CB50020694648706846FFF7AFFD01AA69460A20FEF7CAFD6946042008561CBD70B50D4601F09EFB04000BD0207900287C
:4051C00008D0FDF7F1FCE178A0782A4602F0BCFD002070BD022070BD0148007970470000C81500204030C07E002800D00120704700B500F001F800BD902148430749084AA1
:4052000040186030417F491CC9B24177D289914201D300214177C8B270470000D4150020C016002013B501F065FB04000BD001F01CFF002807D0214601AA0A310620FEF7B8
:405240007DFD00201CBD02201CBD000010B50C4601F050FB00280AD001F007FF002806D0224604490A20FEF769FD002010BD022010BD0000B5150020F3B581B00746014609
:405280000026029803F062F80446002F01D0002500E0154D002D21D0284601F061FB032C04D13946029803F0ADF806463846029902F098FA032C06D0002C10D00121384608
:4052C00001F054FC03E03146384603F0ABFA284602F076F90221284602F08CF9FEBD3846029902F07FFAFEBDF415002010B5044600F04CFA002804D103F076FF002801D060
:405300000C2010BD2078611C02F024FEFF2801D01F2010BD02F06AFEFF280AD02178621C02F0E8F9044821780068026B601C904710BD072010BD0000E00D002010B503F06F
:4053400053FF002801D00C2010BD02F0E5FD03480068C06A8047002010BD0000E00D002070B50D46044610210DF02EFB1021601806460DF029FB334610221946204603F0E5
:4053800061FF102130460DF01FFB02202870204604F0A4FE70BD0000FEB504464078217802028006870FE0781143A5780E050002360D0543304601F09DFAEAB23B46214693
:4053C0000096019000F0FAF90006000E14D10B48224600680199436928469847C0B2FF280AD10198EAB24030817EFF23491C81762146019800F0E1F8FEBD0000FC0D0020B1
:405400000020704710B5044603F0EEFE002801D00C2010BD2078611C02F09CFDFF2808D002F0D0FC044821780068426B601C904710BD1F2010BD0000E00D002010B500F070
:405440006BF904F015FF002010BD10B5044600786178E2780843A17811430843217908436179084305D003F0B1FE002803D00C2010BD122010BD204602F064FE002010BDFB
:4054800010B5FDF7B7F802F08BFF044804F010F802F0A2FC012000F003F810BD9C150020F1B586B003A8009005A8019028489F22017B114001736846FDF7AAFB002845D13A
:4054C00069460989C90705D0224806990068C2686846904769460989890706D5002835D11D480068816A0698884700282ED11B4E0025757075737571F57535767576757555
:40550000B570F570B5713746F5730120D03738731F20F880FF2130467972A0300176457600F028FB00242046069901F049FD002803D1641C2406240EF5D0FD720749BD72CB
:40554000B573C0310D704D704D600D7207B0F0BD88150020FC0D0020E00D0020D415002070B505460E46084602F0F8FE0446304602F00EFF0121A9400A46224001400A4348
:4055800001D0012070BD002070BD10B50446084602F0FEFE0121A140014201D0012010BD002010BD10B5FEF7D1FC032804D102F0A1F90120FEF708FD10BDFEB51C461646D6
:4055C0000F46054601F0FCFFA878FFF711FE02460190334639460094284600F00DF8002808D1A8780199FFF71FFCFF2C02D138460DF0AAFAFEBD0000FFB585B005460E98B4
:405600000C46FF2810D02B49C00009680A5840180179C0795278814201D9012601E09006860F6846038108E06078A1788006860FE0780002014368460181284601F046FDCF
:40564000070007D021462846079A00F001FD384609B0F0BD304600F0AFFD04AE0346039002AA29460096204600F019FC3C20405D002818D0284601F029FD012813D0684600
:4056800000890096C0B20190A878231DFF22079902F088FA68460089039BC2B2A878079902F0CCFDD3E7684600890021C0B20091E9E70000F80D0020F8B5002600253046F7
:4056C000FFF72AFD07001DD090201149704340186030447F12E0601CFDF7F6F8CCB23846E040C007C00F07D02146304602F070F821463046FFF7C0FD6D1CEDB20548018A91
:40570000A942E8D8761C3606360ED7D0F8BD0000D4150020C016002010B502F05DFB0020FFF7BEFE0DF0A6FA002010BDF8B5002400F010F90123012800D10124104F00205A
:405740003E4620360425082203E0002801D0002100E031460979002907D001290BD002290BD0114681402143CCB2401C0006000EEBD07C70F8BD1C43F7E72C43F5E70000CD
:40578000D415002010B5FFF7D1FF10BD10B5044604F0C0FE002802D1601C00F001F810BD1CB500240094062269460194FDF7A8F9002800D1122420461CBD0000F8B50446AB
:4057C00000201E4617460D46002C12D0002D10D0022E0ED0032E0CD0002F0AD02179092907D0002905D013494A7F5A21095D8A4207D82089002104F0A6FB28460DF0A4F97D
:40580000FF20E18F012905D1002F03D0012E06D0002E04D0374301D10121E187F8BD0021E187069A2A70069A120A6A70AF70E970F8BD00008815002070B50E4CFCF7A1FDF2
:405840000546FEF783FB062802D02078012803D02846FCF79AFD70BDFCF706FB2846FCF794FDFEF773FB0628F5D020780028E5D170BD0000A60D002010B5FCF782FD04467E
:40588000FEF764FB012809D0FEF760FB022805D0FCF7EAFA2046FCF778FDEEE72046FCF774FD10BD10B50B4681791943817103D08078114602F090FC10BD10B582798A43DA
:4058C000827102D1807802F09BFC10BD30B50C4C0220A28A0B4B9978002901D0022906D11D785B78EB18282B01D9032002E0032900D101205105490DC0020143A18230BD29
:40590000C0112E40B00D002000B500F029F8002807D0012805D0032801D0042801D0002000BD012000BD014600B50020C90701D000F010F800BD014600B50020C90701D0A5
:4059400000F008F800BD00000148006870470000A80D002001480088000A704720102E400448008B410501D5042070474007800F7047000000102E4001484068704700008C
:40598000A80D00207CB50446002568460570200610D5FFF7E5FF01280CD101A801F0BAFF6846007900F058FB012001F071FE0220FFF7E8FE600712D50C48017901290ED103
:4059C0000571684601F0A6FF6846007800F078FB0220FFF7D7FE00212620FFF7BFF9044800680169204688477CBD0000B40D0020E00D002010B501460A4A0078002410706C
:405A0000FFF7A8FF0128084603D002F007FB204610BD00F0E7F80400F9D1034801210170F5E70000B00D00209416002070B50446FFF790FF002801D00C2070BDA27B0121D5
:405A40001F48002A827801D00A4301E05208520082706279012A14D0C17849084900C170184D2868016820468847207901280CD06188208803F066F92080207904280FD0B8
:405A800015E0C2780A43C270EAE72868C168E01D8847E01D02F042FB0B48008D208006E02868C168E01D8847E01D02F037FB074920798870204602F0BFFA002070BD00006B
:405AC000D4150020E00D002088150020B00D002008B50178FFF73EFF814201D10C2008BD002914D0072069460870FFF70DFF012807D10121684600F0E5F8012801D00920E9
:405B000008BDFFF7E3FE02F0CBFA012011E0FFF7FBFE012806D1684601F0FCFE6846007800F0CEFA02F0B2FAFFF714FF0028FBD10220FFF727FE002008BD000010B50146D1
:405B40000A4A007800245070FFF704FF0128084603D002F021FB204610BD00F065F80400F9D1034801214170F5E70000B00D00209416002038B568460CF07CFF002801D02A
:405B80001F2038BD01210098C90201804180002505714571857107214173857302F04CFA009C202200212046FCF7C2FF25702A460021601CFCF7BCFF204602F02FFA204647
:405BC00002F0EAFA00980CF0BFFF062200210448FCF7AEFF02480C388560002038BD0000B40D0020F8B5044600250D4800950078012806D068460CF03DFF002803D0072555
:405C00000CE00C250AE0074E009830602278611C401CFCF784FF3168207808702846F8BD94160020A80D0020F8B5044600250D4800954078012806D068460CF01BFF0028E3
:405C400003D007250CE00C250AE0074E009870602278611C401CFCF762FF7168207808702846F8BD94160020A80D00200346084800B5834209D8184600F03CFE002804D077
:405C80000089984201D1012000BD002000BD0000FF0E0000074A9179491C8906890E917138220A4092014907090E11430843024908407047D4150020FF0E0000C006C00ECE
:405CC00070470000F8B507460E4600240D4803E0002C01D0002500E005462979002905D0641C2406240EF3D00020F8BD0021204601F066F92E712046FFF7CCFF28813C70F0
:405D00000120F8BDF415002010B503F0CFFA0222002100F003F802F00BF810BD10B5094B40074907000F090F185A595A40185043C0086421FCF7C8FD002800D1012080B2B9
:405D400010BD0000B0500100F7B53D20405C88B015460C46002802D02878042802D200200BB0F0BD6946087200262046FFF73AFA012800D00126204603A93830019100900E
:405D800023460327A17E34333246206A03F0AAFB02A8089900900B46019120463A4603A9243003F02FFA02466846007A2870204601F0F2F81046D3E7FFB587B00C4605468F
:405DC0001078694608723D20005D1746002826D000262046FFF706FA012800D00126204603A93830019100902346A17E34333246206A03F077FB02A80090291D01912046B1
:405E00002B1D03A924300A9A03F0FCF902006846007A388002D1204601F0BEF810460BB0F0BDF0B505463C20405C89B016460C4600280CD0307869460873002806D0002744
:405E40002046FFF7CFF9012803D003E01F2009B0F0BD012703200890204604A93830019100902346E17E34333A46E06903F03AFB6846007B03A928180290009120462B46CB
:405E8000019504A92430089A03F0F0F902466846007B3070204601F089F81046D7E7FFB505463C20405C89B016460C46002810D0084601F00BF901280BD030886946888331
:405EC000002809D000272046FFF78CF9012805D005E000200DB0F0BD0220FBE70127204603A93830019100902346E17E34333A46E06903F0F7FA291D2B1D07A8129A6D46EC
:405F000007C5204603A924300C9A03F0AFF902466846808B3080204601F048F81046D9E770B50C460646FFF75DF9012824D06079227900020243E079A37900020343607A12
:405F4000921F0102207A0843E17A0D02A17A154C294335464035A24207D20A38221F904203D2FF20F43083420DD91E202873304600F0C8FB1E2070BD00222421304602F035
:405F800027FE242070BDB07801F0BEFD012801D0002070BD28202873304600F0B3FB282070BD00007B0C0000002801D0002000E003484030C07F012800D00020704700007A
:405FC000F41500200146002049070ED50021084B03E0002901D0002200E01A461279022A04D0491C0906090EF3D0704701207047F41500200146002049070ED50021084B8C
:4060000003E0002901D0002200E01A461279022A04D0491C0906090EF3D0704701207047F415002010B5044680346068002803D00CF09EFD0020606010BD403041707047EE
:406040004030817070474030017070470171704792001018C166704770B53C2501F030FA040004D020460021433001F0EDFCFF222946204600F0E8FB002C02D0A07801F092
:40608000A1F970BD10B5002801D0002000E00348002802D0008903F09DFF10BDF415002010B5002801D0002000E00448002804D00179072901D100F047F810BDF415002061
:4060C00010B501F0FDF9002802D0807801F07AF910BD00207047000070B50546008A00281ED01049F122097B1140C90618D5294640314A8A098A521C4A4392B2D10800D1BD
:406100000121540801E0621A94B2A042FBD9FEF701FD012804D1298AA878224601F0CAFD70BD00008815002010B50023054C0B60248A944204D992001018C26E0A60C36638
:4061400010BD0000C016002038B5044600200090A079002814D14020015D052901D00E290ED168460CF096FC002809D12046009902F00CFD03481021428B2046FFF792FB12
:4061800038BD00008815002010B50B4604460146184602F06BF9002802D020460CF0DEFC10BD13B5044601AA11460620FDF7C6FD6846818861811CBD002800D1022070479A
:4061C00070470000F8B504462346401D543300909A1EA078911E01F0B9FB25464035A88A298A8000FCF770FB401E81B2688A884203D96982A07802F07DF8698A8C200151C9
:4062000020460021433001F01FFC27480088E88103F04CF8E989891C8AB26179FFF77EFD01F086FD03F042F82A8A6179FFF776FD074601F071FD688A002806D01B49088AF9
:40624000032212021043088202E0002002F046F81648803801886E8A002E0CD0304648431349FCF71BFC0004000C01D0401C80B21049488002E00F4800214180288A7043BE
:4062800081B2A07801F096FFFF2228374932B9B21346204602F05AFDE98AA07801F00AFFA07801F0BFFAF8BD80102E40E0112E4071020000BA0D00207FB5044680346168F1
:4062C00005460E46183108226846FCF728FC31462031082202A8FCF722FC102168460CF073FB6068102108300CF06EFB60682B46083024331022694602F0A4FF7FBD10B5FC
:4063000004460821FFF7D9FA10212046FFF7D5FA207905281FD006281DD008281AD12189002003F0CFFD072020712046FEF75AFF014620464030012913D00E2101700021FA
:406340000176204601F050F82046FFF76BFE2046FFF7C2FE10BD20890122002103F096FDE1E70521EAE70000FFB581B01F4604460821FFF7A2FA10212046FFF79EFA20791A
:40638000082803D0092804D0042203E00422012501E009220025204600F05EFE264600204036307022712046FFF73CFE0398002D02D0012808D00BE001280AD1208900227D
:4063C000029903F063FD04E02189029803F07AFD012700203076012F04D0204601F004F805B0F0BD02983073204602F01DFC054605480121428B2046FFF754FA002DEFD1AA
:4064000009202071ECE700008815002070B50C460546FEF7E7FE012809D108212846FFF74CFA0023012221462846FFF79DFF70BD10B5044600F010FE2046FFF7F3FD00214C
:406440004034217010BD70B505461A24FEF7CAFE012809D108212846FFF72FFA0023012221462846FFF780FF70BD0000F8B50446002000900E4668460CF00CFB002801D0C4
:406480000D20F8BD8420005908212030009D00F02CFA20460421383000F027FA002E02D1204600F03BFE2946204602F0FAFA0E480821428B2046FFF7F5F9204601F005F898
:4064C00025464035002808D0204600F023F8002801D0092028700020F8BD08202870204601F06EF8F7E7000088150020014610B540310A460978082906D0092907D00A2913
:4065000001D100F091F810BD0B20107010BD00F001F810BD70B50446007925464035052805D0062803D008280FD00C2070BD03220621204602F04CFB0D480821428B204646
:40654000FFF7B0F91120287010E006202873204602F06AFB0646AA8A0A20424301212046FFF7A0F9002E01D109202071002070BD8815002038B504460020009068460CF0AA
:4065800089FA002801D00D2038BD2046009D00F0C3F908202071204600F0C0FD2946204602F0B6FA00213D2001550F2040210855204601F005F8002038BD00B5024600F034
:4065C0004BFD10214032117000BD10B50446FEF709FE012809D04020005D112805D100231A4606212046FFF7BFFE10BD10B5FFF786FE10BD38B504460021684600910CF06A
:4066000049FA00280CD12046009902F002FB05480821428B2046FFF745F90D204034207038BD00008815002038B504460021684600910CF02FFA002801D00D2038BD204627
:40664000009902F0DBFA05480821428B2046FFF729F90C2040342070002038BD8815002000787047F8B5002569460D70002801D0002400E01F4C002C18D0204600F0F5FC07
:40668000002813D0207903280BD005280CD026464036B18AA07801F097FDB078012806D01DE0042020711DE006202071F8BD0021204601F0F8FE274680373868002802D0FF
:4066C0000CF056FA3D600020B0702079072802D12046FFF701FD0221204600F08BFF20790428E3D1207A694608703420FEF736FBF8BD0000F415002010B54C22115400F05F
:4067000052F810BD10B50446FF21FFF7D6F809202071A07801F07EFD10BD000038B5FF216A461180002801D0002400E00B4C002C12D011460620FDF701FB6846018820468A
:40674000FFF72FFD204600F0C7FC002804D104480068C1692046884738BD0000F4150020FC0D002010B504468079002809D022214C200155FF212046FFF79FF8204600F010
:4067800012F810BD10B5037902464032002B03D01173092B02D003E0002100E02221117300F001F810BDFEB504460089002700902781207926464036002817D0012815D0A1
:4067C00002280AD112E002AA01A9204601F03CFE002807D101980CF0C1F9204601F05CFE0028F0D02046FEF741FBB776254680352868002802D00CF0BBF92F60686800282E
:4068000002D00CF0B5F96F60317B002919D0009800F064F8A078002101F026F82046FFF773FAA07801F05AF9A07800F0CBFDFF212046FFF742F80B20FEF7A4FF00F0A8FC21
:40684000FEBD1F213173E2E7F8B517460E46054602F028FD04003CD020460C3001F0E4F82046062200211830FCF762F92046062200211230FCF75CF9164822460068394646
:40688000436A28469847074626702846FEF7AAFC012148406070002D10D02889608028464030C1782171002E0FD169796171018AE180418A2181808A608106E00648008B6C
:4068C000C005C00F2071002060803946204603F07CFAF8BDE00D002000102E400A4610B50146002003F08EFB10BD10B50BF048FE10BD000000B50146FFF7E0F9002801D089
:40690000002000E00348002802D002898A4200D0002000BDF415002038B5044680346068002806D168460CF0C5F8002801D100986060606838BD000010B5014600F0C6FB00
:406940000128887802D0FEF757FC10BD90214843024940186030007F10BD0000D415002070B5054604464035A87F012811D1A1789020084A484380186030067F3046FEF724
:40698000EFFD002805D10220A877A078314601F05FF970BDD415002010B50C4CA07A002813D0FEF789FE0A48027F417F408B00F0F7FB012809D10020A07200F0C1FF05496D
:4069C0008989090B01D000F03BFA10BDA4160020D4150020A0102E4070477047490510B5490F0B00FCF7C8FA060704080C0C0F073E21FFF781FE10BD0821FFF7C3FE10BD7F
:406A0000FFF7D1FE10BDFFF7ADFE10BDF8B507460025002D01D0002600E0204E00F03AFF3046403044890021418100F057FF304600F01BFB01282BD1A00702D52846FFF73D
:406A400011FEE00602D52846FFF768FEA00601D5FEF732FE600601D500F054FB200602D5284600F01DF8600702D5284600F046FA380402D52846FFF713FB780402D52846D2
:406A8000FFF700FBE00703D021463046FFF7A6FF6D1C2D062D0EBCD0F8BD0000F4150020F8B5002801D0002400E0284C002C4BD025464035A878012846D1FF27882049375F
:406AC00000593E46002805D02149097B890601D5878AC68A2046FEF785FB012834D002F0E5FB2A8A6179FFF719F9009001F014F900983346283081B23A46204602F026F977
:406B0000E98AA07801F0D6FA12480188688A124E002810D048431149FBF7C0FF0004000C01D0401C80B27080A07DC107C90F002001F0A6FB01E000207080288A698A484347
:406B400081B2A07801F036FBF8BD0000F41500208815002060112E40BA0D0020710200000149096809680847FC0D002070B50D460026194A0146002801D0002401E0144690
:406B80002034002C26D0204600F0A0FA01280AD19020484380186030007FFEF7E1FC002801D101F0C1FF0D48006881692046884700280CD020464030817EA94202D3491B33
:406BC000817600E086762089294603F0BCF9204600F0F6FC70BD0000D4150020FC0D002070B503460088FFF785FE040013D000F03CFA00280FD02079092819D025469978A9
:406C000040352973204602F00FF80646A878012803D0AA8A02E0022070BDEA880A20424301212046FEF73EFE002E01D109202071002070BD0EB5002217216B46029219813A
:406C400000905A810120029B00990CF031F80EBDF8B518480024807A002822D1164E0025B089000B22E0204600F008FF1249A039401807882A462146384600F091FA0128DC
:406C800010D00E480122478305770A4944778A72002D01D0002000E02030002801D000F08FFCF8BDB089000B641CE4B20028DAD1F8BD0000A4160020A0102E40D4150020D1
:406CC00010B50088FFF716FE002809D0014640310C460978082905D00B2903D00C2010BD022010BDFFF716FC002801D009202070002010BD70B503460088FFF7FBFD04002D
:406D000008D0254640352878082805D00B2803D00C2070BD022070BD8420005910220830991CFBF7FCFE2046FFF7C6FA2878082804D02046FFF778FC002801D00A202870F5
:406D4000204600F03DFC002070BD000010B50C46002121700088FFF7CDFD03000BD000F084F9002807D00948F121007B0840C00603D4112010BD022010BD022020701A8AD6
:406D80001889002103F05AF9002010BD88150020F8B50F46002100910088FFF7ABFD040012D000F062F900280ED0E079410641D4617E02264A07002A08DB890740250029D8
:406DC0001ADA2843E07135E00220F8BD02F06AFA0021017021894180A1898180217E4170E189C1803E7005460178134802F0F4FD284603F0C7F81DE0204600F06DF90128CC
:406E000006D068460BF046FE002803D00720F8BD2A20F8BDE07900992843E071204601F02DFF607E0421304360760448428B2046FEF738FD0020F8BD1D04000088150020E0
:406E40003EB500220F236C460292238100910190628169460EC900200BF02AFF3EBD0000F8B50F46054600F02BFB04002AD000F007F900282AD003202071254600264035EA
:406E8000EE76E6702046FFF79DF901F0FFF80920FEF778FCA07800F00FFE0121204600F0A9FB2E706E70AE703A4600212046FFF7CBFC0F49887B401C8873A078FFF750FE0F
:406EC000022012E0284601F0A5F9F8BD002001F0A1F90848008B4007800F012802D1064801F01CF901F0DCF80120FEF74BFCF8BDD415002000102E40E80D002010B50028C0
:406F000001D0002000E0094800280DD0014640310A464978022901D100215170807DC107C90F002001F0ACF910BD0000F415002070B503460D460088FFF7DCFC04000BD043
:406F400000F093F8002807D01248F121007B0840C00603D4112070BD022070BD20464030418A008A491C41430804C10C5888884201D2122070BD20822079072802D12046B2
:406F8000FFF7AAF8022028702089002103F07EF8002070BD88150020016A491C016204D1817E491C4906490E81767047C169491CC16104D1C17E491C4906490EC1767047C4
:406FC000F0B5074687B003A8009005A800260D460190002F01D0002400E01B4C002C05D06846FBF715FE002803D00BE0022007B0F0BD68460089C00704D1902200212046DF
:40700000FBF796FD114829460068826820469047050016D1A77066762746267140373E70204600F019F8204601F032FA084820820848BE77007BF121084000D001202075B0
:40704000E682E8B2D3E70000F4150020FC0D0020B80B000088150020002101628176C161C17620300177417770470079002805D0012803D0022801D001207047002070475B
:407080000F49008908820E49603108880D4A801F904210D28888121F0A3890420BD20889FF21F431884206D8074800890006C00E401F0C2801D300207047012070470000D1
:4070C000A0102E407B0C0000E0112E404030807F002800D00120704740300078002807D0012805D0052803D00E2801D0012070470020704710B5807801F04AF9002800D0C9
:40710000012010BD10B500F01BFC03498989090B01D0FFF795FE10BDA0102E4070B5054604464035A87F002825D1FF206075A0789021154A484380186030417F9023491CC3
:40714000C9B24177A0785843104B8018DB896030994201D300214177A0789021484380186030467F0677A1783046FEF7F9F9002802D00120A87770BD0220A877A07831464F
:4071800000F066FD70BD0000D4150020C01600200020401C0006000EFBD0002070470000F0B516468207920F87B0000A02926A469080002E01D0002400E07F4C002C21D073
:4071C000084600F05BFC074668468088002810D00298032817D0002000906846808821890491214620310391497F0546012964D067E07248381801882046FEF7D2FF304665
:4072000000F022FBD6E00020029002A80BF022FC002807D03D20005D0128F3D12046FFF7BBFEC7E00298009068468388202B14D31F2300213846009AFCF774FC684680880B
