:400000000080002011000000F50E0000F50E000080B500AF00F0A2FF80B500AF2E4B12221A6003F043FB2D4B180003F071FB012003F04CFB302003F01FF8294B294A1A6053
:40004000294B8022D2051A60284B284A126802210A431A60264B274A1A60274B00221A60264B264A126808218A431A60FA23DB00180003F0F3F8224B180003F027FA214BA8
:40008000FE2212021A60204B204A1A60204BFE2212021A601C4B1F4A1A601F4BC82252011A60194B1D4A1A601D4B802212061A601C4B8022D2021A601B4B40221A601B4BDF
:4000C00041221A601A4B42221A60074B8022D2051A60C046BD4680BD30001040001BB70004010B40060000800C020B4078002E407C002E406A2D000064F02E406CF02E40E1
:40010000DC050000000301400000014040FF00800403014041FF00800803014042FF008008010B4000010B4014010140100101400401014080B582B000AF72B6484B002204
:400140001A60FB1D00221A7022E0FB1D1A7813005B009B185B00434A9B183B603B681A78597809020A43997809040A43DB781B06134318003B681A795B791B0213439BB2C9
:40018000190000F015FEFB1D1A78FB1D01321A70FB1D1B78012BD8D9334A344B1100180000F016FE324B8022D2021A60314BEE2212061A60304B992212041A602F4B99226D
:4001C00012041A602E4B992212041A602D4B992212041A602C4B992212041A602B4A2B4B1B78DBB23C218B43DBB214210B43DBB21370274A264B1B78DBB216210B43DBB2BC
:400200001370244BD82212041A60234B20221A60224BC42292021A60214B20221A60214B82221A60204BB022D2031A601F4B802212021A601E4B02221A601E4BC022520338
:400240001A601D4B01221A601C4B01221A60FFF7E3FE00F0FFFDC046BD4602B080BDC0466CF02E402C6D0100486D0100386D010014000B40000002400001024000500F40F7
:4002800010500F4020500F4030500F4001700F4000700F400800044000010440080104401801044000020440080204400C020440180204400803044000040440180404400C
:4002C00010B5064C2378002B07D1054B002B02D0044800E000BF0123237010BDE010002000000000F8660100084B10B5002B03D00749084800E000BF07480368002B00D113
:4003000010BD064B002BFBD09847F9E700000000E4100020F8660100A80B00200000000080B582B000AF786039603A687B681100180000F0BFFB7B68272B0AD0282B02D091
:40034000012B00D009E0074B00221A7000F0B8FA03E0012001F0D8FCC046C046BD4602B080BDC046FE10002090B585B002AF62B601F0F0FB314B180003F088FF012001F0BE
:40038000EBFC012001F0C0FC2D4B180000F098FF03001A002B4B1A802A4B1B88002B07D0284B1B881A00284B1100180003F0F2FE3B00180004F0ECFE03001A00214B1A8027
:4003C000204B1B88002B08D01E4B1B881A001F4B1100180003F0DEFE0FE03B001B8819003B005B881A003B009B881C003B00DB8817480093230003F0CDFE00F077F801F00B
:40040000E3FD02F097F9134B1B78022B13D102F0CFFA01F03BFEC04601F064FE031EFBD1002002F07FFB031E05D00B4B1B78012B01D100F0D3F904F0B9FEE4E7FC6601002F
:400440002103000084220020246701004467010074670100AC220020FE10002080B582B000AF786039607B68D5225200934208D0AC22FF3293420CD0AA22FF32934210D0A0
:400480001CE0144B01221A70134B180003F0FEFE1BE0104B00221A70104B180003F0F6FE13E00F4B00221A800D4B1B88180000F04BF80C4B180003F0E9FE06E07A680A4BBE
:4004C0001100180003F066FEC046C046BD4602B080BDC046FE10002094670100C8670100FC100020FC6701001468010080B582B000AF134B180000F0BBFD124B00221A70D4
:40050000104B00225A800F4B00229A80BB1D00221A800CE0BB1D1B880A4A5B00D318063300221A80BB1D1A88BB1D01321A80BB1D1B88082BEED9C046BD4602B080BDC046B2
:400540005D0400008C22002080B582B000AF0200BB1D1A80074BBA1D12889A80054B1B7808221343DAB2034B1A70C046BD4602B080BDC0468C22002080B582B000AF02003A
:40058000BB1D1A80154B1B7810221343DAB2134B1A70134B1B78082B03D1114B00221A7005E00F4B1B780133DAB20D4B1A700D4B1B78092B05D80B4B1B780133DAB2094B6D
:4005C0001A70074B1B78054A5B00D3180633BA1D12881A80C046BD4602B080BD8C220020882200208922002090B587B000AF744B1B7801229343DAB23B001A70704B5B88F3
:40060000FF2B13D93B001B7801221343DAB23B001A706B4B5A883B0001331100180000F093FF1723FB1803221A7008E0644B5B88DAB23B005A701723FB1802221A70604BAD
:400640001B781A000823134018D05D4B1B7808229343DAB25A4B1A701723FB181B783A00D218574B9B881900100000F06DFF1723FB181722BA18127802321A70504B1B7855
:400680001A001023134069D01723FB181B781422D31ADBB201229343D9B21523FB181722BA1812788A181A701623FB18454A12781A7048E01623FB181A781623FB180132CD
:4006C0001A701623FB181B78082B03D91623FB1800221A701623FB181B78394A5B00D31806331B88002B1FD01723FB181B783A00D0181623FB181B78314A5B00D318063311
:400700001B88190000F020FF1623FB181B782C4A5B00D318063300221A801723FB181722BA18127802321A70264B1B781622BA1812789A4207D1224B1B7810229343DAB2DE
:400740001F4B1A7007E01723FA181523FB1812781B789A42AED31C4B00221A703C001723FB181978194B1A785B781B02134300201B041B0C020C12041343180023000A00FF
:40078000002100F083FC03001A00114B1A80104B1B88002B08D00E4B1B881A000D4B1100180003F0F7FC07E0054B5B881A000A4B1100180003F0EEFCC046BD4607B090BD7C
:4007C0008C2200208822002089220020B4220020842200208C680100B468010090B583B000AF304B1B880C339AB22E4B1A802D4B1A8896235B009A4202D92A4B3C221A8093
:40080000284B1A88284B5A80264B1B88BC1D1900264803F0FDFA03002380BB1D1B881900FA23980003F07EFB03001A007B1D1A7012E01F4B1B78082B04D8BB1D1B881800CD
:40084000FFF79AFEBB1D1A88BB1D01321A807B1D1A787B1D013A1A707B1D1B78002BE8D1144B1B685A1E134B1A60124B1B68002B12D1104B0A221A600F4B1B881800FFF709
:4008800063FE0D4B1B880D4A934205D80A4B1B8814339AB2084B1A80FFF7A6FEC046BD4603B090BDAC0B00208C22002060EA000089220020B00B0020FC100020EAFF00000E
:4008C00080B584B000AF002000F08EFD03001A001D4B1A801C4B1B88002B08D01A4B1B881A001A4B1100180003F054FC28E0184B180003F04FFC3B1D180004F045FC0E238F
:40090000FB1806221A8012E00E23FB181B88013B3A1DD35C1A000F4B1100180003F03AFC0E23FB181A880E23FB18013A1A800E23FB181B88002BE7D1074B180003F0A6FCB9
:40094000C046BD4604B080BD84220020F86801001C6901003C6901004469010080B584B000AF786039607B68432B00D164E002D8262B05D06BE04C2B31D0542B61D066E0D4
:40098000354B1B781A00354B1100180003F002FC314B1B78042B59D1314B180003F076FC012001F0B1F9002001F0D6F9C04601F007F901002B4B1A6880231B02134001D09F
:4009C000012300E00023CB18002BF0D101F084F901F04CFA01F0E8F902F0E4FD36E03B689B891A00204B1100180003F0D3FB0E23FB1800221A8013E03B685A680E23FB18CF
:400A00001B88D3181B781A00184B1100180003F0C1FB0E23FB181A880E23FB1801321A803B681B890E22BA1812889A42E4D3104B180003F02BFC0AE00E4B180003F026FCD6
:400A400005E00D4B180003F021FC00E0C046C046BD4604B080BDC046AC2200204869010080690100080224408C690100A869010044690100B0690100CC69010080B586B0C2
:400A800000AFF860B9607A6000237B6109E0BB685A1CBA601B78180001F07CF87B6901337B617A697B689A42F1DB7B681800BD4606B080BD90B585B002AF786039607B68BF
:400AC000252B00D16BE019D8052B3DD00AD8022B3FD002D8012B32D01DE1032B42D0042B45D018E1222B4CD002D8212B44D012E1232B4BD0242B00D197E00CE1402B00D1FC
:400B0000ADE00ED8282B00D186E003D8272B00D174E000E1292B00D198E02A2B00D176E0F9E0422B00D1ECE000D2DFE0702B00D1ECE0E0221202934200D1F3E0EBE07C4B9F
:400B4000180003F0A3FBEEE07A4B180003F09EFBE9E03B681B781A00774B1100180003F019FBE0E0754B180003F090FBDBE0744B180003F08BFBD6E0724B180003F086FB6A
:400B8000D1E0714B180003F081FBCCE03B685B681A006E4B1100180003F0FCFAC3E06C4B180003F0F7FA3B681B78062B0DD002DC042B05D018E0082B0CD0152B0FD013E0B5
:400BC000644B180003F062FB17E0634B180003F05DFB12E0614B180003F058FB0DE0604B180003F053FB08E03B681B781A005D4B1100180003F0CEFAC04694E05A4B1B7873
:400C00001A005A4B1100180003F0C4FA8BE0584B180003F03BFB86E03B681B781A00554B1100180003F0B6FA7DE03B681B7819003B685B781A003B689B781C003B68DB78A6
:400C40004D480093230003F0A5FA6CE03B681B781A004A4B1100180003F09CFA63E0484B180003F097FA3B689B78082B08D0102B0BD0042B0ED1434B180003F08BFA12E04D
:400C8000414B180003F086FA0DE0404B180003F081FA08E03B689B781A003D4B1100180003F078FAC0463B689B881A00394B1100180003F06FFA384B180003F06BFA3B68CC
:400CC0009B790A2B04D1354B180003F063FA08E03B689B791A002E4B1100180003F05AFAC0462F4B180003F0D1FA1CE03B685B7819003B681B781A002A4B180003F04AFA57
:400D000011E0294B180003F0C1FA0CE0274B180003F0BCFA07E03A687B6811001800FFF71DFE00E0C046C046BD4603B090BDC046EC690100FC690100146A0100286A010000
:400D4000406A0100546A0100686A0100886A0100B06A0100D06A0100EC6A0100106B0100246B01003C6B0100B4220020486B0100686B0100906B0100BC6B0100086C0100CB
:400D8000286C0100486C0100586C01006C6C0100806C0100846C0100986C0100A46C0100B86C0100BC6C0100EC6C0100086D010080B582B000AF786039603A687B6800210D
:400DC000180003F0DFF9C046BD4602B080BDC04680B586B000AF7860396000233B6100237B612FE07B699B007A68D3181B68BB600F23FB18BA681A70BB68FF229343BB60AA
:400E000018E03B695B003A68D3181B781A00BB68D31819003B695B003A68D3185B780B703B6901333B610F23FB181A780F23FB18013A1A700F23FB181B78002BE1D17B6992
:400E400001337B617B69032BCCD9C046BD4606B080BDC04680B500AF074B03221A60074B03221A60064B00221A60012000F00AF8C046BD4680BDC046300030403000314056
:400E8000000E3F4080B584B000AF0200FB1D1A70154B1B68FB60FB1D1B78002B05D0FB68802212061343FB6003E0FB685B005B08FB600D4BFA681A600C4B1B68FB60FB1D52
:400EC0001B78002B05D0FB68802292041343FB6003E0FB68064A1340FB60044BFA681A60C046BD4604B080BD80033A4008010B40FFFFFFFD80B500AF03F000F903001B6809
:400F00000C2B00D1FEE7FEE780B584B000AF7860104B1A687B68D3181A000F4BD21A8023DB009A4209DC0B4B1B68FB60094B1A687B68D218074B1A6007E003F0DFF803004E
:400F40000C221A6001235B42FB60FB681800BD4604B080BDB40B00202023002080B586B000AF224B7B61224B3B61204B7B6135E03B691B68FB603B695B68BB603B699B6889
:400F80003B6000237B600CE0FB681A68BB681A60BB680433BB60FB680433FB607B6804337B607A683B689A42EED13B69DB683B6000237B6008E0BB6800221A60BB6804332A
:400FC000BB607B6804337B607A683B689A42F2D13B6910333B617B69013B7B617B69002BC6D103F091F8FFF7BFF9FEE7010000002074010080B582B000AF154B144A1268A5
:4010000001218A431A6000237B600FE07B68032B04D8104B7A689200D35800E00E4B0F4A796889008B507B6801337B607B682F2BECD9FFF77FF80A4B00221A60044B044AAD
:40104000126801210A431A60C046BD4602B080BD0000104000000000F50E000000000020C000002080B500AFC046BD4680BDC04680B582B000AF7860034B7A681A60C046F4
:40108000BD4602B080BDC0460011002090B589B000AF0C243C192080080011007B600B23FB18021C1A700A23FB180A1C1A702D4B1B78022B05D01E23FB180422FF321A8096
:4010C00049E00B23FB181B78022B04D91E23FB1801221A803FE00F23002B14D00F235A1E214913009B009B189B00CB1810331B685B68180000F014FA03001A000123134052
:401100009BB2002B05D11E23FB18802252001A8021E00B23FB181B78144A5B00D31802331A881023FB181A811023FB187A681A600A23FB181B789AB21023FB189A801E23EC
:40114000FC181023FA180C23FB18110018680FF0B7FC030023801E23FB181B881800BD4609B090BDAC220020906D0100686D010090B587B000AF786000237B611323FB18C6
:4011800000221A700823FB187A6812881A800823FB1800225A607B689B890F2293421FD10823FB1800229A707B685B68180000F0B7F903001A00012313409BB2002B03D071
:4011C000D5235B007B6102E0AC23FF337B61294B1B78DBB201229343DAB2264B1A701DE07B689B891322934218D10823FB1802229A707B685B681B78012B03D1AA23FF3352
:401200007B6103E01323FB1880221A70194B1B78DBB201229343DAB2164B1A707B69002B21D07B68181D7A681323FC184023002110F09AFE030023701323FB181B78002B89
:4012400011D10D4B1B68002B07D00B4B1B680822B9187A691000984705E0084B1B687A6811004C2098471323FB181B781800BD4607B090BDB722002000110020A422002005
:4012800080B500AF064B00221A70064B00221A70054B00221A7000F009F8C046BD4680BDB7220020B0220020B622002080B500AF00F030FCFFF7D6FEC046BD4680BDC04624
:4012C000B0B594B004AF78603E23FB1800221A802823FA183D4B1000190014231A0002F048FF3B4B1B78002B04D1FFF7C9FF384B01221A707B68002B5CD0364B7A681A60D4
:401300003E23FB181B88002B29D11023FB181C22BA185A601023FB182022BA181A601023FB1800221A812023FB181B221A802023FB181B225A802023FB1804221A711C23AA
:40134000FB1808221A703E23FC180E23FA181023FB181100180004F005F8030023803E23FB181B88002B29D13E23FC182823FD18AE231A01184919480023029300230193BA
:40138000052300932B0003F043FF030023803E23FB181B88002B11D1114B01221A703E23FC18104B11222621180010F0C5FD0300238003E03E23FB1801221A803E23FB18ED
:4013C0001B881800BD4610B0B0BDC046746D010004110020A4220020C800002079170000AC220020906D010090B585B000AF0200FB1D1A70FB1D1B78022B04D90E23FB18D5
:4014000001221A804AE0294B1B78042B41D1284B1B78DBB21A00042313403AD1FB1D1B78002B0BD1234B1E221A82224B5B6820221A80204B5B6830225A8010E0FB1D1B784E
:40144000012B0CD11B4B96221A821A4B5B68C822D2001A80174B5B68FA2212015A80164BFA1D12781A700E23FC18124B18000EF095F9030023800E23FB181B88002B0DD195
:401480000B4B1B78DBB204221343DAB2084B1A7004E00E23FB180422FF321A800E23FB181B881800BD4605B090BDC046AC220020B7220020080C0020B622002080B584B032
:4014C00000AF78600A00FB1C1A700023BB60BB68002B20D07B689A79BB681A700F23FB1800221A7012E00F23FB181B780133BA68D3180F22BA18127879688A5C1A700F238F
:40150000FB181A780F23FB1801321A700F23FB181B78052BE7D9C046BD4604B080BDC04680B582B000AF78607B681B789AB27B6801331B789BB21B029BB213439BB2180070
:40154000BD4602B080BDC04680B582B000AF78600A00BB1C1A80BB1C1B88DAB27B681A707B680133BA1C1288120A92B2D2B21A70C046BD4602B080BD90B585B000AF7860A9
:401580000F23FB1800221A707B689B890B22934232D17B68181D7A680F23FC184023002110F0E2FC030023700F23FB181B78002B1AD17B685B681800FFF7B2FF03001A0086
:4015C000022313409BB2002B07D00F4B1B687968822252001000984706E00B4B1B6879680622FF3210009847084B1B78DBB201229343DAB2054B1A700F23FB181B781800D7
:40160000BD4605B090BDC046A4220020B722002090B585B000AF78600F23FC187B681800FFF7AAFF030023701F4B1B78DBB21A00012313400CD00F23FB181B78002B07D177
:401640000F23FC187B681800FFF792FD03002370154B1B78DBB21A00012313401FD10F23FB181B78002B16D00823FB1812229A707B689A890823FB181A800823FB180F225B
:40168000BA181278DA700823FA187B68110018680FF0D8F903E07B6818680FF05DFAC046BD4605B090BDC046B722002080B582B000AF7860C046BD4602B080BD80B500AF93
:4016C000044B00225A70034B00221A70C046BD4680BDC046B422002080B582B000AF7860C046BD4602B080BD80B500AFC046BD4680BDC04680B584B000AF78600E23FB1829
:4017000000221A707B689B79002B1CD10F23FB1800221A7012E00F23FB181B787A68D35C002B04D00E23FB1801221A700BE00F23FB181A780F23FB1801321A700F23FB1829
:401740001B78052BE7D90E23FB181B781800BD4604B080BD80B582B000AF0200BB1D1A80C046BD4602B080BD80B582B000AF7860C046BD4602B080BD80B588B000AF02007D
:401780003960FB1D1A70D34B1B78DBB201221343DAB2D04B1A70FB1D1B78712B00D977E19A00CD4BD3181B689F461023FB1807221A701023FB1800225A701023FB18180000
:4017C00005F0E0FC1023FB1807221A701023FB1801225A701023FB18180005F0D3FC0023002B01D003F0C8FCBC4B1B681800FFF781FF031E11D0B94B1B68180003F0DAFC72
:40180000B64B1B6800211800FFF758FEB34B1B6801211800FFF752FE36E0B14B1B781A003F231A40AF4B1B789901FC231B010B401A43AD4B1B781903F8235B020B401A4352
:40184000AA4B1B785904FE231B040B401343BB61BB69DAB2A64B1A70BB691B0ADAB2A44B5A70BB691B0CDAB2A14B9A70A04B180003F0A0FC9E4B00211800FFF71FFE9C4B52
:4018800001211800FFF71AFE03200DF02BFE0C23FB183F221A700C23FB1800225A700C23FB1818000DF03CFE924B04221A70F6E03B681800FFF710FFF1E03B681A788E4BA9
:4018C0001A70ECE03B687B617B691B78002B00D0E0E07B695B78002B0BD1884B0022DA80864B00229A80854B854A1A607B69834A5A60784B1B78DBB201229343DAB2754B1B
:401900001A70C7E0734B1B78DBB21A002023134000D0C1E07B4B1B78102B02D1794B0522DA70794B1B78774A110018000DF0F8FE03001A000A23FB181A800A23FB181B88CD
:40194000002B06D0714B1B680A22BA18110036209847604B1B78DBB201221343DAB25D4B1A7099E03B681800FFF7FEFE97E03B681800FFF7F9FE5F4B02221A708FE05D4B2D
:4019800004221A708BE05B4B1B78022B00D185E0504B1B78DBB21A000123134000D17DE04C4B1B78DBB21A00042313400BD0514B03221A70474B1B78DBB204229343DAB24B
:4019C000444B1A706AE0434B1B78DBB21A00082313400BD0474B04221A703E4B1B78DBB208229343DAB23B4B1A7057E0414B1B78032B53D13F4B04221A70454B1B78002BAC
:401A00004CD10120FFF7F0FC031E47D1394B03221A7043E03B681B881800FFF79BFE3EE0394A3B681000190002231A0002F0A1FB314B00221A70FFF757FE30E0FFF73EFE1B
:401A40002DE03B685B88162B05D81E23FB183A6852881A8003E01E23FB1817221A801E23FB1819883B681A8800231204120C1B0C1B04134318000EF0EFFF10E03B68180065
:401A8000FFF7C6FD0BE03B681800FFF70FFE06E0C04604E0C04602E0C04600E0C0460D4B1B78DBB21A00112313400ED0094B1B78DBB201229343DAB2064B1A70134B1B6874
:401AC000FA1D1278396810009847C046BD4608B080BDC046B722002094700100240C00207CF2FF0F7DF2FF0F7BF2FF0F78F2FF0F1C0C0020AC220020B02200200811002016
:401B0000A80B0020F00C0020B4220020A4220020B622002080B500AFC046BD4680BDC04680B500AF00F05CF8C046BD4680BDC04680B500AF064B064A1268802109060A4342
:401B40001A6000F019F800F01DF8C046BD4680BD0000244080B500AF064B1B78002B04D1FFF7DEFF034B01221A70FFF7E1FFC046BD4680BD1011002080B500AFC046BD465B
:401B800080BDC04680B500AF00F08CF8C046BD4680BDC04680B582B000AF7860C046064B1B681F221340082BF9D0044B7A681A60C046BD4602B080BD08022440400224402F
:401BC00080B582B000AF054B1B681F2213407B607B681800BD4602B080BDC0460802244080B500AF1B4B1C4A1A601C4B00221A601B4B1C4A1A601C4B1C4A1A601C4B0722E2
:401C00001A601C4B00221A601B4B01221A601B4B164A1A601A4B00221A601A4B04221A60194B00221A60194B00221A60184B00221A60184B00221A60174B00221A60174B80
:401C400000221A60154B1B689AB2154B1A80C046BD4680BD000024400F000002400024404800244001000A00000324400700008004032440100324404400244000022440AB
:401C80000402244050002440880E2440C80E2440480F2440080F2440C80F2440880F24401211002080B500AF074B074A126807490A40902109040A431A60054B054A1288CA
:401CC0001A60C046BD4680BD00010240FFFF0FFF880F24401211002080B582B000AF094B1B68DAB2FB1D7F218A431A70054BFA1D12781A60FB1D1B78DB09DBB21800BD466D
:401D000002B080BD1002044080B584B000AF0200FB1D1A700F4B1B68DAB20F23FB1840218A431A70FB1D1B789B01DBB240221340D9B20F23FB180F22BA1812780A431A707F
:401D4000044B0F22BA1812781A60C046BD4604B080BDC0460003044080B584B000AF0200FB1D1A700F4B1B68DAB20F23FB1840218A431A70FB1D1B789B01DBB2402213401B
:401D8000D9B20F23FB180F22BA1812780A431A70044B0F22BA1812781A60C046BD4604B080BDC0460002044080B500AF00F054F8054B180000F010F8032000F01BF800F0BD
:401DC00041F8C046BD4680BDCD1D000080B500AFC046BD4680BDC04680B582B000AF7860034B7A689A64C046BD4602B080BDC0460000002090B585B000AF0200FB1D1A7043
:401E00001623FB600B23FC1801F08BFC030023700A4B0A4A12680A491140FA1D1078FA68904002000A431A600B23FB181B78180001F07BFCC046BD4605B090BD00E400E03A
:401E4000FFFF3FFF80B500AF024B04221A60C046BD4680BD00E100E080B500AF024B04221A60C046BD4680BD80E100E080B500AF024B04221A60C046BD4680BD80E200E09D
:401E800080B582B000AF00237B6007E07B680021180000F0E3FB7B6801337B607B68002BF4D000F009F8002000F03EFB00F036F9C046BD4602B080BD80B582B000AF244BA3
:401EC0001B68DAB2234B1A70224B1B787B607B680F2293437B60204B1B78DBB21A000F2313407A6813437B607B68F02293437B60194B1B78DBB21A00F02313407A6813431C
:401F00007B60134B7A681A60144B154A1A60154B154A1A60154B1B687B607B680F2293437B607B68062213437B60104B7A681A60102001F06DFA0E4B1900102001F0D8F939
:401F40000321102001F0FAF9C046BD4602B080BD00FF2840B822002062F2FF0F0800284000020001040028400008A00100040240A52B000080B582B000AF01F047F800F09A
:401F8000F7FF0021002001F005F80021002001F04FF8FF2000F0D4FF402001F01FF8084B1B687B607B68074A13437B60044B7A681A60102001F016FAC046BD4602B080BD4F
:401FC000040028400010088080B500AF0C4B1B78002B04D1FFF754FF094B01221A70FFF7C9FF00F04BFE074B01221A70064B064A12688021C9030A431A60C046BD4680BD3A
:402000001A110020141100200400284080B584B000AF0200FB1D1A70FB1D1A78FB1D01321A70FB1D1B78012B0CD0FB1D1A78094B1100180000F092FA0300FB60FB68002B27
:40204000EAD000E0C046FB1D1B781800BD4604B080BDC046F80C002080B582B000AF7860084B00221A707B68DAB2074B1A70054B81221A707B68180000F03AF9C046BD4603
:4020800002B080BD151100201611002080B500AF124B00221A70124BFF221A70104B1B78DBB21800FFF7B2FF03001A000C4B1A700B4B1B78DBB2002B0DD1084B1B78DBB285
:4020C00001221343DAB2054B1A70054B1B78DBB2180000F00DF9C046BD4680BD151100201611002080B500AF044B1B78DBB21A00012313401800BD4680BDC0461511002028
:4021000080B582B000AF7860034B7A685200D35A1800BD4602B080BD1811002080B582B000AF00237B6006E07B68180000F062F87B6801337B607B68002BF5D0C046BD46A2
:4021400002B080BD90B587B000AF786002237B6101231322BA18191C0B1CDB185B18137001221223FB1892001A701123FC1801F0D8FA030023701D4B7A699200D3581B6849
:40218000FB601223FB181B780F229A401300DA43FB681340FB601223FB181B7804229A401300FA681343FB60114B7A699200D3580F4A796989008A5812681321791809783A
:4021C000072088400100C9430A401A60074B7A699200D358FA681A601123FB181B78180001F0A3FAC046BD4607B090BD6C7201008872010090B589B000AF786002237B61E4
:4022000001221323FB1892001A7001231222BA18191C0B1CDB185B1813700023FB61304A7B68D3181B78BB612E4B7A699200D3582C4A796989008A58126813217918097895
:402240000F2088400100C9430A401A60BB69022B01D10023BB61BB69012B01D00623FB611123FC1801F05DFA030023701E4B7A699200D3581B68FB601223FB181B7807227D
:402280009A401300DA43FB681340FB601223FB181B78FA699A401300FA681343FB60124B7A699200D358FA681A601123FB181B78180001F03AFA0D4B7A699200D3580B4A88
:4022C000796989008A5812680121080001218140C9430A401A60C046BD4609B090BDC046D02200206C72010088720100A472010090B589B000AF78601B23FB1800221A7020
:402300001B23FB181A784B4B9200D358FB617A68494B1100180000F021F903007B61FB69464A934209D8FA697B699A401300FB61FB69FF2212041343FB6100F067FE00F0B7
:4023400017FE3F4A7B68D3181B789BB2013B9BB20021180000F01EFE3A4A7B68D3181B789BB2013B9BB20021180000F061FEFF2000F0E6FD402000F031FE102001F048F82E
:40238000314B802252021A60C0462F4B1B681B0C1B04FAD12D4B01221A60102001F04EF8102001F01FF8102001F032F8284B1B683B613B69274A13403B61274A7B68D31849
:4023C0001B781900254A7B68D3181B781B040B433A6913433B611E4B3A691A60204B1B683B613B691F4A13403B613B691E4A13433B61102000F0F6FF7B681800FFF7A2FEAF
:402400000F23FC1801F08DF903002370144B3A691A60002001F07CF90B4BFA691A600F23FB181B78180001F080F9C046BD4609B090BDC046000D0020BC220020FFFFFEFF7F
:40244000D4220020C42200200C002840140028400800284000FF80FFC8220020CC22002004002840FF1FDFFF2000200080B586B000AF7860234B1B6899B2234B7A685200D2
:40248000D15200237B61214B7A699200D358204A934214D87A681F4B1100180000F05EF803003B61184B7A685200D35A1A003B691A41130099B2144B7A685200D1527B6895
:4024C0001800FFF797FE102000F0A2FF124B1B68FB60FB68114A1340FB60FB68A02212021343FB600C4BFA681A600D4B0C4A12680C490A401A60102000F074FFC046BD46D7
:4025000006B080BD0C00284018110020000D0020FFFFFEFFBC22002004002840FF1FDFFF0800284000FF80FF80B584B000AF78607B68032213407B60074B1B68FB607B6836
:402540005B02FA681343FB60034BFA681A60C046BD4604B080BDC0460400284080B584B000AF786039603B68DB08FB603B680722134001229A400B23FB181A707A68FB68BF
:40258000D3181B780B22BA1812781340DBB2002B01D0012300E000231800BD4604B080BD80B586B000AFF860B9607A60BB68DB087B61BB680722134001229A401323FB18D9
:4025C0001A707B68002B0DD0FA687B69D318F9687A698A1811781322BA1812780A43D2B21A700EE0FA687B69D318F9687A698A181278132179180978C943C9B20A40D2B2B0
:402600001A70C046BD4606B080BDC04680B584B000AF78600023BB600023FB6015E07B681800FFF719FDC046FFF75CFD0300012BFAD07B681800FFF763FD03001A00BB6887
:402640009B18BB60FB680133FB60FB68002BE6D0BB689BB21800BD4604B080BD80B582B000AF786039603B68D9B2044A7B68D3180A1C1A70C046BD4602B080BDD02200204F
:4026800080B584B000AF78600F23FB1816497A688A1812781A70154B7A685200D15A144B7A685200D152134A7B68D31800221A70114A7B68D31800221A700F23FB181B78F5
:4026C0000F22BA1812780D49895C0D4AD154074B7A685200D15A0B4B7A685200D152C046BD4604B080BDC04668720100181100201C1100202011002024110020080D0020EC
:402700002C110020E422002080B582B000AF78607B681800FFF7A0FCC046FFF7E3FC031EFBD17B681800FFF7ABFFC046BD4602B080BDC04680B582B000AF00237B6006E040
:402740007B681800FFF7E0FF7B6801337B607B68002BF5D0C046BD4602B080BD90B587B000AF78600F23FB187D497A688A1812781A700F23FB181A780E23FB1879498A5C63
:402780001A701023FB18784A796849008A5A1A80764B1B78002B15D0754B7A685200D25A1023FC181023FB181B881100180000F0DBF9030023806E4B7A68520010217918E9
:4027C0000988D1527B68D9B2674A6A4B180001F06FF8694B7A685200D35A1022BA1812889A4212D3654A7B68D31800221A70624B7A685200D25A1223FB181021791809889C
:402800008A1A1A8001237B610CE05B4B7A685200D15A1223FB181022BA1812888A1A1A8000237B617B69002B2AD10F23FB181B78534AD35C9BB21222BA1812889A421FD9D7
:402840004E4A7B68D3181A784E497B68CB181B789A4209D37B681800FFF712FF474A7B68D31800221A7051E0444A7B68D3181B780133D9B2414A7B68D3180A1C1A7045E09E
:402880000E23FB181B789BB21222BA1812889A420DD90F23FB181B78394AD35C9BB21222BA1812889A4231D27B69002B2ED1324B7A685200D35A1B02BB60334A7B68D318CD
:4028C0001B781A00BB681343BB601023FB181B88BA68D318BB60284B7A685200D35A1A00BB689B1ABB60BB681B0A99B2224B7A685200D152BB68D9B2234A7B68D3180A1C3F
:402900001A701E4A7B68D31800221A700E23FB181B789BB21222BA1812889A4217D97B69002B14D01223FB181B88FF2B05D9174A7B68D318FF221A700EE01223FB181B8802
:40294000D9B2124A7B68D3180A1C1A7004E00F4A7B68D31800221A70C046BD4607B090BD68720100D822002018110020050D0020E4220020082300201C110020DC220020E2
:40298000E0220020040D0020201100202411002080B582B000AF78607B68180000F0E4F97B681800FFF7DAFEC046BD4602B080BD80B582B000AF00237B6011E07A680C4B69
:4029C00011001800FFF7CAFD03003B603B68002B03D07B681800FFF7DBFF7B6801337B607B68002BEAD0C046BD4602B080BDC046F80C002080B584B000AF78600F23FB18D6
:402A000041497A688A1812781A700F23FB181A780E23FB183D498A5C1A700F23FB181A780D23FB183A498A5C1A700F23FB181A780C23FB1837498A5C1A700B23FB180F22DB
:402A4000BA1812781A707A68334B11001800FFF785FD031E1CD0314A7B68D3181B7819000E23FB181A780D23FB181B78D31A99423BDA7968284B00221800FFF791FD0B23A4
:402A8000FB181B78264A0C2179180978D1542CE0224A7B68D3181B7819000E23FB181A780D23FB181B78D318994216DB0B23FB181B781B4AD25C013AD1B2194AD1540B236C
:402AC000FB181B78164AD35C002B0ED17968124B01221800FFF764FD07E00B23FB181B780F4A0C2179180978D1547A680A4B11001800FFF733FD031E01D0012300E00023B0
:402B00001800BD4604B080BD68720100EC220020E8220020080D002028110020241100202C11002080B586B000AF786000237B6101231A007B69D318FB6000233B617B691A
:402B40001800FFF757FF031E01D001233B617B6901337B617A69FB689A42F0D33B691800BD4606B080BDC04680B584B000AF0200BB1D1A803B1D0A1C1A80BB1D1A883B1D38
:402B80001B88D318FB603B1D1B885B00FA68D318FB60FB689B08FB60FB689BB21800BD4604B080BD80B500AF102000F031FC2D4B01221A602C4B1B78DBB21800FFF756FCD4
:402BC0002A4B1B78DBB25BB2002B08DA274B1B78DBB201229343DAB2244B1A703CE0224B1B78DBB21800FFF711FA03001A001E4B1A701D4B1B78DBB2002B06D11A4B1B78C2
:402C0000DBB21800FFF774FB26E0184B1B78DBB201229343DAB2154B1A70144B1B78DBB21A004023134017D0114B00221A700FE00F4B1B781A000E4B1B7819000D4B595C4C
:402C40000D4B99540A4B1B780133DAB2084B1A70074B1B78002BEBD0102000F0C3FBC046BD4680BD1400284016110020151100202E110020C0220020F80C002080B582B0A6
:402C800000AF314B01221A702F4B01225A702E4B01229A702C4B3022DA802B4B2B4A9A80294B2B4A9A6000F0D9F800233B6007E0284B3A6892002849D1503B6801333B6013
:402CC000214B5B781A003B689A42F1D800237B600CE0224A7B68D31810221A70204A7B68D31804221A707B6801337B607B68002BEFD000F0C1F81B4A134B1100180000F027
:402D000037FD114B180000F044FD164A0E4B1100180000F02DFD0C4B180000F05BFD0A4B180000F0C3F800237B6006E07B68180000F01AF87B6801337B607B68002BF5D049
:402D4000C046BD4602B080BD0823002098090000D8720100000D00200000FF0FC4220020D42200209A0D000090B587B002AF7860344A7B68D3181B78FB607B68D9B2FB6816
:402D8000DAB2314C3148324B0093230000F00EFE0B23FB182C49FA688A1812781A702C4AFB68D31819782B4AFB68D3180A1C1A700B23FB181B78DB2B0AD80B23FB181B783C
:402DC000DB08D9B2244AFB68D3180A1C1A7034E00B23FB181B78EC2B0AD80B23FB181B781B09D9B21C4AFB68D3180A1C1A7024E00B23FB181B78F42B0AD80B23FB181B7884
:402E00005B09D9B2144AFB68D3180A1C1A7014E00B23FB181B78F92B0AD80B23FB181B789B09D9B20C4AFB68D3180A1C1A7004E0094AFB68D31800221A70C046BD4605B033
:402E400090BDC04668720100EC22002008230020D8220020E0220020E822002080B500AF044B044A126840218A431A60C046BD4680BDC0460400284080B582B000AF094B80
:402E80001B687B607B68084A13407B607B688022920013437B60034B7A681A60C046BD4602B080BD08002840FFFCFFFC80B584B000AF78600023FB6019E01C4AFB68D318E6
:402EC0001B785B08D9B21A4AFB68D3180A1C1A70164AFB68D3181B7801335B08D9B2134AFB68D3180A1C1A70FB680133FB607B681B781A00FB689A42DFD8102000F088FA17
:402F00000C4B1B68BB60BB680B4A1340BB60BB680A4A1343BB60074BBA681A60102000F061FAC046BD4604B080BDC046C8220020CC22002008002840FFFCFFFC00020001E4
:402F400080B582B000AF7860C046074B1B68002BFBDB054B7A68120204490A431A60C046BD4602B080BDC046000001404000008080B500AFC046054B1B68002BFBDB034B22
:402F8000034A1A60C046BD4680BDC046000001404000004080B584B000AF0200BB1D1A807B1D0A1C1A700C4B1B6807221340FB60BB1D1B881A02FB681A437B1D1B78DB005B
:402FC000FF210B401343BB60034BBA681A60C046BD4604B080BDC0460003014080B582B000AF7860C046074B1B68002BFBDB054B7A68120204490A431A60C046BD4602B0E8
:4030000080BDC046000001404100008080B500AFC046054B1B68002BFBDB034B034A1A60C046BD4680BDC046000001404100004080B584B000AF0200BB1D1A807B1D0A1C20
:403040001A700C4B1B6807221340FB60BB1D1B881A02FB681A437B1D1B78DB00FF210B401343BB60034BBA681A60C046BD4604B080BDC0460403014090B585B000AF7860A9
:403080000C23FC1800F04DFB030023707B68022B00D8AFE07B68302B00D9ABE05C4B1B78DBB21A007B689A420AD35A4A0F23FB1812781A70584A0E23FB1812781A703FE053
:4030C000564B1B78DBB21A007B689A420AD3544A0F23FB1812781A70524A0E23FB1812781A702DE0504B1B78DBB21A007B689A420AD34E4A0F23FB1812781A704C4A0E2338
:40310000FB1812781A701BE04A4B1B78DBB21A007B689A420AD3484A0F23FB1812781A70464A0E23FB1812781A7009E0444A0F23FB1812781A70434A0E23FB1812781A707A
:403140007B68DA1E0B23FB183F498A5C1A700B23FB181B782F2B0DD97B682A2B0AD93B4B19221A60052000F0D3FA0D23FB1819221A7007E0354B1B68DAB20D23FB183F21CE
:403180000A401A700B23FA180D23FB1812781B789A4208D22D4B7A68033A2B498A5C1A60052000F0B5FA2A4B7A6826498C4662441278D2B21A60274B0F22BA1812781A6077
:4031C000254B0E22BA1812781A60052000F07EF90B23FA180D23FB1812781B789A420CD91A4B7A68033A18498A5C1A60052000F08FFA02E0002000F037F90C23FB181B7892
:40320000180000F092FAC046BD4605B090BDC04640F3FF0F41F3FF0F42F3FF0F43F3FF0F44F3FF0F45F3FF0F46F3FF0F47F3FF0F48F3FF0F49F3FF0F4AF3FF0F4BF3FF0F9B
:403240004CF3FF0F4DF3FF0F347301002CFF0B4028FF0B401CFF0B4020FF0B4080B584B000AF78600023FB60154B154A126801210A431A60134B144A1A60144B134A126857
:40328000802109020A431A607B68002B12D01023FB600CE0012000F019F900F019F8031E02D00023FB6005E07B68013B7B607B68002BEFD1FB681800BD4604B080BDC0467A
:4032C00060F02E4078002E400220000010002E4080B582B000AF054B1B68012213407B607B681800BD4602B080BDC0460C002E4080B584B000AF02003960FB1D1A708023EB
:403300009B05FB60FB1D1B781F2B02D9002000F0ABF8FB1D1B7810339B00FA68D3181B68BB60FB1D1B7810339B00FA68D3183A681A60BB681800BD4604B080BD90B587B0FE
:4033400000AF0200FB1D1A70BB1D0A1C1A70BB1D1B78032B02D9002000F086F8FB1D1B781F2B02D9002000F07FF8FB1D1B7803221340DB0006337B611323FC1800F0D1F902
:4033800003002370FB1D1B789B08DBB29B00144A944663441B68FB6003227B699A401300DA43FB681340FB60BB1D1A787B699A401300FA681343FB60FB1D1B789B08DBB2F7
:4033C0009B00074A94466344FA681A601323FB181B78180000F0A9F9C046BD4607B090BD00E400E080B582B000AF0200FB1D1A70064BFA1D12781F210A40012191400A00FA
:403400001A60C046BD4602B080BDC04600E100E080B582B000AF0200FB1D1A70064BFA1D12781F210A40012191400A001A60C046BD4602B080BDC04680E100E080B582B000
:4034400000AF0200FB1D1A70064BFA1D12781F210A40012191400A001A60C046BD4602B080BDC04680E200E080B582B000AF0200FB1D1A7001BEC046BD4602B080BDC0464F
:4034800080B582B000AF786009E00D4B1B68180000F03EF97B680B4A944663447B607A6880231B029A42F0D8074B1B687A685343180000F02DF9C046BD4602B080BDC046C8
:4034C0001C0D00200080FFFF140D002080B582B000AF0200BB1D1A80BB1D1B88044A12785343180000F014F9C046BD4602B080BD180D002080B500AF164B164A126892004E
:4035000092081A60144B144A1268920092081A60124B124A1268920092081A60104B104A1268920092081A600E4B0E4A1268920092081A600C4B0C4A1268920092081A604E
:403540000A4B0A4A1268920092081A60C046BD4680BDC0460800044008010440080204400803044008040440080504400806044090B583B000AFFC1D00F0D3F8030023707C
:40358000074B074A126804218A431A6030BFFB1D1B78180000F0C9F8C046BD4603B090BD10ED00E090B583B000AFFC1D00F0B9F803002370FFF79EFF114B114A126880215D
:4035C00009060A431A600F4B0F4A128892B21A600E4B0E4A126804210A431A600C4B0C4A1268FF218A43F1210A431A6030BFFB1D1B78180000F099F8C046BD4603B090BDAA
:4036000000000B400C000B4050F2FF0F10ED00E02C000B4080B500AF0F4B0F4A126801218A431A600C4B0C4A126802218A431A600A4B0A4A126830218A4310210A431A6000
:40364000064B064A126807218A4301210A431A60C046BD4680BDC04600F02E4000FF2E4080B500AF0F4B0F4A126802218A431A600D4B0D4A126807218A4302210A431A60B7
:40368000094B094A126830218A4320210A431A60044B044A126801210A431A60C046BD4680BDC04600F02E4000FF2E4080B500AFFFF7B0FF044B044A1268802109060A430F
:4036C0001A60C046BD4680BD00F02E4080B584B000AF78600C4B1B6801221340FB607B68002B02D0012B03D005E0FFF793FF06E0FFF7B6FF03E00020FFF7B6FEC046FB681E
:403700001800BD4604B080BD00F02E40000000000230800803D00138FDD1C046C046C0467047EFF3108072B6704780F310887047F7B59C180023071C082680250191009212
:403740002370237800982B432370BB689B6C9847019B984202D22378AB432370013E6D08002EEED12378F82B01D9F8232370F7BD70B5051C0E1C00242B789C4208D2AB6876
:40378000221C281C311C1B68FFF7D2FF0134F3E770BD38B5051C00242B789C4219D2AA6813681B5DDB080F2B00D90F23D16BD268C95C1155AA68042B04D9936D906B211C92
:4037C000012203E0936D906B211C002298470134E2E738BDF0B5041C002687B063789E4262D2A3685A6C925D0392002A01D1013203921A6C925D019201992278914251D23B
:403800009A689B69515C0F221140B2000492002205910499019D5A50019B5B000293039B019A9B189D423DD2A768E388A0885843FB68595D00F076FB3B68595D00F0E8FA26
:40384000059B5843194B40005A2802D95B084008FAE7BA6904991B0C1B045350A36882085B6B01215855A368C008DB69029F5A550F22A36849421B6A5855A3685B6A5A55CE
:40388000A368986AC1530021D86AC153186B9B68C1535B19197801350A401A703B1C02330293BCE7013699E707B0F0BD0000FFFFF0B585684E002B6B925B9B191C8887B0F8
:4038C000141B0094AC6A1A80A45B6B6A0294EC6A5F5CA45B2B6A03946C6B7F00645C5B180494AC680193645C1B780594009CE40FA4460F24251C6744009C3D40AC46E5175B
:4039000064196C409C4203D2012B05D0013B00E00133FF273F2B00D89F00019D2B7065460F2D29D0002D24D0BC4225D8059C029F24090094974200D9171C039D954200D2ED
:40394000151C009A092A01D8141C01343A1C0A2C14D1EA1B934206D9049A92089A42924152429B1A00E001338268D26953543A1C04E0151C644601E0151C002467468368EE
:4039800024015B6A5F5483689F6ABA53DA6A9B6895530F225B181D782A401A7083689B6859180B781C430C7007B0F0BD70B58068446BC069655C405CFF213F2801D88100C9
:4039C000C9B246B2FF24002E01DB4000C4B28D4201D9291C6C08012081439954049B9C5470BD000080B582B000AF78600A00BB1C1A80BB1C1A887B681A60C046BD4602B087
:403A000080BDC04680B582B000AF78600A00BB1C1A80BB1C1A887B681A60C046BD4602B080BDC04680B584B000AF494B1B78DBB21B02484A1278D2B21343FB60464B1B78A8
:403A4000DBB21B02454A1278D2B21343BB60BB68434A934207D1FB68072B04D1414BBB600423FB6009E0BA68D4231B019A4204D1FB68042B01D13B4BBB603B4BBA681A60A8
:403A80003A4BFA681A603A4B1B78DBB21B02394A1278D2B21343FB60FA6880239B019A4202D0FB68002B01D1334BFB60334BFA681A60334B1B78DBB21B02324A1278D2B27A
:403AC0001343FB60FB68304A934206D0FB682F4A934202D0FB68052B01D12D4BFB602D4BFA681A602C4B1B681B097B602B4B1B68AA2B29D17B68012B26D9214B1B78DBB223
:403B00000E2B21D1264B1B78DBB29BB21B0299B2244B1B78DBB29AB2BB1C0A431A80224BBA1C12881A60214B1B78DBB29BB21B0299B21F4B1B78DBB29AB23B000A431A80EB
:403B40001C4B3A0012881A60C046BD4604B080BD59F1FF0F58F1FF0F5FF1FF0F5EF1FF0F580B0000580D00006C002E4074002E405BF1FF0F5AF1FF0F0220000078002E40ED
:403B80005DF1FF0F5CF1FF0F0F0F000005050000050F000080002E40EC0F00F0E00F00F06DF2FF0F6CF2FF0F84002E406FF2FF0F6EF2FF0F94002E4080B582B000AF020098
:403BC000BB1D1A80BB1D1B881800FFF77FFCC046BD4602B080BDC04680B582B000AF78607B681800FFF74CFCC046BD4602B080BD80B500AF00F0ECF8C046BD4680BDC0462E
:403C000080B500AF00F0F0F8C046BD4680BDC04680B500AF00F0E8F8044B180000F0A2F8032000F0ADF8C046BD4680BD013E000080B500AF034B180000F080F8C046BD46DF
:403C400080BDC046013E000080B500AF014B1800BD4680BD0202000080B582B000AF78602B231800BD4602B080BDC04680B582B000AF78602B231800BD4602B080BDC0469E
:403C800080B582B000AF78602B231800BD4602B080BDC04680B582B000AF78602B231800BD4602B080BDC04680B582B000AF78602B231800BD4602B080BDC04680B582B0B9
:403CC00000AF78602B231800BD4602B080BDC04680B582B000AF78602B231800BD4602B080BDC04680B582B000AF78602B231800BD4602B080BDC04680B500AF2B231800FD
:403D0000BD4680BD80B582B000AF0200FB1D1A702B231800BD4602B080BDC04680B582B000AF786039602B231800BD4602B080BD80B500AFC046BD4680BDC04680B582B0B5
:403D400000AF786000F050F87B68180000F00AF8032000F015F800F03BF8C046BD4602B080BDC04680B582B000AF7860034B7A681A67C046BD4602B080BDC0460000002099
:403D800090B585B000AF0200FB1D1A700623FB600B23FC18FFF7C5FC030023700B4B0B4A1268C0218A431100FA1D1078FA68904002000A431A600B23FB181B781800FFF7C3
:403DC000B4FCC046BD4605B090BDC0460CE400E080B500AF034B802252011A60C046BD4680BDC04600E100E080B500AF034B802252011A60C046BD4680BDC04680E100E056
:403E000080B500AF12F064FCC046BD4680BDC046002243088B4274D303098B425FD3030A8B4244D3030B8B4228D3030C8B420DD3FF22090212BA030C8B4202D31212090209
:403E400065D0030B8B4219D300E0090AC30B8B4201D3CB03C01A5241830B8B4201D38B03C01A5241430B8B4201D34B03C01A5241030B8B4201D30B03C01A5241C30A8B4211
:403E800001D3CB02C01A5241830A8B4201D38B02C01A5241430A8B4201D34B02C01A5241030A8B4201D30B02C01A5241CDD2C3098B4201D3CB01C01A524183098B4201D38A
:403EC0008B01C01A524143098B4201D34B01C01A524103098B4201D30B01C01A5241C3088B4201D3CB00C01A524183088B4201D38B00C01A524143088B4201D34B00C01A24
:403F00005241411A00D20146524110467047FFE701B5002000F0F0F802BDC0460029F7D076E7704703460B437FD4002243088B4274D303098B425FD3030A8B4244D3030B08
:403F40008B4228D3030C8B420DD3FF22090212BA030C8B4202D31212090265D0030B8B4219D300E0090AC30B8B4201D3CB03C01A5241830B8B4201D38B03C01A5241430BD4
:403F80008B4201D34B03C01A5241030B8B4201D30B03C01A5241C30A8B4201D3CB02C01A5241830A8B4201D38B02C01A5241430A8B4201D34B02C01A5241030A8B4201D355
:403FC0000B02C01A5241CDD2C3098B4201D3CB01C01A524183098B4201D38B01C01A524143098B4201D34B01C01A524103098B4201D30B01C01A5241C3088B4201D3CB00D9
:40400000C01A524183088B4201D38B00C01A524143088B4201D34B00C01A5241411A00D201465241104670475DE0CA0F00D04942031000D34042534000229C4603098B42EE
:404040002DD3030A8B4212D3FC22890112BA030A8B420CD3890192118B4208D3890192118B4204D389013AD0921100E08909C3098B4201D3CB01C01A524183098B4201D332
:404080008B01C01A524143098B4201D34B01C01A524103098B4201D30B01C01A5241C3088B4201D3CB00C01A524183088B4201D38B00C01A5241D9D243088B4201D34B0091
:4040C000C01A5241411A00D20146634652415B10104601D34042002B00D54942704763465B1000D3404201B5002000F005F802BD0029F8D016E770477047C046014B186831
:404100007047C046DC1000200E4B70B500251E000D4CE41AA410A54204D0AB00F35898470135F8E713F06AF9084B00251E00084CE41AA410A54204D0AB00F358984701357D
:40414000F8E770BD0874010008740100087401001074010030B50024A24208D0035D651C0C5DA34201D0181B02E02C00F4E7002030BD002310B59A4203D0CC5CC45401333E
:40418000F9E710BD03008218934202D019700133FAE770470FB40B4B13B51C68002C05D0A369002B02D1200000F03CFA05AB049AA1682000019300F001FC16BC08BC04B0C1
:4041C0001847C046DC10002070B505000E00002804D08369002B01D100F024FAAB69AC68002B02D1280000F01DFA254B9C4201D16C6808E0234B9C4201D1AC6803E0224B70
:404200009C4200D1EC68A3891B0702D52369002B11D12100280000F09BF800280BD0012040422BE0013B0136A360002B08DB23685A1C226019703178A3680029F2D10BE025
:40424000A269934201DB0A29F1D12200280000F027F8431CEFD1E2E7013BA360002B08DA22000A31280000F01BF8431CD7D00A2004E00A2023685A1C2260187070BDC046FC
:404280006873010088730100A873010010B5034B01001868FFF798FF10BDC046DC100020F8B505000F001400002804D08369002B01D100F0B7F9234B9C4201D16C6808E0D6
:4042C000214B9C4201D1AC6803E0204B9C4200D1EC68A369A360A3891B070AD52369002B07D023682269FEB2981A636998420FDB08E02100280000F02BF80028F1D001201D
:4043000040421DE02100280000F01EF90028F6D1A3680130013BA36023685A1C22601F706369984205D0A3893000DB0708D50A2E06D12100280000F007F90028DFD130004C
:40434000F8BDC0466873010088730100A8730100364B70B51D6806000C00002D05D0AB69002B02D1280000F05DF9314B9C4201D16C6808E02F4B9C4201D1AC6803E02E4B4D
:404380009C4200D1EC680C22A35E9AB2110723D4D10607D409220120326037321343A381404242E0530713D5616B002908D023004433994202D0300000F02CFA00236363D4
:4043C0002422A3899343A38100236360236923600822A3891343A3812369002B0BD1A0238022A1899B0092000B40934203D02100300000F0D1F90123A289134005D00023A5
:40440000A36063695B42A36103E0920700D46369A36000202369834207D10C22A35E1A0603D540221343A381013870BDDC1000206873010088730100A8730100F7B58A897C
:4044400005000C0013075AD44B68002B02DC0B6C002B19DDE76A002F16D000232E682B6080235B011A4001D0606D14E00123216A2800B847431C0ED12B68002B0BD01D2B05
:4044800001D0162B02D12E6000205AE04022A3891343A38155E0A3895B0706D56368C01A636B002B01D0236CC01A00230200216A2800E76AB847A389421C06D129681D2951
:4044C0003AD8204ACA40D20736D50022626022692260DB0405D5431C02D12B68002B00D16065616B2E600029CED023004433994202D0280000F08EF90020606321E00F69BF
:40450000002FC1D00B680F60DB1B01930023920700D14B69A36003E0019B3F181B1A0193019B002BB0DD019B3A00216A2800A66AB0470028F0DCA389402201201343A3816B
:404540004042FEBD010040200B6970B505000C00002B01D100201CE0002804D08369002B01D100F05FF80B4B9C4201D16C6808E0094B9C4201D1AC6803E0084B9C4200D1EF
:40458000EC680C22A35E002BE4D021002800FFF755FF70BD6873010088730100A873010010B5024900F0B0F810BDC04649450000002310B50400036043608360818143665C
:4045C000C281036143618361190008225C30FFF7D9FD054B24626362044BA362044BE362044B236310BDC046394F0000614F0000994F0000C54F000070B568254B1E5D43D7
:404600000E002900743100F051F9041E08D000212A00016046600C30A0606832FFF7B2FD200070BD836913B50400002B28D18364C3640365134B144A1B688262019398426D
:4046400001D101238361200000F020F86060200000F01CF8A060200000F018F80022E06004216068FFF7A4FF01220921A068FFF79FFF02221221E068FFF79AFF0123A3610D
:4046800013BDC04664730100A1450000F8B51D4B06001D68AB69002B02D12800FFF7C2FF4835AC686B68013B05D40C22A75E002F10D06834F7E72B68002B01D02D68F0E7A5
:4046C00004213000FFF798FF28600028F6D10C23336016E0012320005B42E3810233A38167662760A760676027616761A7615C3008223900FFF746FD20006763A763A7646A
:40470000E764F8BD64730100F7B504000700002601914834002C16D06368A5680093009B013B00930DD4AB89012B08D90E22AB5E013304D029003800019B984706436835AA
:40474000EDE72468E6E73000FEBD000070B50E001D000E23C95E90B01400002906DA00232B60B3891B060FD540230FE001AA00F055FC0028F3DBF023029A1B021340054A8B
:404780009B185A4253412B608023DB000020236010B070BD00E0FFFFF7B502268B8905000C00334210D101AB6A46FFF7CFFF00990700280000F07AF800280CD10C22A35ED2
:4047C0009A0523D43343A3812300473323602361012363611AE080220D4BAB62A38920601343A381009B20616361019B002B0AD00E23E15E280000F023FC002803D0012290
:40480000A3891343A381A3891F43A781F7BDC046A145000070B50500002944D00C1F2368002B00DAE418280000F03BFC1E4A13681100002B02D16360146031E0A3420DD90A
:404840002268A018834203D118685B688218226063600C6024E0A24203D813005A68002AF9D11E689819A0420BD12168711858181960824214D110685268411819605A60EC
:404880000EE0A04202D90C232B6009E021686018824203D1106852684118216062605C60280000F0FFFB70BD80220020032370B5CD1C9D43083506000C2D01D20C2501E011
:4048C000002D01DBA94202D90C23336048E0300000F0E7FB234B1C681A002100002913D00B685B1B0DD40B2B02D90B60CC181EE08C4202D1636813601AE04B6863600C0041
:4049000016E00C004968E9E7174C2368002B03D1300000F0FFFA20602900300000F0FAFA431C18D00323C41C9C43A0420DD12560300000F0B7FB200007220B30231D904357
:40494000C31A0ED05A42E2500BE0211A300000F0E1FA431CEBD10C233000336000F0A2FB002070BD802200207C220020936810B5013B9360002B05DA9469A34208DBCBB2EB
:404980000A2B05D01368581C10601970C8B201E0FFF786FC10BDF8B506000F001400D518AC4208D021783A003000FFF7DFFF0134431CF5D100E00020F8BD0000F0B59FB002
:4049C00006000F0002920593002804D08369002B01D1FFF727FE7F4B9F4201D1776808E07D4B9F4201D1B76803E07C4B9F4200D1F768BB891B070AD53B69002B07D00023CF
:404A000006AD6B6120336B761033AB763DE039003000FFF79DFC0028F1D001204042D6E0059A111D12680591002A00DA7FE00992013423782E2B00D18DE021780322684858
:404A400000F024FB002807D0654B2A68C01A4023834013432B6001342178631C062261480293297600F012FB002800D19DE05E4B002B00D090E00722059B07339343083318
:404A800005936B69039A9B186B61029C2378002B04D1029BE31A049312D003E0252BF8D00134F3E7049B029A39003000FFF773FF431C00D186E06A69049B944663446B61B7
:404AC0002378002B7ED00122002352426A6002A95432521801342B60EB60AB601370AB6521780522414800F0D1FA002808D03F4B2A68C01A0123834013432B600134EFE7ED
:404B00002B68DA0604D55322202102A8121811701A0704D553222B2102A81218117022782A2A00D17CE7099B00200A2105E05242EA60022213432B607AE72278303A092A9D
:404B400004D84B4301349B180120F6E7002800D16FE709936DE763782A2B0AD1059B02341A1D1B680592002B01DA01235B42079363E700230A201A0001346B602178303960
:404B8000092904D84243013452180123F6E7002B00D152E7079250E705AB00933A00144B2900300000E000BF07E005AB00933A000F4B2900300000F08BF80390039B0133FA
:404BC00000D05EE7BB895B0600D526E70B981FB0F0BDC0466873010088730100A8730100CE730100D273010000000000C873010097490000F7B5170001938A680B6900900F
:404C00000C00934200DA130022003B6043321278002A01D001333B6023689B0602D53B6802333B60062523681D401ED0230043331B785A1E9341226892061CD53020E118D5
:404C40004331087021005A1C45310978A2184332023311700FE022000123193201990098089EB047431C0ED00135E3683A689B1A9D42F0DBDAE72200019943320098089D98
:404C8000A847431C02D10120404220E006232068E1683A6803400025042B03D18D1AEB43DB171D40A3682269934201DD9B1AED180027BD420AD0220001231A32019900983E
:404CC000089EB047431CDED00137F2E70020FEBDF0B58BB006920A0043320793059004920A7E0C00109B6E2A00D1ABE011D8632A22D009D8002A00D1B5E0582A00D0C5E05F
:404D000045310A70814A4FE0642A1DD0692A1BD0BCE0732A00D1AAE009D86F2A29D0702A00D0B3E0202209680A43226037E0752A1FD0782A33D0A9E00E001A684236111D01
:404D4000196013683370A4E021681A68080606D4490604D5111D19600023D55E02E0111D19601568002D3BDA2D23049A6D42137036E021681A68080606D4490604D51568EA
:404D8000111D1960ADB202E0111D196015685F4B227E039308276F2A1DD00A271BE022007821453211705A4A19680392081D226818600D68100602D4500600D5ADB2D307CD
:404DC00002D520231A4322601027002D03D1202322689A4322602300002243331A7002E00A274A4B03936368A360002B09DB0422216891432160002D05D1049E002B11D041
:404E00007BE0002D79D0049E28003900FFF786F8039B013E5B5C280033703900FEF7F8FF051EF1D1082F09D12368DB0706D563682269934202DC3023013E3370049B9B1BD5
:404E400023612BE009681A68080607D4490605D5111D19601368A28A1A8004E0111D1960136862691A600023049E236116E01A68111D1960166800216268300000F006F97B
:404E8000002801D0801B6060636803E0260042363270012323610023049A1370079B09AA00932100069B0598FFF7A4FE431C02D10120404227E02369320006990598079D6B
:404EC000A847431CF4D0236800259B070FD4099BE068984217DA180015E022000123193206990598079EB047431CE1D00135E368099A9B1A9D42F0DBE9E72600039B42369F
:404F00001B7833708EE70BB0F0BDC046D9730100EA730100002370B5064C050008002360FBF7F2FF431C03D12368002B00D02B6070BDC0461823002070B50C000E25495FC2
:404F400000F0B2F8002803DB636D1B18636503E0A289024B1340A38170BDC046FFEFFFFFF8B51F008B8905000C001600DB0505D50E23C95E0022022300F074F8A289054B9E
:404F800028001340A38132000E23E15E3B0000F01FF8F8BDFFEFFFFF70B50C000E25495F00F060F8A389421C03D1054A1340A38104E0802252011343A381606570BDC0460A
:404FC000FFEFFFFF10B50E23C95E00F015F810BD70B50500080011000022064C22601A00FBF74CFD431C03D12368002B00D02B6070BDC04618230020002370B5064C0500DF
:405000000800236000F064F8431C03D12368002B00D02B6070BDC04618230020002370B5064C050008001100236000F059F8431C03D12368002B00D02B6070BD182300207F
:40504000002370B5064C05000800236000F050F8431C03D12368002B00D02B6070BDC0461823002070B50500080011000022064C22601A0000F044F8431C03D12368002B94
:4050800000D02B6070BDC04618230020C9B28218904204D003788B4202D00130F8E70020704770477047000070B50500080011000022064C22601A0000F02AF8431C03D145
:4050C0002368002B00D02B6070BDC0461823002058220120014B40421A6070471823002058220120014B40421A607047182300205822024B00201A607047C04618230020AE
:4051000058220120014B40421A6070471823002058220120014B40421A60704718230020134A1088810703D08107890F401A001D11791030484381B25088820703D0820759
:40514000920F801A001D800040180A494030098980B2CA0701D0503080B2890706D504495422091F09785143081880B2704700002A0D00203C11002010B501F023FF10BD47
:4051800010B501F025FF10BD10B501F029FF10BD0121002808D0FF218A31C1800321018006214180818000210846704710B500F05BFA10BD10B507490446097802200029A9
:4051C00007D1204601F054FF002802D120460AF08DFA10BDC80E002070B504460120002C12D02368002B0FD0616800290CD0074D06222889208118462968FEF7BAFF69684B
:40520000606809780170002070BD00003C110020FFB585B0002768460E9D07734F481C460078002802D0082009B0F0BD10990F9801900095029105A807C800F007F9002881
:40524000F2D16946264603AB84460873002C19D0002115E08A00B75A082F09D990198078002805D0083FB7521878401C187005E0002914D00027B75290198770491CC9B27A
:40528000A942E7D360460028CED10F98002809D0109901F047FA002804D00120C4E701208446EFE701F094FE2D480021416081600599016021888180022D07D3A179817177
:4052C000A17AC171A1890181218A418100211EE0481C19E082008B00A75AE65ABE46BE4211D26F463E80B4461E190296B678BE7001967646E6521719029EBB78B3706646A2
:40530000A652019EBE70401CA842E3D3491CA942DED3134822460C3000906846037B0799069800F01BF90028B8D168460B4C007B60700B480C3001F07BFE0028AED10849BC
:4053400007480C3107F0A2FA0028A7D107F0BCFA0028A3D10121217066E70000240D002030110020F8B5054636480F460078002802D002242046F8BD002F60D000243249F7
:40538000002D16D02A89D0070DD02868002808D003881B3BE12B04D24088FB2801D81B2801D2012409E0900707D56868002804D1F7E70020088108604860002CDAD1224820
:4053C0002E8906811F481B21801D01804180042101711C490020891C0870F00705D019480622801D2968FEF7C4FE1749B00703D56A68144812788270124D0E46AD1D281F1D
:405400000D60486001F05AFE284601F049FE30890DF0BAFE30890DF0A3F828880DF0A6F830890EF01BF803461033FFF779FE1F21C018890140183880A91F88809AE7012473
:4054400098E70000240D00203C110020FFB58446384F1C460020BB883F78054602460646002F11D100290ED0029999420BD36146002908D0002C06D00A99002906D02E4B5E
:405480000B99994202D2012004B0F0BD002144E0AB001F19BF78002F3BD0E35A002B38D07B43591889B22B0000F04AF8050410161C253100A7782388BC46FF27233BEB3734
:4054C000BB4222D26346032B1FD322E0A388002B1FD0302B19D31CE02389002B19D0282B13D316E0A289002A13D01346134F233BBB420AD20DE0268A002A0AD033460F4FD7
:40550000233BBB4201D2964203D901200EE0002001E000280AD16D1CEDB2099B9D42B7D31C2463435B1802998B42ACD89642AAD8AAE70000240D002079020000BAFF00008C
:4055400030B47446641E2578641CAB4200D21D46635D5B00E31830BC18470000FFB583B0002469460C801F4606468C80002806D00598002803D004983043800701D0012446
:4055800066E0002FFBD03449049809888842F6D3FEF74EFBFEF734FB00F016FC002855D100F07EFD002851D12C49084601F0EEF805042D0C4AD12A48049906608180002179
:4055C000C18007810C98007AC00704D0684601F018FD040007D10C98007A800703D501A801F018FD0446BF1DFEB2002C20D13146059800F05DF804001AD10DF03DFF0400F5
:4056000016D16A461088928808368518144AF1B29088D288AEB29319984207D3401B801A80B201F0A3FB050007D000E0FF25012400F062FA002D04D008E0F8B200F01CF974
:40564000F6E700F085FA07490120087000F0CEFB204607B0F0BD0000280D00209D57000048110020300D002010B503480078012801D101F01DFA10BD300D002070B5084B26
:405680000446DA889E8803205518B54206D8186880182060D8884018D880002070BD000048110020014800897047000048110020F0B587B007460D460020890000900691F7
:4056C0006846FFF7DBFF844600285DD1304800990160002117E02E4B88001A680629115406D22C4C0419667882185670628805E0C419203CA67A8218567022891B68C01832
:40570000491C4280C9B2A942E5D300242DE0601CC2B2059025E01E4FA30039689600581840887118039604904E88B04217D938466F46FE80B6464F786E4677710297049F30
:405740004F800168039F5E18767879184E700168764659184E800068029F18184770521CD2B2AA42D7D30598C4B2AC42CFD36046002809D168460699FFF780FF84460028C1
:4057800002D1054900980860604607B0F0BD0000340D002030740100380D00207047000010B5002809D005494A68002A05D0011F08788000105801F087FA10BD340D0020AF
:4057C00010B50446FFF76EFFC0B2801DA0420CD307484068002808D0A100405801F0E6F9002801D00470001D10BD002010BD0000340D0020F8B516460D460446FFF752FFD5
:40580000C0B2801DA04203D20020C0430090F8BDB2B2E9B2684601F0EFF90099481C03D0024AA000526811500098F8BD340D0020F8B50746FFF736FF801DC6B20A49002082
:4058400005460C680DE06178002907D06188B94202D32078FFF7B4FF002804D1241D6D1CEDB2B542EFD3F8BD340D002010B5002801D0FFF795FF10BD70B506460948002578
:4058800004680BE06178002905D062882078121D0023FFF7AFFF241D6D1CEDB2B542F1D370BD0000340D0020FFB581B00A9F16000C4620D000F0F6F8054604281BD0002F3B
:4058C0000CD03846FFF7B4FF20492A0151184860002810D03A460499FEF74BFC1B4928010E504618778101980570200406D47D20C000444304E0FF2005B0F0BD6404640C31
:4059000000F0BEF80746042807D000F053FAA0420BD800F04FFA201A03E0204600F0AEFA0020F06035720020E6E700F043FA009000F0BAFA00980121001B009000F0F0F879
:4059400002493A0151180098C860E6E754110020F8B5042801D3FF20F8BD060116483418217A042903D0E068002802D017E00020F8BD00F01FFA054600F096FA00F0A0F8EF
:4059800004280CD001010C480F18F8680021451900F0C6F80020F860284600F06FFA6068054D002801D0FFF761FF042020720020A8516081E060DAE754110020FEB500261E
:4059C0006A46304601232549050169180D7A042D02D0C96800291BD000211154401CC0B20428F0D300246846005D002830D01B48210108184189476805680291002101605F
:405A00004160042241810272C160002E02D015E01354E3E700F054F804280ED001010F4808180190C6680021304600F079F801980021C160304600F021FA0126002D07D025
:405A400038460299A847002F02D03846FFF70EFF641CE4B2042CC6D3FEBD0000541100200EB5002005216A460090118150810348694600680EF087FB0EBD00003C0D0020BB
:405A8000074A0020010189180B7A042B02D0C968002903D0401CC0B20428F3D370470000541100200549002002015218127A042A03D0401CC0B20428F6D3704754110020BC
:405AC00030B50A4B04200A4C00210A011219157A042D06D0D268002A03D09A4201D808461346491CC9B20429EFD330BDFFFF0000541100207047000030B50020074C0546D9
:405B00000423020111190B72A5504D60401C4D81C0B2CD600428F4D330BD00005411002030B5094C00231A011219157A042D04D0D568002906D02D18D5605B1CDBB2042BA4
:405B4000F1D330BD2D1AF7E754110020002070471CB5002469460C70142001902346054A05480EF015FB04480068401C00D1FF2420461CBDCD5B00003C0D00203EB5124AD8
:405B80000146FF2000230124126800290DD0012914D0042908D104206946009308814B8110460EF0F0FA80B23EBD6846009304814381694610460EF0E1FAF4E768460093F9
:405BC000048143816946EBE73C0D002070B545890468416800890300FFF7B2FC08280509091E22282628002005F000FD1EE0022908D0C8B22A4621460CF006FC2046FFF77F
:405C000035FE13E002202A4621460CF0FDFB2946204600F00DF809E000200DF0B3FF05E02046FFF7CBFE01E0FEF782F8002070BD014B0022DB681847400D002070B54489B9
:405C400005680089022803D0032809D0FF2070BD2246094C0023A46829460120A04708E0FFF78EFA241DA2B200232946022006F0C0FC002070BD0000400D002070470000AC
:405C8000024800214160018041807047400D002070B50C46002186B016460391012802D0022859D116E003A9012006F0F7FC01281BD1039D324621462846FEF75AFA0095D9
:405CC000287801900220694608814E816846FFF7B5FF41E0214D002B686809D0049004A9022006F0DBFC01281DD0022006B070BD002812D0298840182146FEF73AFA2888F1
:405D00000024801980B228806988091D884206D12C801348FFF792FF03E00320E6E788421AD96C6018E004986860E278A378110219430B4A698000231060E3565360032307
:405D400013815181A1788170E178C1706178417021780170042028800020C7E7400D0020941100203EB515460C46022803D004280CD000203EBD009101900220694608818D
:405D800007484A8100680EF0FEF907E00CF03CFB044B0022DB6829462046984701203EBD3C0D0020400D0020014AD16090607047400D0020034801688068081A0A214843F4
:405DC00000097047A011002010B5FDF721FF4C2204490548FEF7CDF903490120C870002010BD00004C740100A415002010B5FDF7FFFE10BD70B5134C2368002B08D0207B1A
:405E00001149C20705D04008400020738868A08070BD88680B4AA18880B29268814203D90A4D691A091802E0814202D2411A5118A160A080A0689842EAD30EF0C1F900F039
:405E400013F870BDA0110020C0102E40FFFF000010B508461946FFF7A7FF10BD704710B5FFF780FF10BD000003480021016041608160C16070470000A0110020024610B53F
:405E8000FF20002A0CD0FFF7EFFF064C0321207B0843207310010A21FEF740F82060002010BD0000A011002000B504480A21806848430209FFF7D8FF104600BDA0110020E8
:405EC0000248007B8007C00F70470000A011002010B54B490868002802DA4A4B01221A70022290430860484800694549C00B4031096A0246C907C90F0A4259D0012000F0E5
:405F000097FA3F480E216C30FDF77CFD3E4820218430FDF777FD3C4814219C30FDF772FD3948FF21C131A430FDF76CFD3648FF212F31B030FDF766FD33483449BC30FDF775
:405F400061FD31483249AC30FDF75CFD30492E48491CB430FDF756FD2B482E49B830FDF751FD29482C49CC30FDF74CFD26482B490830FDF747FD24482949A830FDF742FDB9
:405F8000214828498830FDF73DFD1F4826498C30FDF738FD1C481921C9029030FDF732FDFDF740FDFDF750FEC0B2022812D01FE000290BD0002101420AD0114801216030DD
:405FC000FDF720FD0120FDF707FE97E70121F2E7FF2010BD15491648FDF714FD14481549001DFDF70FFD124800210830FDF70AFD54200449C043891C0870002010BD0000FD
:4060000000F02E40500D002000002E40320300002F3F00003102000010520000EC160000FA12000031D000003AE300009956000080012E40F80F000070B50646581C80B2B7
:4060400045086D00002408E0304600F0C1F81055000A1119A41C4870A4B2AC42F4D3D80705D0D0182038D15CC47FD454C17770BD30B50A4C002100195B1E07E05418647811
:406080002502545C2C430480891C89B29942F5DB994201D1515C018030BD000000102E4010B5FF2000F0C4F90F49FF2048700E481021801D41800121417001700A490020E9
:4060C000C91C4870FFF704FF04000AD100F010F907210648FDF786FC044807211830FDF781FC204610BD0000500D0020CC112E4070B5002405465B1E0AE0284600F068F869
:40610000010A161971702D1D1055A41CADB2A4B29C42F2DB9C4203D1284600F059F8105570BD000070B500210A4D5B1E0AE0541864782602545C344346193480001D891C16
:4061400080B289B29942F2DB994202D1515C4019018070BD00102E40F0B50599091FCFB200217E1E0BE0541864782502545C2C43164D45192C80001D891C80B289B2B14279
:40618000F1DBFC0712D01C78515C24020F4A0C4381180C809C785D78001D210280B2294384182180001D80B2D9780CE059781A7809021143054A84182180001DD9789B789B
:4061C000090280B2194380180180F0BD00102E40014940180088704700102E4010B50B490020487000F084F8002000F047F9002000F034F907210648FDF7F4FB04480721AC
:406200001830FDF7EFFB002010BD0000530D0020CC112E4010B50B46062812D006DC01280CD0032801D1FFF7D9FF10BD0A28FCD00B28FAD105480078107010BDFFF730FFA8
:4062400010BD1146184600F035F910BD560D0020F8B5244DAC6A0127A007234E002816DA307806280ED1286A384328621F480069F903084381B21D481030FDF7C3FB042091
:4062800000F0D6F8174802212830FDF7ABFBE00718D000F01FFF01280FD1002000F06CFF062000F0C5F81049FF20C91E48707078002802D1686B384368630A480121283099
:4062C000FDF790FBE0050BD53078042802D1052000F0AEF80348FF2101312830FDF782FBF8BD000040F02E40530D002000002E4010B503212348FDF785FB0120FDF75CFC1C
:4063000020483038406A204C80076178800F890001431C480C38FDF775FB6078002808D0401E022181401820FDF7E2FEC000083800E0B82081B21548FDF764FB134803216F
:4063400009021438FDF75EFB10481149B830FDF759FB612189010F48FDF754FB0D480321001FFDF74FFB0C490C48FDF74BFB0B480B496038FDF746FB084801218838FDF79E
:4063800041FB10BD70F02E40560D0020D8102E4090890000041E2E40FF0F000058122E40209000000848017806290BD140780749002803D1486B400840004863C86A0122DB
:4063C0001043C86270470000530D002040F02E400148007870470000530D002000B50300FFF7AEF8080D050D0B070507090D012000BD032000BD042000BD022000BDFF2007
:4064000000BD0000074A9168D26889B2064B92B2994204D105498A4201D1012100E000210170704780002E4033D000003FE3000010B50446FDF7E4FB072C01D9FF2C01D165
:4064400002480470FDF7D4FB10BD0000530D00200149487070470000500D002010B5064A012805D01921C9021046FDF7CBFA10BD1D21C902F8E7000090002E4010B50A4A25
:40648000141D012808D009491046FDF7BBFA08492046FDF7B7FA10BD04491046891CFDF7B1FA0349491DF3E788002E4031D000003AE3000070B50C460546FDF7C5FBC0B2C1
:4064C00002280E49287804D0FF2810D04C280CD810E0FF2809D10A4AD0680004800F032801D0087807E09069000A553803E00878207070BD4F382070087070BD520D0020EA
:4065000000002E40F0B50122002834D0002932D00424420600D00524792342065B06D21800D0641C034600221EE00C2516466E43124D00277519AF72104F002ABB516960AC
:4065400007D0661EB24209D10D4E86197606760E05E05E06760E8027BE1B00E080269B198919521C2E81D2B2A242DED303480549006B002288611046F0BD00002C14002027
:40658000790200005C0D002018B50020694608700A48006900280ED0132149014018047E684604704F21C900054800F05BF8A04201D0012018BD002018BD00005C0D002098
:4065C000B0110020074900200C2242435218927A012A05D0401CC0B20628F5D300207047012070472C140020F8B50F000446164609D01A4D1A496868A04202D94018A04282
:4066000001D38E4201D90120F8BD39462046FDF7A1FD002820D0324639462046FDF7A9FD0E49F0B2012620318E7600210C220B4653430A4A9A1813895568EF18A74207D9A6
:40664000641B1B1B9672834206DAC01A1469C0B2491CC9B20629E9D30020F8BD2C14002079020000034610B50020024604E09C5C2018521CC0B292B28A42F8D310BD000062
:4066800070B500F05FF8084C064A216907480D46FDF76FFD05492846FFF734FFFFF774FF207070BD790200005C0D0020B0110020002070470020054A002902D0012902D011
:4066C00002E0906000E0D060002070475C0D002070B5084C154608460549E26889182A46FDF747FDE0684019E06028B270BD0000B01100205C0D00203EB50A226946FFF73F
:40670000E7FF044606480A2200686946FDF722FD002802D00020C0433EBD20463EBD0000600D0020002802D0044A914201D2FF20704703494A610861002070477902000009
:406740005C0D0020024800218160C160704700005C0D002070B5074C15460548A26880182A46FFF741FFA0684019A06028B270BDB01100205C0D002010B503490A220968FB
:40678000FFF7E8FF10BD0000600D002010B50F4A002313600E4A13600E4B18600E4801600E49012008600E490860000290600E490C4808600D4914300860FF3815385060C1
:4067C00000F0BCF800F0CAF9002010BD900D0020780D0020A40D0020A80D0020940D0020840D002074150020880D00209C0D0020014610B50020002910D0094B1A689C68A5
:406800005118A14209D25868196080188A0704D08A07920F891A091D196010BD002010BD780D0020F8B50024164E671E321F3D463168136806E01422624310328A58521C33
:406840001BD0641C9C42F6D36A1C14D02C461422544322460C3288500C214843FFF7C8FF3168002808510AD031680020103408517068401C70602846F8BD2546E4E7384645
:40688000F8BD0000880D0020F3B50026F64381B000281BDB1E490968884217D80299002914D01B4F142204463F1D54432546396810354859401C09D0FDF7A2F938682F1F5E
:4068C0004159C359994203DBFDF792F93046FEBD214608310091465801590C20704308180C220299FDF745FC0948761C001D0068C159B14200D100260549009A091D865003
:4069000008684159491C4151FDF772F90020FEBD840D0020002803DB07490968884202D90020C043704704491422091D096850431030085870470000840D0020F0B50020AB
:406940000D4A451E0346171F50600FE014260146714314680E1DA3510C461668083433511668083435511468401C635039688842ECD30020F0BD0000880D0020F3B500269A
:40698000F64381B0002841DB2349096888423DD8029900293AD0204F142204463F1D54432546396810354859401C2FD0FDF728F93868415900292BD0211D009146580C2163
:4069C000005971430F46C1190C220298FDF7D1FB11480021001D0068761C00590C34C0190160416081600C48001D00680159B14200D100260849009A091D865008684159DF
:406A0000491E4151FDF7F4F80020FEBD3046FEBDFDF7EEF8FAE70000840D0020FEB504460D4600201E49089E0860471E009001900290002C11D0486885420ED2002A0CD09E
:406A4000002E0AD0642E08D808460C3001681C2068430C18207A002801D03846FEBD0120226020721846FFF7DDFE6060401C13D06681A6810A4827610C3067610179A9421E
:406A800000D205710021684601810A462846029B00F040F82846FEBD00202072DDE70000900D002038B50124009400F039F838BDFEB50027164EFF433D4600240EE01C2051
:406AC000316860430818017A002906D04068FFF721FF002801D0254603E0641C3079A042EDDA681C12D01C2130684D434419FDF787F869466068FFF741FF0546FDF778F8F2
:406B0000002DD9D1216868468847D5E7FEBD00009C0D002038B50024009400F001F838BD1FB500220C49541E0A60002811DB496888420ED808491C220C3109685043081829
:406B4000406801A9FFF7A0FE401C02D0002004B010BD2046FBE70000900D0020F0B50021114A4D1E174611710C3F0B46BD6016E008461C2460431668041D35511468064623
:406B8000235014680836A3551468361DA353044616680A34335318301468491C255078688142E5D30020F0BD9C0D002038B500210091002811DB0F49097888420DDA0D4D39
:406BC00004010C3529680859002807D0201D0818694600F06FF9002801D0002038BDFDF70FF828680F34015D491E0155FDF700F8009838BDAC0D0020F7B582B00025029814
:406C00006E1E06602E48D21C024017462D4A2C4610460C380178106805E02301C358002B0FD0641CE4B28C42F7D3711C28D03401211D40180191039900F02AF900281FD166
:406C400001E02646F1E71F48016820460C300F521C480399026820460E30115419480399026820460F3011540398784300F0A0F8144900280968085102D00024009011E094
:406C800001251AE00F48016801980818009900F02CF9002801D0012502E00098C0190090641CE4B203988442ECD3002D05D10298066004480179491C0171284605B0F0BDE5
:406CC000FCFF0000B80D0020F8B50D4600216A468C461180002839DB23490978884235DA214B04010C3319680A59002A2ED020460C300B5A801C0E5C184670438018954235
:406D000024D3854222D2002006E007465F43BF18AF4206D0401CC0B2B042F6D36046002814D0114E271DC8190C366A46294600F006F900280AD168460088012808D030682D
:406D40002946C01900F0D1F8002803D00120F8BD0020F8BDFCF754FF30680F34015D491C0155FCF745FFF3E7AC0D0020F8B50F46002400F031F8002817D10C4900220B4631
:406D80000C334A600EE021011D680E466A501D680C36AA53B61C1D680F31AA551D68641C6A54E4B2BC42EED31A71F8BDAC0D002000280BD0C01C074A8108506889005388E7
:406DC0004118994203D89368516018187047002070470000AC0D0020F8B5064600200F4D009029700C0121466846FEF747FC00280CD129460C3100980860301B001F84B2F8
:406E000021466846FEF73AFC002801D0FF20F8BD6C800098A8600020F8BD0000AC0D0020F8B5002827DB19490978884223DA174C05010C342168485900281CD028460C30F9
:406E4000085A009028460E300E5C401C0E5420682F1DC01900F064F800280CD12068002445590EE0094829460C300068C01900F03CF8002801D00120F8BD00982D18641C89
:406E8000E4B2B442EED30020F8BD0000AC0D002030B50D4604000BD0A800FFF789FF6060002805D000202570C0436080002030BD012030BD70B50D46040005D0002D03D0D9
:406EC0000220205E002801DA012070BDFCF798FE0221615E60688900405828606088401E6080FCF785FE002070BD70B50D46040007D0002D05D002212078615E401E8142EC
:406F000001DB012070BDFCF77BFE6088401C00B26080616880000D50FCF76AFE002070BD10B5040009D0227800216068FDF72AF90020C0436080002010BD012010BDF0B5D8
:406F400000231D46002802D00224045F0AE00120F0BD46689F00F6598E4201D1012503E05B1CDBB29C42F4DA15700020F0BD00000148007870470000C00D00207CB5054626
:406F80000024FEF7FDF8A8796946087000A8062229460130FDF7EDF80021684604F0FEFD0C2806D0072806D01F2806D0122806D006E0022404E0042402E0272400E00124EE
:406FC00020467CBD0148012141727047B016002010B500F05FF9FFF7FBF9FFF7FFF910BD70B504460025FEF7CBF8002C06D0A079012803D8214602F05BFD00E001252846F5
:4070000070BD01460120002902D05020088000207047000001460120002905D003485422007850430880002070470000C20D002010B502460D49FE204870032410460DF0BE
:40704000C5FB002810D10DF069FB00280CD105F081FB002808D100F0F9FA002804D105F043F8002800D10024204610BDC00D002070B50025044600280ED0A07901280BD863
:40708000FEF77EF8A0790028204602D003F0A2F803E003F077F800E00125284670BD0000014610B50120002904D006220248FDF760F8002010BD0000CC0D00200146012043
:4070C000002903D0087802490870002070470000C20D00200148007A70470000B016002038B504460120002C20D0617801291DD800290BD0FF25E535FEF742F80C482818BA
:407100000088C0B22070072803D00EE0FF25CD35F2E70020694608706846FFF773F969460878012801D108202070002038BD000000102E40014A002192681047C00D002060
:4071400008B500226B461A7026280CD0094A342852680BD0352805D1900703D50021352005F0D4FB08BD19462620F9E7D007F9D03420F5E7C00D0020014908727047000029
:40718000B0160020F8B504460120002C26D06178012902D92278092A20D8002905D0FF25E5352078092803D004E0FF25CD35F8E708202070FDF7E4FF2078114F114E082835
:4071C0000DD00020FFF75AF970780128207810D00D4969180880FE2070700020F8BD0120FFF74CF90720B8810549203188800120F2E7B8810248217820308180EBE70000F2
:40720000C0112E40C00D002000102E4070B50E46050001D0002400E00C4C002C11D0E28A500609D5D107C90F022003F067F8E08A40218843E08204E0D107C90F012003F088
