:400000000080002011000000F90D0000F90D000080B500AF00F024FF80B500AF244B12221A6002F071F9234B180002F045FB012002F07AF9302001F005FF1F4B1F4A1A60DF
:400040001F4B8022D2051A601E4B1E4A126802210A431A601C4B1D4A1A601D4B00221A601C4B1C4A126808218A431A60FA23DB00180001F0DDFF184B180002F055F8174BF2
:40008000C82252011A60164B164A1A60164B802212061A60154B8022D2021A60144B40221A60074B8022D2051A60C046BD4680BD30001040001BB70004010B40060000807B
:4000C0000C020B4078002E407C002E406A2D000064F02E406CF02E40DC050000000301400000014040FF008008010B4000010B400401014080B582B000AF72B6394B0022C5
:400100001A60FB1D00221A7022E0FB1D1A7813005B009B185B00344A9B183B603B681A78597809020A43997809040A43DB781B06134318003B681A795B791B0213439BB218
:40014000190000F035FEFB1D1A78FB1D01321A70FB1D1B78012BD8D9244BEE2212061A60234B992212041A60224B992212041A60214B992212041A60204B992212041A604D
:400180001F4B992212041A601E4A1E4B1B78DBB206210B43DBB213701B4BD82212041A601A4B20221A601A4BC42292021A60194B20221A60184B80221A60184BB022D20301
:4001C0001A60174B802212021A60164BC02252031A60FFF721FF00F0FBFDC046BD4602B080BDC0466CF02E4034570100000002400001024000500F4010500F4020500F40FD
:4002000030500F4000700F400800044000010440080104401801044000020440080204400C0204400803044010B5064C2378002B07D1054B002B02D0044800E000BF0123AF
:40024000237010BD981000200000000000510100084B10B5002B03D00749084800E000BF07480368002B00D110BD064B002BFBD09847F9E7000000009C1000200051010008
:40028000A80B00200000000080B582B000AF786039603A687B681100180000F00BFC7B68272B0AD0282B02D0012B00D009E0074B00221A7000F004FB03E0012001F0A4FCA4
:4002C000C046C046BD4602B080BDC046BA10002080B500AF02F090F902008023DB00134019D00E4B1B78032B0BD10D4B1B7801225340DAB20A4B1A70094B1B78180001F003
:4003000083FC084B1B685A1C064B1A608023DB00180002F07FF9C046BD4680BDE4210020AC0B0020B410002080B500AF02F046F80E4B180001F024FD0121012002F080F8BD
:400340000121012002F0AAF8094B1900012002F00BF9012002F096F980235B00180002F0D3F802F001F8C046BD4680BDD1020000FF7F000090B585B002AF62B601F06CFB90
:400380002D4B180002F0FCFD012001F065FC012001F03AFC294B180000F014FF03001A00274B1A80264B1B88002B07D0244B1B881A00244B1100180002F066FD3B001800CD
:4003C00003F060FD03001A001D4B1A801C4B1B88002B08D01A4B1B881A001B4B1100180002F052FD0FE03B001B8819003B005B881A003B009B881C003B00DB88134800936B
:40040000230002F041FD00F071F8FFF78DFF104B1B78022B0CD10F4B1B68002B08D00D4B00221A600C4B1B78012B01D100F0D6F903F035FDEBE7C04604510100890200003D
:40044000BC2100202C5101004C5101007C510100E4210020B4100020BA10002080B582B000AF786039607B68AA22FF32934208D0D522520093420CD0D4225200934210D097
:400480001CE0144B01221A70134B180002F078FD1BE0104B00221A70104B180002F070FD13E00F4B00221A800D4B1B88180000F04BF80C4B180002F063FD06E07A680A4B56
:4004C0001100180002F0E0FCC046C046BD4602B080BDC046BA1000209C510100D0510100B8100020045201001C52010080B582B000AF134B180000F03DFD124B00221A709A
:40050000104B00225A800F4B00229A80BB1D00221A800CE0BB1D1B880A4A5B00D318063300221A80BB1D1A88BB1D01321A80BB1D1B88082BEED9C046BD4602B080BDC046B2
:400540005D040000C421002080B582B000AF0200BB1D1A80074BBA1D12889A80054B1B7808221343DAB2034B1A70C046BD4602B080BDC046C421002080B582B000AF0200CC
:40058000BB1D1A80154B1B7810221343DAB2134B1A70134B1B78082B03D1114B00221A7005E00F4B1B780133DAB20D4B1A700D4B1B78092B05D80B4B1B780133DAB2094B6D
:4005C0001A70074B1B78054A5B00D3180633BA1D12881A80C046BD4602B080BDC4210020C0210020C121002090B587B000AF744B1B7801229343DAB23B001A70704B5B884E
:40060000FF2B13D93B001B7801221343DAB23B001A706B4B5A883B0001331100180000F015FF1723FB1803221A7008E0644B5B88DAB23B005A701723FB1802221A70604B2B
:400640001B781A000823134018D05D4B1B7808229343DAB25A4B1A701723FB181B783A00D218574B9B881900100000F0EFFE1723FB181722BA18127802321A70504B1B78D4
:400680001A001023134069D01723FB181B781422D31ADBB201229343D9B21523FB181722BA1812788A181A701623FB18454A12781A7048E01623FB181A781623FB180132CD
:4006C0001A701623FB181B78082B03D91623FB1800221A701623FB181B78394A5B00D31806331B88002B1FD01723FB181B783A00D0181623FB181B78314A5B00D318063311
:400700001B88190000F0A2FE1623FB181B782C4A5B00D318063300221A801723FB181722BA18127802321A70264B1B781622BA1812789A4207D1224B1B7810229343DAB25D
:400740001F4B1A7007E01723FA181523FB1812781B789A42AED31C4B00221A703C001723FB181978194B1A785B781B02134300201B041B0C020C12041343180023000A00FF
:40078000002100F005FC03001A00114B1A80104B1B88002B08D00E4B1B881A000D4B1100180002F071FB07E0054B5B881A000A4B1100180002F068FBC046BD4607B090BD0A
:4007C000C4210020C0210020C1210020EC210020BC21002094520100BC52010090B583B000AF304B1B880C339AB22E4B1A802D4B1A8896235B009A4202D92A4B3C221A809C
:40080000284B1A88284B5A80264B1B88BC1D1900264802F077F903002380BB1D1B881900FA23980002F0F8F903001A007B1D1A7012E01F4B1B78082B04D8BB1D1B881800DE
:40084000FFF79AFEBB1D1A88BB1D01321A807B1D1A787B1D013A1A707B1D1B78002BE8D1144B1B685A1E134B1A60124B1B68002B12D1104B0A221A600F4B1B881800FFF709
:4008800063FE0D4B1B880D4A934205D80A4B1B8814339AB2084B1A80FFF7A6FEC046BD4603B090BDB00B0020C421002060EA0000C1210020B40B0020B8100020EAFF0000DC
:4008C00080B584B000AF002000F010FD03001A001D4B1A801C4B1B88002B08D01A4B1B881A001A4B1100180002F0CEFA28E0184B180002F0C9FA3B1D180003F0BFFA0E23A8
:40090000FB1806221A8012E00E23FB181B88013B3A1DD35C1A000F4B1100180002F0B4FA0E23FB181A880E23FB18013A1A800E23FB181B88002BE7D1074B180002F020FBCA
:40094000C046BD4604B080BDBC2100200053010024530100445301004C53010080B584B000AF786039607B68432B00D164E002D8262B05D06BE04C2B31D0542B61D066E0D4
:40098000354B1B781A00354B1100180002F07CFA314B1B78042B59D1314B180002F0F0FA012001F031F9002001F056F9C04601F089F801002B4B1A6880231B02134001D030
:4009C000012300E00023CB18002BF0D101F004F901F0CCF901F068F901F012FC36E03B689B891A00204B1100180002F04DFA0E23FB1800221A8013E03B685A680E23FB18AC
:400A00001B88D3181B781A00184B1100180002F03BFA0E23FB181A880E23FB1801321A803B681B890E22BA1812889A42E4D3104B180002F0A5FA0AE00E4B180002F0A0FA70
:400A400005E00D4B180002F09BFA00E0C046C046BD4604B080BDC046E421002050530100885301000802244094530100B05301004C530100B8530100D453010080B586B076
:400A800000AFF860B9607A6000237B6109E0BB685A1CBA601B78180000F0FEFF7B6901337B617A697B689A42F1DB7B681800BD4606B080BD90B585B002AF786039607B6837
:400AC000252B00D16BE019D8052B3DD00AD8022B3FD002D8012B32D01DE1032B42D0042B45D018E1222B4CD002D8212B44D012E1232B4BD0242B00D197E00CE1402B00D1FC
:400B0000ADE00ED8282B00D186E003D8272B00D174E000E1292B00D198E02A2B00D176E0F9E0422B00D1ECE000D2DFE0702B00D1ECE0E0221202934200D1F3E0EBE07C4B9F
:400B4000180002F01DFAEEE07A4B180002F018FAE9E03B681B781A00774B1100180002F093F9E0E0754B180002F00AFADBE0744B180002F005FAD6E0724B180002F000FA9B
:400B8000D1E0714B180002F0FBF9CCE03B685B681A006E4B1100180002F076F9C3E06C4B180002F071F93B681B78062B0DD002DC042B05D018E0082B0CD0152B0FD013E04E
:400BC000644B180002F0DCF917E0634B180002F0D7F912E0614B180002F0D2F90DE0604B180002F0CDF908E03B681B781A005D4B1100180002F048F9C04694E05A4B1B781F
:400C00001A005A4B1100180002F03EF98BE0584B180002F0B5F986E03B681B781A00554B1100180002F030F97DE03B681B7819003B685B781A003B689B781C003B68DB783F
:400C40004D480093230002F01FF96CE03B681B781A004A4B1100180002F016F963E0484B180002F011F93B689B78082B08D0102B0BD0042B0ED1434B180002F005F912E06D
:400C8000414B180002F000F90DE0404B180002F0FBF808E03B689B781A003D4B1100180002F0F2F8C0463B689B881A00394B1100180002F0E9F8384B180002F0E5F83B6878
:400CC0009B790A2B04D1354B180002F0DDF808E03B689B791A002E4B1100180002F0D4F8C0462F4B180002F04BF91CE03B685B7819003B681B781A002A4B180002F0C4F87A
:400D000011E0294B180002F03BF90CE0274B180002F036F907E03A687B6811001800FFF71DFE00E0C046C046BD4603B090BDC046F4530100045401001C5401003054010047
:400D4000485401005C5401007054010090540100B8540100D8540100F4540100185501002C55010044550100EC210020505501007055010098550100C45501001056010066
:400D800030560100505601006056010074560100885601008C560100A0560100AC560100C0560100C4560100F45601001057010080B582B000AF786039603A687B680021B5
:400DC000180002F059F8C046BD4602B080BDC04680B500AF054B03221A60054B03221A60044B00221A60C046BD4680BD3000304030003140000E3F4080B500AF01F0F8FF0D
:400E000003001B680C2B00D1FEE7FEE780B584B000AF7860104B1A687B68D3181A000F4BD21A8023DB009A4209DC0B4B1B68FB60094B1A687B68D218074B1A6007E001F0A5
:400E4000D7FF03000C221A6001235B42FB60FB681800BD4604B080BDB80B0020F821002080B586B000AF224B7B61224B3B61204B7B6135E03B691B68FB603B695B68BB607E
:400E80003B699B683B6000237B600CE0FB681A68BB681A60BB680433BB60FB680433FB607B6804337B607A683B689A42EED13B69DB683B6000237B6008E0BB6800221A60DE
:400EC000BB680433BB607B6804337B607A683B689A42F2D13B6910333B617B69013B7B617B69002BC6D101F089FFFFF743FAFEE701000000205D010080B582B000AF154BB9
:400F0000144A126801218A431A6000237B600FE07B68032B04D8104B7A689200D35800E00E4B0F4A796889008B507B6801337B607B682F2BECD9FFF7DDF80A4B00221A6015
:400F4000044B044A126801210A431A60C046BD4602B080BD0000104000000000F90D000000000020C000002080B500AFC046BD4680BDC04680B582B000AF7860034B7A68D5
:400F80001A60C046BD4602B080BDC046BC10002090B589B000AF0C243C192080080011007B600B23FB18021C1A700A23FB180A1C1A702D4B1B78022B05D01E23FB18042227
:400FC000FF321A8049E00B23FB181B78022B04D91E23FB1801221A803FE00F23002B14D00F235A1E214913009B009B189B00CB1810331B685B68180000F014FA03001A00FF
:40100000012313409BB2002B05D11E23FB18802252001A8021E00B23FB181B78144A5B00D31802331A881023FB181A811023FB187A681A600A23FB181B789AB21023FB18D1
:401040009A801E23FC181023FA180C23FB18110018680EF0AFFA030023801E23FB181B881800BD4609B090BDE4210020685701004057010090B587B000AF786000237B6105
:401080001323FB1800221A700823FB187A6812881A800823FB1800225A607B689B890F2293421FD10823FB1800229A707B685B68180000F0B7F903001A00012313409BB227
:4010C000002B03D0AA23FF337B6102E0D5235B007B61294B1B78DBB201229343DAB2264B1A701DE07B689B891322934218D10823FB1802229A707B685B681B78012B03D156
:40110000D4235B007B6103E01323FB1880221A70194B1B78DBB201229343DAB2164B1A707B69002B21D07B68181D7A681323FC18402300210FF0A8F8030023701323FB18EF
:401140001B78002B11D10D4B1B68002B07D00B4B1B680822B9187A691000984705E0084B1B687A6811004C2098471323FB181B781800BD4607B090BDEF210020BC1000203C
:40118000DC21002080B500AF064B00221A70064B00221A70054B00221A7000F009F8C046BD4680BDEF210020E8210020EE21002080B500AF00F030FCFFF7D6FEC046BD46A6
:4011C00080BDC046B0B594B004AF78603E23FB1800221A802823FA183D4B1000190014231A0001F040FE3B4B1B78002B04D1FFF7C9FF384B01221A707B68002B5CD0364BF8
:401200007A681A603E23FB181B88002B29D11023FB181C22BA185A601023FB182022BA181A601023FB1800221A812023FB181B221A802023FB181B225A802023FB18042219
:401240001A711C23FB1808221A703E23FC180E23FA181023FB181100180002F0FDFE030023803E23FB181B88002B29D13E23FC182823FD18AE231A011849194800230293AC
:4012800000230193052300932B0002F03BFE030023803E23FB181B88002B11D1114B01221A703E23FC18104B1122262118000EF0D3FF0300238003E03E23FB1801221A80A7
:4012C0003E23FB181B881800BD4610B0B0BDC0464C570100C0100020DC210020C80000207D160000E42100206857010090B585B000AF0200FB1D1A70FB1D1B78022B04D9F6
:401300000E23FB1801221A804AE0294B1B78042B41D1284B1B78DBB21A00042313403AD1FB1D1B78002B0BD1234B1E221A82224B5B6820221A80204B5B6830225A8010E0B6
:40134000FB1D1B78012B0CD11B4B96221A821A4B5B68C822D2001A80174B5B68FA2212015A80164BFA1D12781A700E23FC18124B18000CF095FF030023800E23FB181B88F0
:40138000002B0DD10B4B1B78DBB204221343DAB2084B1A7004E00E23FB180422FF321A800E23FB181B881800BD4605B090BDC046E4210020EF2100200C0C0020EE210020EA
:4013C00080B584B000AF78600A00FB1C1A700023BB60BB68002B20D07B689A79BB681A700F23FB1800221A7012E00F23FB181B780133BA68D3180F22BA18127879688A5CE3
:401400001A700F23FB181A780F23FB1801321A700F23FB181B78052BE7D9C046BD4604B080BDC04680B582B000AF78607B681B789AB27B6801331B789BB21B029BB213431A
:401440009BB21800BD4602B080BDC04680B582B000AF78600A00BB1C1A80BB1C1B88DAB27B681A707B680133BA1C1288120A92B2D2B21A70C046BD4602B080BD90B585B0CC
:4014800000AF78600F23FB1800221A707B689B890B22934232D17B68181D7A680F23FC18402300210EF0F0FE030023700F23FB181B78002B1AD17B685B681800FFF7B2FF0F
:4014C00003001A00022313409BB2002B07D00F4B1B687968822252001000984706E00B4B1B6879680622FF3210009847084B1B78DBB201229343DAB2054B1A700F23FB1866
:401500001B781800BD4605B090BDC046DC210020EF21002090B585B000AF78600F23FC187B681800FFF7AAFF030023701F4B1B78DBB21A00012313400CD00F23FB181B7862
:40154000002B07D10F23FC187B681800FFF792FD03002370154B1B78DBB21A00012313401FD10F23FB181B78002B16D00823FB1812229A707B689A890823FB181A8008239D
:40158000FB180F22BA181278DA700823FA187B68110018680DF0D0FF03E07B6818680EF05FF8C046BD4605B090BDC046EF21002080B582B000AF7860C046BD4602B080BD02
:4015C00080B500AF044B00225A70034B00221A70C046BD4680BDC046EC21002080B582B000AF7860C046BD4602B080BD80B500AFC046BD4680BDC04680B584B000AF786053
:401600000E23FB1800221A707B689B79002B1CD10F23FB1800221A7012E00F23FB181B787A68D35C002B04D00E23FB1801221A700BE00F23FB181A780F23FB1801321A702B
:401640000F23FB181B78052BE7D90E23FB181B781800BD4604B080BD80B582B000AF0200BB1D1A80C046BD4602B080BD80B582B000AF7860C046BD4602B080BD80B588B0EA
:4016800000AF02003960FB1D1A70D34B1B78DBB201221343DAB2D04B1A70FB1D1B78712B00D977E19A00CD4BD3181B689F461023FB1807221A701023FB1800225A7010237B
:4016C000FB18180004F0CCFB1023FB1807221A701023FB1801225A701023FB18180004F0BFFB0023002B01D002F0C0FBBC4B1B681800FFF781FF031E11D0B94B1B68180047
:4017000002F0D2FBB64B1B6800211800FFF758FEB34B1B6801211800FFF752FE36E0B14B1B781A003F231A40AF4B1B789901FC231B010B401A43AD4B1B781903F8235B023C
:401740000B401A43AA4B1B785904FE231B040B401343BB61BB69DAB2A64B1A70BB691B0ADAB2A44B5A70BB691B0CDAB2A14B9A70A04B180002F098FB9E4B00211800FFF7B9
:401780001FFE9C4B01211800FFF71AFE03200CF01BFC0C23FB183F221A700C23FB1800225A700C23FB1818000CF02CFC924B04221A70F6E03B681800FFF710FFF1E03B6837
:4017C0001A788E4B1A70ECE03B687B617B691B78002B00D0E0E07B695B78002B0BD1884B0022DA80864B00229A80854B854A1A607B69834A5A60784B1B78DBB201229343FD
:40180000DAB2754B1A70C7E0734B1B78DBB21A002023134000D0C1E07B4B1B78102B02D1794B0522DA70794B1B78774A110018000CF0F4FC03001A000A23FB181A800A233F
:40184000FB181B88002B06D0714B1B680A22BA18110036209847604B1B78DBB201221343DAB25D4B1A7099E03B681800FFF7FEFE97E03B681800FFF7F9FE5F4B02221A708F
:401880008FE05D4B04221A708BE05B4B1B78022B00D185E0504B1B78DBB21A000123134000D17DE04C4B1B78DBB21A00042313400BD0514B03221A70474B1B78DBB2042297
:4018C0009343DAB2444B1A706AE0434B1B78DBB21A00082313400BD0474B04221A703E4B1B78DBB208229343DAB23B4B1A7057E0414B1B78032B53D13F4B04221A70454B09
:401900001B78002B4CD10120FFF7F0FC031E47D1394B03221A7043E03B681B881800FFF79BFE3EE0394A3B681000190002231A0001F099FA314B00221A70FFF757FE30E09A
:40194000FFF73EFE2DE03B685B88162B05D81E23FB183A6852881A8003E01E23FB1817221A801E23FB1819883B681A8800231204120C1B0C1B04134318000DF0E7FD10E0FA
:401980003B681800FFF7C6FD0BE03B681800FFF70FFE06E0C04604E0C04602E0C04600E0C0460D4B1B78DBB21A00112313400ED0094B1B78DBB201229343DAB2064B1A709B
:4019C000134B1B68FA1D1278396810009847C046BD4608B080BDC046EF2100206C5A0100280C00207CF2FF0F7DF2FF0F7BF2FF0F78F2FF0F200C0020E4210020E821002000
:401A0000C4100020A80B0020F40C0020EC210020DC210020EE21002080B500AFC046BD4680BDC04680B500AF00F05CF8C046BD4680BDC04680B500AF064B064A1268802102
:401A400009060A431A6000F019F800F01DF8C046BD4680BD0000244080B500AF064B1B78002B04D1FFF7DEFF034B01221A70FFF7E1FFC046BD4680BDCC10002080B500AF4E
:401A8000C046BD4680BDC04680B500AF00F08AF8C046BD4680BDC04680B582B000AF7860C046064B1B681F221340082BF9D0044B7A681A60C046BD4602B080BD08022440CF
:401AC0004002244080B582B000AF054B1B681F2213407B607B681800BD4602B080BDC0460802244080B500AF1B4B1C4A1A601C4B00221A601B4B01221A601B4B1B4A1A6012
:401B00001B4B07221A601B4B00221A601A4B01221A601A4B154A1A60194B00221A60194B04221A60184B00221A60184B00221A60174B00221A60174B00221A60164B0022D9
:401B40001A60164B00221A60144B1B689AB2144B1A80C046BD4680BD000024400F0000024000244048002440000324400700008004032440100324404400244000022440DE
:401B80000402244050002440880E2440C80E2440480F2440080F2440C80F2440880F2440CE10002080B500AF074B074A126807490A40902109040A431A60054B054A128810
:401BC0001A60C046BD4680BD00010240FFFF0FFF880F2440CE10002080B582B000AF094B1B68DAB2FB1D7F218A431A70054BFA1D12781A60FB1D1B78DB09DBB21800BD46B3
:401C000002B080BD1002044080B584B000AF0200FB1D1A700F4B1B68DAB20F23FB1840218A431A70FB1D1B789B01DBB240221340D9B20F23FB180F22BA1812780A431A7080
:401C4000044B0F22BA1812781A60C046BD4604B080BDC0460003044080B584B000AF0200FB1D1A700F4B1B68DAB20F23FB1840218A431A70FB1D1B789B01DBB2402213401C
:401C8000D9B20F23FB180F22BA1812780A431A70044B0F22BA1812781A60C046BD4604B080BDC0460002044080B500AF00F054F8054B180000F010F8032000F01BF800F0BE
:401CC00041F8C046BD4680BDCD1C000080B500AFC046BD4680BDC04680B582B000AF7860034B7A689A64C046BD4602B080BDC0460000002090B585B000AF0200FB1D1A7045
:401D00001623FB600B23FC1800F0DFFC030023700A4B0A4A12680A491140FA1D1078FA68904002000A431A600B23FB181B78180000F0CFFCC046BD4605B090BD00E400E095
:401D4000FFFF3FFF80B500AF024B04221A60C046BD4680BD00E100E080B500AF024B04221A60C046BD4680BD80E100E080B500AF024B04221A60C046BD4680BD80E200E09E
:401D800080B582B000AF786000F050F87B68180000F00AF8032000F015F800F03BF8C046BD4602B080BDC04680B582B000AF7860034B7A681A66C046BD4602B080BDC04633
:401DC0000000002090B585B000AF0200FB1D1A700623FB600B23FC1800F077FC030023700B4B0B4A1268C0218A431100FA1D1078FA68904002000A431A600B23FB181B78E5
:401E0000180000F066FCC046BD4605B090BDC04608E400E080B500AF034B802252001A60C046BD4680BDC04600E100E080B500AF034B802252001A60C046BD4680BDC046C2
:401E400080E100E090B585B000AF78600C23FC1800F03BFC030023707B68022B00D8B3E07B68302B00D9AFE05E4B1B78DBB21A007B689A420AD35C4A0F23FB1812781A7081
:401E80005A4A0E23FB1812781A703FE0584B1B78DBB21A007B689A420AD3564A0F23FB1812781A70544A0E23FB1812781A702DE0524B1B78DBB21A007B689A420AD3504A85
:401EC0000F23FB1812781A704E4A0E23FB1812781A701BE04C4B1B78DBB21A007B689A420AD34A4A0F23FB1812781A70484A0E23FB1812781A7009E0464A0F23FB18127812
:401F00001A70454A0E23FB1812781A707B68DA1E0B23FB1841498A5C1A700B23FB181B782F2B0DD97B682A2B0AD93D4B19221A60052000F0C1FB0D23FB1819221A7007E0EE
:401F4000374B1B68DAB20D23FB183F210A401A700B23FA180D23FB1812781B789A4208D22F4B7A68033A2D498A5C1A60052000F0A3FB7B68284A9A180A23FB1812781A7086
:401F8000284B0A22BA1812781A60274B0F22BA1812781A60254B0E22BA1812781A60052000F0C2F80B23FA180D23FB1812781B789A420CD91A4B7A68033A18498A5C1A6048
:401FC000052000F079FB02E0002000F07BF80C23FB181B78180000F07CFBC046BD4605B090BDC04640F3FF0F41F3FF0F42F3FF0F43F3FF0F44F3FF0F45F3FF0F46F3FF0FB2
:4020000047F3FF0F48F3FF0F49F3FF0F4AF3FF0F4BF3FF0F4CF3FF0F4DF3FF0F345C01002CFF0B4028FF0B401CFF0B4020FF0B4080B584B000AF78600023FB60154B154A1D
:40204000126801210A431A60134B144A1A60144B134A1268802109020A431A607B68002B12D01023FB600CE0012000F05DF800F019F8031E02D00023FB6005E07B68013BD8
:402080007B607B68002BEFD1FB681800BD4604B080BDC04660F02E4078002E400220000010002E4080B582B000AF054B1B68012213407B607B681800BD4602B080BDC04691
:4020C0000C002E4080B582B000AF0200FB1D1A7001BEC046BD4602B080BDC04680B582B000AF786009E00D4B1B68180000F0E4FA7B680B4A944663447B607A6880231B0221
:402100009A42F0D8074B1B687A685343180000F0D3FAC046BD4602B080BDC046080D00200080FFFF000D002080B582B000AF0200BB1D1A80BB1D1B88044A12785343180070
:4021400000F0BAFAC046BD4602B080BD040D002080B500AF164B164A1268920092081A60144B144A1268920092081A60124B124A1268920092081A60104B104A1268920056
:4021800092081A600E4B0E4A1268920092081A600C4B0C4A1268920092081A600A4B0A4A1268920092081A60C046BD4680BDC0460800044008010440080204400803044022
:4021C00008040440080504400806044090B583B000AFFC1D00F079FA03002370074B074A126804218A431A6030BFFB1D1B78180000F06FFAC046BD4603B090BD10ED00E039
:4022000090B583B000AFFC1D00F05FFA03002370FFF79EFF114B114A1268802109060A431A600F4B0F4A128892B21A600E4B0E4A126804210A431A600C4B0C4A1268FF21DB
:402240008A43F1210A431A6030BFFB1D1B78180000F03FFAC046BD4603B090BD00000B400C000B4050F2FF0F10ED00E02C000B4080B500AF0F4B0F4A126801218A431A6014
:402280000C4B0C4A126802218A431A600A4B0A4A126830218A4310210A431A60064B064A126807218A4301210A431A60C046BD4680BDC04600F02E4000FF2E4080B500AF60
:4022C0000F4B0F4A126802218A431A600D4B0D4A126807218A4302210A431A60094B094A126830218A4320210A431A60044B044A126801210A431A60C046BD4680BDC046AC
:4023000000F02E4000FF2E4080B500AFFFF7B0FF044B044A1268802109060A431A60C046BD4680BD00F02E4080B584B000AF78600C4B1B6801221340FB607B68002B02D09C
:40234000012B03D005E0FFF793FF06E0FFF7B6FF03E00020FFF7B6FEC046FB681800BD4604B080BD00F02E4090B583B000AFFC1D00F0ABF903002370074B074A1268C02178
:4023800009020A431A60FB1D1B78180000F0A1F9C046BD4603B090BD00010B4080B500AF054B1A68C0231B02134001D0012300E000231800BD4680BD00010B4090B583B08C
:4023C00000AFFC1D00F081F9030023700D4B0D4A12680D490A408021C9010A431A60094B084A126808490A40802109020A431A60FB1D1B78180000F06CF9C046BD4603B018
:4024000090BDC04600010B40FF3FFFFF80B582B000AF78607B68022B02D90020FFF752FE064B1A687B68DB000133DA401300012213401800BD4602B080BDC04610020B40AD
:4024400080B584B000AF786039607B68022B02D90020FFF737FE7B681800FFF7D7FF031E16D10D4B1B687A68D200032191400A00D2431340FB603B6803221A407B68DB009D
:402480009A401300FA681343FB60034BFA681A60C046BD4604B080BD0C020B4080B584B000AF786039607B68002B02D07B68012B01D1012300E00023002B02D10020FFF71A
:4024C00001FE7B681800FFF7A1FF031E16D10D4B1B687A68D2000232012191400A00D2431340FB607B68DB0002333A689A401300FA681343FB60034BFA681A60C046BD46F9
:4025000004B080BD0C020B4080B582B000AF7860144B144A11687A680A431A607B680122134005D0C0460020FFF770FF031EFAD07A6880235B00134005D0C0460120FFF7BB
:4025400065FF031EFAD07A6880235B02134005D0C0460220FFF75AFF031EFAD0C046BD4602B080BD10020B4080B584B000AF786039607B68002B02D07B68012B01D10123DD
:4025800000E00023002B02D10020FFF79BFD174B1B689B0F9B0701D1C92300E05D231800FFF7C2FD124B1B68FB607B681B01114A9A401300DA43FB681340FB600C4B7A6867
:4025C000120139689140FA680A431A60074B1B689B0F9B0701D1432300E01F231800FFF7A3FDC046BD4604B080BDC0460C020B4008020B40FFFF000080B500AF034B1B68A3
:40260000034A13401800BD4680BDC04610020B400404040090B585B000AF78600B23FC1800F053F803002370FFF7B8FE031E04D00123FB60FFF7C2FE01E00023FB607B6807
:402640000D4A13407B600D4B0C4A12680C4911407A680A431A60094B1B68FB68012B01D1FFF782FE0B23FB181B78180000F031F8C046BD4605B090BD0404040010020B4037
:40268000FBFBFBFF80B582B000AF7860084B084A11687A68074802400A431A60C046044B1B68044A1340FAD1C046BD4602B080BD10020B40080808000230800803D001386D
:4026C000FDD1C046C046C0467047EFF3108072B6704780F31088704780B582B000AF78600A00BB1C1A80BB1C1A887B681A60C046BD4602B080BDC04680B582B000AF786005
:402700000A00BB1C1A80BB1C1A887B681A60C046BD4602B080BDC04680B584B000AF494B1B78DBB21B02484A1278D2B21343FB60464B1B78DBB21B02454A1278D2B213434F
:40274000BB60BB68434A934207D1FB68072B04D1414BBB600423FB6009E0BA68D4231B019A4204D1FB68042B01D13B4BBB603B4BBA681A603A4BFA681A603A4B1B78DBB252
:402780001B02394A1278D2B21343FB60FA6880239B019A4202D0FB68002B01D1334BFB60334BFA681A60334B1B78DBB21B02324A1278D2B21343FB60FB68304A934206D05A
:4027C000FB682F4A934202D0FB68052B01D12D4BFB602D4BFA681A602C4B1B681B097B602B4B1B68AA2B29D17B68012B26D9214B1B78DBB20E2B21D1264B1B78DBB29BB266
:402800001B0299B2244B1B78DBB29AB2BB1C0A431A80224BBA1C12881A60214B1B78DBB29BB21B0299B21F4B1B78DBB29AB23B000A431A801C4B3A0012881A60C046BD4649
:4028400004B080BD59F1FF0F58F1FF0F5FF1FF0F5EF1FF0F580B0000580D00006C002E4074002E405BF1FF0F5AF1FF0F0220000078002E405DF1FF0F5CF1FF0F0F0F0000E9
:4028800005050000050F000080002E40EC0F00F0E00F00F06DF2FF0F6CF2FF0F84002E406FF2FF0F6EF2FF0F94002E4080B582B000AF0200BB1D1A80BB1D1B881800FFF785
:4028C00033FCC046BD4602B080BDC04680B582B000AF78607B681800FFF700FCC046BD4602B080BD80B500AF00F0ECF8C046BD4680BDC04680B500AF00F0F0F8C046BD460F
:4029000080BDC04680B500AF00F0E8F8044B180000F0A2F8032000F0ADF8C046BD4680BDF52A000080B500AF034B180000F080F8C046BD4680BDC046F52A000080B500AF91
:40294000014B1800BD4680BD0202000080B582B000AF78602B231800BD4602B080BDC04680B582B000AF78602B231800BD4602B080BDC04680B582B000AF78602B231800C3
:40298000BD4602B080BDC04680B582B000AF78602B231800BD4602B080BDC04680B582B000AF78602B231800BD4602B080BDC04680B582B000AF78602B231800BD4602B07E
:4029C00080BDC04680B582B000AF78602B231800BD4602B080BDC04680B582B000AF78602B231800BD4602B080BDC04680B500AF2B231800BD4680BD80B582B000AF02005A
:402A0000FB1D1A702B231800BD4602B080BDC04680B582B000AF786039602B231800BD4602B080BD80B500AFC046BD4680BDC04680B582B000AF786000F050F87B68180066
:402A400000F00AF8032000F015F800F03BF8C046BD4602B080BDC04680B582B000AF7860034B7A681A67C046BD4602B080BDC0460000002090B585B000AF0200FB1D1A7099
:402A80000623FB600B23FC18FFF71FFE030023700B4B0B4A1268C0218A431100FA1D1078FA68904002000A431A600B23FB181B781800FFF70EFEC046BD4605B090BDC0462A
:402AC0000CE400E080B500AF034B802252011A60C046BD4680BDC04600E100E080B500AF034B802252011A60C046BD4680BDC04680E100E080B500AF12F0EEFAC046BD4653
:402B000080BDC046002243088B4274D303098B425FD3030A8B4244D3030B8B4228D3030C8B420DD3FF22090212BA030C8B4202D31212090265D0030B8B4219D300E0090A7C
:402B4000C30B8B4201D3CB03C01A5241830B8B4201D38B03C01A5241430B8B4201D34B03C01A5241030B8B4201D30B03C01A5241C30A8B4201D3CB02C01A5241830A8B42AB
:402B800001D38B02C01A5241430A8B4201D34B02C01A5241030A8B4201D30B02C01A5241CDD2C3098B4201D3CB01C01A524183098B4201D38B01C01A524143098B4201D31F
:402BC0004B01C01A524103098B4201D30B01C01A5241C3088B4201D3CB00C01A524183088B4201D38B00C01A524143088B4201D34B00C01A5241411A00D20146524110462D
:402C00007047FFE701B5002000F0F0F802BDC0460029F7D076E7704703460B437FD4002243088B4274D303098B425FD3030A8B4244D3030B8B4228D3030C8B420DD3FF2266
:402C4000090212BA030C8B4202D31212090265D0030B8B4219D300E0090AC30B8B4201D3CB03C01A5241830B8B4201D38B03C01A5241430B8B4201D34B03C01A5241030B22
:402C80008B4201D30B03C01A5241C30A8B4201D3CB02C01A5241830A8B4201D38B02C01A5241430A8B4201D34B02C01A5241030A8B4201D30B02C01A5241CDD2C3098B4220
:402CC00001D3CB01C01A524183098B4201D38B01C01A524143098B4201D34B01C01A524103098B4201D30B01C01A5241C3088B4201D3CB00C01A524183088B4201D38B007A
:402D0000C01A524143088B4201D34B00C01A5241411A00D201465241104670475DE0CA0F00D04942031000D34042534000229C4603098B422DD3030A8B4212D3FC228901BE
:402D400012BA030A8B420CD3890192118B4208D3890192118B4204D389013AD0921100E08909C3098B4201D3CB01C01A524183098B4201D38B01C01A524143098B4201D3C6
:402D80004B01C01A524103098B4201D30B01C01A5241C3088B4201D3CB00C01A524183088B4201D38B00C01A5241D9D243088B4201D34B00C01A5241411A00D20146634600
:402DC00052415B10104601D34042002B00D54942704763465B1000D3404201B5002000F005F802BD0029F8D016E770477047C046014B18687047C046941000200E4B70B5CF
:402E000000251E000D4CE41AA410A54204D0AB00F35898470135F8E712F070FF084B00251E00084CE41AA410A54204D0AB00F35898470135F8E770BD085D0100085D0100F4
:402E4000085D0100105D010030B50024A24208D0035D651C0C5DA34201D0181B02E02C00F4E7002030BD002310B59A4203D0CC5CC4540133F9E710BD03008218934202D094
:402E800019700133FAE770470FB40B4B13B51C68002C05D0A369002B02D1200000F03CFA05AB049AA1682000019300F001FC16BC08BC04B01847C0469410002070B5050072
:402EC0000E00002804D08369002B01D100F024FAAB69AC68002B02D1280000F01DFA254B9C4201D16C6808E0234B9C4201D1AC6803E0224B9C4200D1EC68A3891B0702D5F6
:402F00002369002B11D12100280000F09BF800280BD0012040422BE0013B0136A360002B08DB23685A1C226019703178A3680029F2D10BE0A269934201DB0A29F1D122008D
:402F4000280000F027F8431CEFD1E2E7013BA360002B08DA22000A31280000F01BF8431CD7D00A2004E00A2023685A1C2260187070BDC046685C0100885C0100A85C010033
:402F800010B5034B01001868FFF798FF10BDC04694100020F8B505000F001400002804D08369002B01D100F0B7F9234B9C4201D16C6808E0214B9C4201D1AC6803E0204BA7
:402FC0009C4200D1EC68A369A360A3891B070AD52369002B07D023682269FEB2981A636998420FDB08E02100280000F02BF80028F1D0012040421DE02100280000F01EF9DF
:403000000028F6D1A3680130013BA36023685A1C22601F706369984205D0A3893000DB0708D50A2E06D12100280000F007F90028DFD13000F8BDC046685C0100885C0100C9
:40304000A85C0100364B70B51D6806000C00002D05D0AB69002B02D1280000F05DF9314B9C4201D16C6808E02F4B9C4201D1AC6803E02E4B9C4200D1EC680C22A35E9AB28C
:40308000110723D4D10607D409220120326037321343A381404242E0530713D5616B002908D023004433994202D0300000F02CFA002363632422A3899343A3810023636013
:4030C000236923600822A3891343A3812369002B0BD1A0238022A1899B0092000B40934203D02100300000F0D1F90123A289134005D00023A36063695B42A36103E092071E
:4031000000D46369A36000202369834207D10C22A35E1A0603D540221343A381013870BD94100020685C0100885C0100A85C0100F7B58A8905000C0013075AD44B68002BD1
:4031400002DC0B6C002B19DDE76A002F16D000232E682B6080235B011A4001D0606D14E00123216A2800B847431C0ED12B68002B0BD01D2B01D0162B02D12E6000205AE082
:403180004022A3891343A38155E0A3895B0706D56368C01A636B002B01D0236CC01A00230200216A2800E76AB847A389421C06D129681D293AD8204ACA40D20736D50022A5
:4031C000626022692260DB0405D5431C02D12B68002B00D16065616B2E600029CED023004433994202D0280000F08EF90020606321E00F69002FC1D00B680F60DB1B019332
:403200000023920700D14B69A36003E0019B3F181B1A0193019B002BB0DD019B3A00216A2800A66AB0470028F0DCA389402201201343A3814042FEBD010040200B6970B573
:4032400005000C00002B01D100201CE0002804D08369002B01D100F05FF80B4B9C4201D16C6808E0094B9C4201D1AC6803E0084B9C4200D1EC680C22A35E002BE4D02100B6
:403280002800FFF755FF70BD685C0100885C0100A85C010010B5024900F0B0F810BDC0463D320000002310B5040003604360836081814366C28103614361836119000822E4
:4032C0005C30FFF7D9FD054B24626362044BA362044BE362044B236310BDC0462D3C0000553C00008D3C0000B93C000070B568254B1E5D430E002900743100F051F9041EA0
:4033000008D000212A00016046600C30A0606832FFF7B2FD200070BD836913B50400002B28D18364C3640365134B144A1B6882620193984201D101238361200000F020F8B6
:403340006060200000F01CF8A060200000F018F80022E06004216068FFF7A4FF01220921A068FFF79FFF02221221E068FFF79AFF0123A36113BDC046645C010095320000C4
:40338000F8B51D4B06001D68AB69002B02D12800FFF7C2FF4835AC686B68013B05D40C22A75E002F10D06834F7E72B68002B01D02D68F0E704213000FFF798FF28600028BA
:4033C000F6D10C23336016E0012320005B42E3810233A38167662760A760676027616761A7615C3008223900FFF746FD20006763A763A764E764F8BD645C0100F7B504009E
:403400000700002601914834002C16D06368A5680093009B013B00930DD4AB89012B08D90E22AB5E013304D029003800019B984706436835EDE72468E6E73000FEBD00002D
:4034400070B50E001D000E23C95E90B01400002906DA00232B60B3891B060FD540230FE001AA00F055FC0028F3DBF023029A1B021340054A9B185A4253412B608023DB00CA
:403480000020236010B070BD00E0FFFFF7B502268B8905000C00334210D101AB6A46FFF7CFFF00990700280000F07AF800280CD10C22A35E9A0523D43343A3812300473304
:4034C00023602361012363611AE080220D4BAB62A38920601343A381009B20616361019B002B0AD00E23E15E280000F023FC002803D00122A3891343A381A3891F43A78114
:40350000F7BDC0469532000070B50500002944D00C1F2368002B00DAE418280000F03BFC1E4A13681100002B02D16360146031E0A3420DD92268A018834203D118685B687A
:403540008218226063600C6024E0A24203D813005A68002AF9D11E689819A0420BD12168711858181960824214D110685268411819605A600EE0A04202D90C232B6009E0CF
:4035800021686018824203D1106852684118216062605C60280000F0FFFB70BDB8210020032370B5CD1C9D43083506000C2D01D20C2501E0002D01DBA94202D90C233360AA
:4035C00048E0300000F0E7FB234B1C681A002100002913D00B685B1B0DD40B2B02D90B60CC181EE08C4202D1636813601AE04B6863600C0016E00C004968E9E7174C236874
:40360000002B03D1300000F0FFFA20602900300000F0FAFA431C18D00323C41C9C43A0420DD12560300000F0B7FB200007220B30231D9043C31A0ED05A42E2500BE0211A2C
:40364000300000F0E1FA431CEBD10C233000336000F0A2FB002070BDB8210020B4210020936810B5013B9360002B05DA9469A34208DBCBB20A2B05D01368581C106019704D
:40368000C8B201E0FFF786FC10BDF8B506000F001400D518AC4208D021783A003000FFF7DFFF0134431CF5D100E00020F8BD0000F0B59FB006000F0002920593002804D0CA
:4036C0008369002B01D1FFF727FE7F4B9F4201D1776808E07D4B9F4201D1B76803E07C4B9F4200D1F768BB891B070AD53B69002B07D0002306AD6B6120336B761033AB7608
:403700003DE039003000FFF79DFC0028F1D001204042D6E0059A111D12680591002A00DA7FE00992013423782E2B00D18DE021780322684800F024FB002807D0654B2A6832
:40374000C01A4023834013432B6001342178631C062261480293297600F012FB002800D19DE05E4B002B00D090E00722059B07339343083305936B69039A9B186B61029C55
:403780002378002B04D1029BE31A049312D003E0252BF8D00134F3E7049B029A39003000FFF773FF431C00D186E06A69049B944663446B612378002B7ED001220023524202
:4037C0006A6002A95432521801342B60EB60AB601370AB6521780522414800F0D1FA002808D03F4B2A68C01A0123834013432B600134EFE72B68DA0604D55322202102A842
:40380000121811701A0704D553222B2102A81218117022782A2A00D17CE7099B00200A2105E05242EA60022213432B607AE72278303A092A04D84B4301349B180120F6E70C
:40384000002800D16FE709936DE763782A2B0AD1059B02341A1D1B680592002B01DA01235B42079363E700230A201A0001346B6021783039092904D842430134521801236D
:40388000F6E7002B00D152E7079250E705AB00933A00144B2900300000E000BF07E005AB00933A000F4B2900300000F08BF80390039B013300D05EE7BB895B0600D526E7C7
:4038C0000B981FB0F0BDC046685C0100885C0100A85C0100CE5C0100D25C010000000000C85C01008B360000F7B5170001938A680B6900900C00934200DA130022003B60DC
:4039000043321278002A01D001333B6023689B0602D53B6802333B60062523681D401ED0230043331B785A1E9341226892061CD53020E1184331087021005A1C45310978F9
:40394000A2184332023311700FE022000123193201990098089EB047431C0ED00135E3683A689B1A9D42F0DBDAE72200019943320098089DA847431C02D10120404220E061
:4039800006232068E1683A6803400025042B03D18D1AEB43DB171D40A3682269934201DD9B1AED180027BD420AD0220001231A3201990098089EB047431CDED00137F2E75A
:4039C0000020FEBDF0B58BB006920A0043320793059004920A7E0C00109B6E2A00D1ABE011D8632A22D009D8002A00D1B5E0582A00D0C5E045310A70814A4FE0642A1DD0C8
:403A0000692A1BD0BCE0732A00D1AAE009D86F2A29D0702A00D0B3E0202209680A43226037E0752A1FD0782A33D0A9E00E001A684236111D196013683370A4E021681A6853
:403A4000080606D4490604D5111D19600023D55E02E0111D19601568002D3BDA2D23049A6D42137036E021681A68080606D4490604D51568111D1960ADB202E0111D196094
:403A800015685F4B227E039308276F2A1DD00A271BE022007821453211705A4A19680392081D226818600D68100602D4500600D5ADB2D30702D520231A4322601027002D12
:403AC00003D1202322689A4322602300002243331A7002E00A274A4B03936368A360002B09DB0422216891432160002D05D1049E002B11D07BE0002D79D0049E28003900DD
:403B0000FFF786F8039B013E5B5C280033703900FEF7F8FF051EF1D1082F09D12368DB0706D563682269934202DC3023013E3370049B9B1B23612BE009681A68080607D451
:403B4000490605D5111D19601368A28A1A8004E0111D1960136862691A600023049E236116E01A68111D1960166800216268300000F006F9002801D0801B6060636803E0F7
:403B8000260042363270012323610023049A1370079B09AA00932100069B0598FFF7A4FE431C02D10120404227E02369320006990598079DA847431CF4D0236800259B071C
:403BC0000FD4099BE068984217DA180015E022000123193206990598079EB047431CE1D00135E368099A9B1A9D42F0DBE9E72600039B42361B7833708EE70BB0F0BDC046FD
:403C0000D95C0100EA5C0100002370B5064C050008002360FDF7FAF8431C03D12368002B00D02B6070BDC046F021002070B50C000E25495F00F0B2F8002803DB636D1B18A0
:403C4000636503E0A289024B1340A38170BDC046FFEFFFFFF8B51F008B8905000C001600DB0505D50E23C95E0022022300F074F8A289054B28001340A38132000E23E15E13
:403C80003B0000F01FF8F8BDFFEFFFFF70B50C000E25495F00F060F8A389421C03D1054A1340A38104E0802252011343A381606570BDC046FFEFFFFF10B50E23C95E00F065
:403CC00015F810BD70B50500080011000022064C22601A00FCF7D2FE431C03D12368002B00D02B6070BDC046F0210020002370B5064C05000800236000F064F8431C03D183
:403D00002368002B00D02B6070BDC046F0210020002370B5064C050008001100236000F059F8431C03D12368002B00D02B6070BDF0210020002370B5064C050008002360C6
:403D400000F050F8431C03D12368002B00D02B6070BDC046F021002070B50500080011000022064C22601A0000F044F8431C03D12368002B00D02B6070BDC046F02100203C
:403D8000C9B28218904204D003788B4202D00130F8E70020704770477047000070B50500080011000022064C22601A0000F02AF8431C03D12368002B00D02B6070BDC046FD
:403DC000F021002058220120014B40421A607047F021002058220120014B40421A607047F02100205822024B00201A607047C046F021002058220120014B40421A60704713
:403E0000F021002058220120014B40421A607047F0210020134A1088810703D08107890F401A001D11791030484381B25088820703D08207920F801A001D800040180A49D7
:403E40004030098980B2CA0701D0503080B2890706D504495422091F09785143081880B270470000160D0020DC10002010B501F017FF10BD10B501F019FF10BD10B501F00D
:403E80001DFF10BD0121002807D0FF213631C180032101804180002181800846704710B500F056FA10BD000010B50749044609780220002907D1204601F048FF002802D135
:403EC00020460AF091F910BDB40E002070B504460120002C12D02368002B0FD0616800290CD0074D06222889208118462968FEF7BAFF6968606809780170002070BD0000E5
:403F0000DC100020FFB585B0002768460E9D07734F481C460078002802D0082009B0F0BD10990F9801900095029105A807C800F001F90028F2D16946264603AB8446087331
:403F4000002C19D0002115E08A00B75A082F09D990198078002805D0083FB7521878401C187005E0002914D00027B75290198770491CC9B2A942E7D360460028CED10F98A5
:403F8000002809D0109901F03BFA002804D00120C4E701208446EFE701F088FE2D480021416081600599016021888180022D07D3A1798171A17AC171A1890181218A4181F5
:403FC00000211EE0481C19E082008B00A75AE65ABE46BE4211D26F463E80B4461E190296B678BE7001967646E6521719029EBB78B3706646A652019EBE70401CA842E3D35A
:40400000491CA942DED3134822460C3000906846037B0799069800F015F90028B8D168460B4C007B60700B480C3001F06FFE0028AED1084907480C3107F076F90028A7D110
:4040400007F090F90028A3D10121217066E70000100D0020D0100020F8B5054633480E460078002802D002242046F8BD002E5BD000242F49002D16D02A89D0070DD028686E
:40408000002808D003881B3BE12B04D24088FB2801D81B2801D2012409E0900707D56868002804D1F7E70020088108604860002CDAD11F482F8907811C481B21801D018042
:4040C00041800421017119490020891C0870F80705D016480622801D2968FEF7C4FE1449B80703D56A681148127882700F480D46801D0860001F486001F04EFE0B48801D4C
:4041000001F03CFE28890DF0B3F928890DF01AFB03461033FFF77EFE1F21C018890140180249308088809FE701249DE7100D0020DC100020FFB58446384F1C460020BB88FA
:404140003F78054602460646002F11D100290ED0029999420BD36146002908D0002C06D00A99002906D02E4B0B99994202D2012004B0F0BD002144E0AB001F19BF78002F15
:404180003BD0E35A002B38D07B43591889B22B0000F04AF8050410161C253100A7782388BC46FF27233BEB37BB4222D26346032B1FD322E0A388002B1FD0302B19D31CE066
:4041C0002389002B19D0282B13D316E0A289002A13D01346134F233BBB420AD20DE0268A002A0AD033460F4F233BBB4201D2964203D901200EE0002001E000280AD16D1CB0
:40420000EDB2099B9D42B7D31C2463435B1802998B42ACD89642AAD8AAE70000100D002079020000BAFF000030B47446641E2578641CAB4200D21D46635D5B00E31830BCD0
:4042400018470000FFB583B0002469460C801F4606468C80002806D00598002803D004983043800701D0012466E0002FFBD03449049809888842F6D3FEF754FBFEF73AFBCF
:4042800000F012FC002855D100F07AFD002851D12C49084601F0E8F805042D0C4AD12A480499066081800021C18007810C98007AC00704D0684601F012FD040007D10C98C9
:4042C000007A800703D501A801F012FD0446BF1DFEB2002C20D13146059800F05DF804001AD10DF03DFA040016D16A461088928808368518144AF1B29088D288AEB2931926
:40430000984207D3401B801A80B201F09DFB050007D000E0FF25012400F05EFA002D04D008E0F8B200F01CF9F6E700F081FA07490120087000F0CAFB204607B0F0BD000084
:40434000140D002085440000E81000201C0D002010B503480078012801D101F017FA10BD1C0D002070B5084B0446DA889E8800205518B54206D81D68AA182260DA885118F7
:40438000D98070BD032070BDE81000200148008970470000E8100020F0B587B007460D4600208900009006916846FFF7DBFF844600285DD1304800990160002117E02E4B81
:4043C00088001A680629115406D22C4C0419667882185670628805E0C419203CA67A8218567022891B68C018491C4280C9B2A942E5D300242DE0601CC2B2059025E01E4F79
:40440000A30039689600581840887118039604904E88B04217D938466F46FE80B6464F786E4677710297049F4F800168039F5E18767879184E700168764659184E80006857
:40444000029F18184770521CD2B2AA42D7D30598C4B2AC42CFD36046002809D168460699FFF780FF8446002802D1054900980860604607B0F0BD0000200D0020305D010027
:40448000240D00207047000010B5002809D005494A68002A05D0011F08788000105801F081FA10BD200D002010B50446FFF76EFFC0B2801DA0420CD307484068002808D0E8
:4044C000A100405801F0E0F9002801D00470001D10BD002010BD0000200D0020F8B516460D460446FFF752FFC0B2801DA04203D20020C0430090F8BDB2B2E9B2684601F06F
:40450000E9F90099481C03D0024AA000526811500098F8BD200D0020F8B50746FFF736FF801DC6B20A49002005460C680DE06178002907D06188B94202D32078FFF7B4FFFC
:40454000002804D1241D6D1CEDB2B542EFD3F8BD200D002010B5002801D0FFF795FF10BD70B506460948002504680BE06178002905D062882078121D0023FFF7AFFF241D37
:404580006D1CEDB2B542F1D370BD0000200D0020FFB581B00A9F16000C4620D000F0F2F8054604281BD0002F0CD03846FFF7B4FF20492A0151184860002810D03A46049980
:4045C000FEF751FC1B4928010E504618778101980570200406D47D20C000444304E0FF2005B0F0BD6404640C00F0BAF80746042807D000F04FFAA0420BD800F04BFA201AAC
:4046000003E0204600F0AAFA0020F06035720020E6E700F03FFA009000F0B6FA00980121001B009000F0ECF802493A0151180098C860E6E7F4100020F8B506011648341809
:40464000217A042903D0E068002802D017E00020F8BD00F01FFA054600F096FA00F0A0F804280CD001010C480F18F8680021451900F0C6F80020F860284600F06FFA60681C
:40468000054D002801D0FFF765FF042020720020A8516081E060DAE7F4100020FEB500266A46304601232549050169180D7A042D02D0C96800291BD000211154401CC0B245
:4046C0000428F0D300246846005D002830D01B48210108184189476805680291002101604160042241810272C160002E02D015E01354E3E700F054F804280ED001010F48F1
:4047000008180190C6680021304600F079F801980021C160304600F021FA0126002D07D038460299A847002F02D03846FFF712FF641CE4B2042CC6D3FEBD0000F4100020CF
:404740000EB5002005216A460090118150810348694600680DF069FE0EBD0000280D0020074A0020010189180B7A042B02D0C968002903D0401CC0B20428F3D37047000069
:40478000F41000200549002002015218127A042A03D0401CC0B20428F6D37047F410002030B50A4B04200A4C00210A011219157A042D06D0D268002A03D09A4201D80846F4
:4047C0001346491CC9B20429EFD330BDFFFF0000F41000207047000030B50020074C05460423020111190B72A5504D60401C4D81C0B2CD600428F4D330BD0000F4100020E8
:4048000030B5094C00231A011219157A042D04D0D568002906D02D18D5605B1CDBB2042BF1D330BD2D1AF7E7F4100020002070471CB5002469460C70142001902346054AEA
:4048400005480DF0F7FD04480068401C00D1FF2420461CBDAD480000280D00203EB5124A0146FF2000230124126800290DD0012914D0042908D104206946009308814B8121
:4048800010460DF0D2FD80B23EBD6846009304814381694610460DF0C3FDF4E768460093048143816946EBE7280D002070B545890468416800890300FFF7B6FC08280509A8
:4048C000091E22282628002005F0F0FB1EE0022908D0C8B22A4621460BF036FF2046FFF739FE13E002202A4621460BF02DFF2946204600F00DF809E000200DF095FA05E08D
:404900002046FFF7CBFE01E0FEF78CF8002070BD014B0022DB6818472C0D002070B5448905680089022803D0032809D0FF2070BD2246094C0023A46829460120A04708E0C2
:40494000FFF798FA241DA2B200232946022006F09EFB002070BD00002C0D0020704700000248002141600180418070472C0D002070B50C46002186B016460391012802D063
:40498000022859D116E003A9012006F0D5FB01281BD1039D324621462846FEF764FA0095287801900220694608814E816846FFF7B5FF41E0214D002B686809D0049004A9DA
:4049C000022006F0B9FB01281DD0022006B070BD002812D0298840182146FEF744FA28880024801980B228806988091D884206D12C801348FFF792FF03E00320E6E78842F9
:404A00001AD96C6018E004986860E278A378110219430B4A698000231060E3565360032313815181A1788170E178C1706178417021780170042028800020C7E72C0D002013
:404A4000341100203EB515460C46022803D004280CD000203EBD0091019002206946088107484A8100680DF0E0FC07E00BF06CFE044B0022DB6829462046984701203EBD6A
:404A8000280D00202C0D0020014AD160906070472C0D0020034801688068081A0A214843000970474011002010B5FDF72BFF482204490548FEF7D7F903490120C8700020B6
:404AC00010BD00004C5D01004415002010B5FDF709FF10BD70B5134C2368002B08D0207B1149C20705D04008400020738868A08070BD88680B4AA18880B29268814203D902
:404B00000A4D691A091802E0814202D2411A5118A160A080A0689842EAD30DF0A3FC00F013F870BD40110020C0102E40FFFF000010B508461946FFF7A7FF10BD704710B5B5
:404B4000FFF780FF10BD000003480021016041608160C1607047000040110020024610B5FF20002A0CD0FFF7EFFF064C0321207B0843207310010A21FEF74AF82060002043
:404B800010BD00004011002000B504480A21806848430209FFF7D8FF104600BD401100200248007B8007C00F704700004011002010B54B490868002802DA4A4B01221A706A
:404BC000022290430860484800694549C00B4031096A0246C907C90F0A4259D0012000F097FA3F480E216C30FDF786FD3E4820218430FDF781FD3C4814219C30FDF77CFD71
:404C00003948FF21C131A430FDF776FD3648FF212F31B030FDF770FD33483449BC30FDF76BFD31483249AC30FDF766FD30492E48491CB430FDF760FD2B482E49B830FDF7B1
:404C40005BFD29482C49CC30FDF756FD26482B490830FDF751FD24482949A830FDF74CFD214828498830FDF747FD1F4826498C30FDF742FD1C481921C9029030FDF73CFD7F
:404C8000FDF74AFDFDF75AFEC0B2022812D01FE000290BD0002101420AD0114801216030FDF72AFD0120FDF711FE97E70121F2E7FF2010BD15491648FDF71EFD144815497A
:404CC000001DFDF719FD124800210830FDF714FD54200449C043891C0870002010BD000000F02E403C0D002000002E40320300002F3F00003102000010520000EC16000098
:404D0000FA12000031D000003AE300009956000080012E40F80F000070B50646581C80B245086D00002408E0304600F0C1F81055000A1119A41C4870A4B2AC42F4D3D8076D
:404D400005D0D0182038D15CC47FD454C17770BD30B50A4C002100195B1E07E0541864782502545C2C430480891C89B29942F5DB994201D1515C018030BD000000102E4069
:404D800010B5FF2000F0C4F90F49FF2048700E481021801D41800121417001700A490020C91C4870FFF704FF04000AD100F010F907210648FDF790FC044807211830FDF783
:404DC0008BFC204610BD00003C0D0020CC112E4070B5002405465B1E0AE0284600F068F8010A161971702D1D1055A41CADB2A4B29C42F2DB9C4203D1284600F059F81055E0
:404E000070BD000070B500210A4D5B1E0AE0541864782602545C344346193480001D891C80B289B29942F2DB994202D1515C4019018070BD00102E40F0B50599091FCFB2F8
:404E400000217E1E0BE0541864782502545C2C43164D45192C80001D891C80B289B2B142F1DBFC0712D01C78515C24020F4A0C4381180C809C785D78001D210280B22943C1
:404E800084182180001D80B2D9780CE059781A7809021143054A84182180001DD9789B78090280B2194380180180F0BD00102E40014940180088704700102E4010B50B4905
:404EC0000020487000F084F8002000F047F9002000F034F907210648FDF7FEFB044807211830FDF7F9FB002010BD00003F0D0020CC112E4010B50B46062812D006DC012805
:404F00000CD0032801D1FFF7D9FF10BD0A28FCD00B28FAD105480078107010BDFFF730FF10BD1146184600F035F910BD420D0020F8B5244DAC6A0127A007234E002816DA62
:404F4000307806280ED1286A384328621F480069F903084381B21D481030FDF7CDFB042000F0D6F8174802212830FDF7B5FBE00718D000F01DFF01280FD1002000F06AFF7D
:404F8000062000F0C5F81049FF20C91E48707078002802D1686B384368630A4801212830FDF79AFBE0050BD53078042802D1052000F0AEF80348FF2101312830FDF78CFB1F
:404FC000F8BD000040F02E403F0D002000002E4010B503212348FDF78FFB0120FDF766FC20483038406A204C80076178800F890001431C480C38FDF77FFB6078002808D0AB
:40500000401E022181401820FDF7ECFEC000083800E0B82081B21548FDF76EFB1348032109021438FDF768FB10481149B830FDF763FB612189010F48FDF75EFB0D48032131
:40504000001FFDF759FB0C490C48FDF755FB0B480B496038FDF750FB084801218838FDF74BFB10BD70F02E40420D0020D8102E4090890000041E2E40FF0F000058122E4003
:40508000209000000849087806280BD148780749002803D1486B400840004863C86A01221043C862704700003F0D002040F02E4001480078704700003F0D002000B5030044
:4050C000FFF7B2F8080D050D0B070507090D012000BD032000BD042000BD022000BDFF2000BD0000074A9168D26889B2064B92B2994204D105498A4201D1012100E0002148
:405100000170704780002E4033D000003FE3000010B50446FDF7EEFB072C01D9FF2C01D102480470FDF7DEFB10BD00003F0D002001494870704700003C0D002010B5064A43
:40514000012805D01921C9021046FDF7D5FA10BD1D21C902F8E7000090002E4010B50A4A141D012808D009491046FDF7C5FA08492046FDF7C1FA10BD04491046891CFDF74B
:40518000BBFA0349491DF3E788002E4031D000003AE3000070B50C460546FDF7CFFBC0B202280E49287804D0FF2810D04C280CD810E0FF2809D10A4AD0680004800F032819
:4051C00001D0087807E09069000A553803E00878207070BD4F382070087070BD3E0D002000002E40F0B50122002834D0002932D00424420600D00524792342065B06D2187B
:4052000000D0641C034600221EE00C2516466E43124D00277519AF72104F002ABB51696007D0661EB24209D10D4E86197606760E05E05E06760E8027BE1B00E080269B193A
:405240008919521C2E81D2B2A242DED303480549006B002288611046F0BD0000CC13002079020000480D002018B50020694608700A48006900280ED0132149014018047E28
:40528000684604704F21C900054800F059F8A04201D0012018BD002018BD0000480D002050110020074900200C2242435218927A012A05D0401CC0B20628F5D3002070473D
:4052C00001207047CC130020F8B50E000446154609D0194F19497868A04202D94018A04201D38D4201D90120F8BD31462046FDF7ABFD00281ED02A4631462046FDF7B3FD2A
:40530000E8B200210C224A43D21913895568EE18A6420BD90126641B1B1B9672834209DA1469C01A044AC0B220329676491CC9B20629E7D30020F8BDCC13002079020000C8
:40534000034610B50020024604E09C5C2018521CC0B292B28A42F8D310BD000070B500F05FF8084C064A216907480D46FDF77BFD05492846FFF736FFFFF776FF207070BD64
:4053800079020000480D002050110020002070470020054A002902D0012902D002E0906000E0D06000207047480D002070B5084C154608460549E26889182A46FDF753FD02
:4053C000E0684019E06028B270BD000050110020480D00203EB50A226946FFF7E7FF044606480A2200686946FDF72EFD002802D00020C0433EBD20463EBD00004C0D002039
:40540000002802D0044A914201D2FF20704703494A6108610020704779020000480D0020024800218160C16070470000480D002070B5074C15460548A26880182A46FFF7C0
:4054400043FFA0684019A06028B270BD50110020480D002010B503490A220968FFF7E8FF10BD00004C0D002010B50F4A002313600E4A13600E4B18600E4801600E4901203C
:4054800008600E490860000290600E490C4808600D4914300860FF381538506000F0BCF800F0CAF9002010BD7C0D0020640D0020900D0020940D0020800D0020700D002044
:4054C00014150020740D0020880D0020014610B50020002910D0094B1A689C685118A14209D25868196080188A0704D08A07920F891A091D196010BD002010BD640D0020E2
:40550000F8B50024164E671E321F3D463168136806E01422624310328A58521C1BD0641C9C42F6D36A1C14D02C461422544322460C3288500C214843FFF7C8FF3168002807
:4055400008510AD031680020103408517068401C70602846F8BD2546E4E73846F8BD0000740D0020F3B50026F64381B000281BDB1E490968884217D80299002914D01B4F78
:40558000142204463F1D54432546396810354859401C09D0FDF7AEF938682F1F4159C359994203DBFDF79EF93046FEBD214608310091465801590C20704308180C220299AC
:4055C000FDF751FC0948761C001D0068C159B14200D100260549009A091D865008684159491C4151FDF77EF90020FEBD700D0020002803DB07490968884202D90020C043A7
:40560000704704491422091D096850431030085870470000700D0020F0B500200D4A451E0346171F50600FE014260146714314680E1DA3510C46166808343351166808345B
:4056400035511468401C635039688842ECD30020F0BD0000740D0020F3B50026F64381B0002841DB2349096888423DD8029900293AD0204F142204463F1D5443254639688D
:4056800010354859401C2FD0FDF734F93868415900292BD0211D009146580C21005971430F46C1190C220298FDF7DDFB11480021001D0068761C00590C34C01901604160BB
:4056C00081600C48001D00680159B14200D100260849009A091D865008684159491E4151FDF700F90020FEBD3046FEBDFDF7FAF8FAE70000700D0020FEB504460D460020F5
:405700001E49089E0860471E009001900290002C11D0486885420ED2002A0CD0002E0AD0642E08D808460C3001681C2068430C18207A002801D03846FEBD012022602072F9
:405740001846FFF7DDFE6060401C13D06681A6810A4827610C3067610179A94200D205710021684601810A462846029B00F040F82846FEBD00202072DDE700007C0D002046
:4057800038B50124009400F039F838BDFEB50027164EFF433D4600240EE01C20316860430818017A002906D04068FFF721FF002801D0254603E0641C3079A042EDDA681CAB
:4057C00012D01C2130684D434419FDF793F869466068FFF741FF0546FDF784F8002DD9D1216868468847D5E7FEBD0000880D002038B50024009400F001F838BD1FB500229C
:405800000C49541E0A60002811DB496888420ED808491C220C31096850430818406801A9FFF7A0FE401C02D0002004B010BD2046FBE700007C0D0020F0B50021114A4D1EA0
:40584000174611710C3F0B46BD6016E008461C2460431668041D355114680646235014680836A3551468361DA353044616680A34335318301468491C255078688142E5D30D
:405880000020F0BD880D002038B500210091002811DB0F49097888420DDA0D4D04010C3529680859002807D0201D0818694600F06FF9002801D0002038BDFDF71BF828688F
:4058C0000F34015D491E0155FDF70CF8009838BD980D0020F7B582B0002502986E1E06602E48D21C024017462D4A2C4610460C380178106805E02301C358002B0FD0641C4C
:40590000E4B28C42F7D3711C28D03401211D40180191039900F02AF900281FD101E02646F1E71F48016820460C300F521C480399026820460E301154194803990268204658
:405940000F3011540398784300F0A0F8144900280968085102D00024009011E001251AE00F48016801980818009900F02CF9002801D0012502E00098C0190090641CE4B280
:4059800003988442ECD3002D05D10298066004480179491C0171284605B0F0BDFCFF0000A40D0020F8B50D4600216A468C461180002839DB23490978884235DA214B0401E4
:4059C0000C3319680A59002A2ED020460C300B5A801C0E5C184670438018954224D3854222D2002006E007465F43BF18AF4206D0401CC0B2B042F6D36046002814D0114EF0
:405A0000271DC8190C366A46294600F006F900280AD168460088012808D030682946C01900F0D1F8002803D00120F8BD0020F8BDFCF760FF30680F34015D491C0155FCF73F
:405A400051FFF3E7980D0020F8B50F46002400F031F8002817D10C4900220B460C334A600EE021011D680E466A501D680C36AA53B61C1D680F31AA551D68641C6A54E4B2E1
:405A8000BC42EED31A71F8BD980D002000280BD0C01C074A81085068890053884118994203D89368516018187047002070470000980D0020F8B5064600200F4D0090297071
:405AC0000C0121466846FEF74DFC00280CD129460C3100980860301B001F84B221466846FEF740FC002801D0FF20F8BD6C800098A8600020F8BD0000980D0020F8B50028E7
:405B000027DB19490978884223DA174C05010C342168485900281CD028460C30085A009028460E300E5C401C0E5420682F1DC01900F064F800280CD12068002445590EE02C
:405B4000094829460C300068C01900F03CF8002801D00120F8BD00982D18641CE4B2B442EED30020F8BD0000980D002030B50D4604000BD0A800FFF789FF6060002805D0B7
:405B800000202570C0436080002030BD012030BD70B50D46040005D0002D03D00220205E002801DA012070BDFCF7A4FE0221615E60688900405828606088401E6080FCF7EF
:405BC00091FE002070BD70B50D46040007D0002D05D002212078615E401E814201DB012070BDFCF787FE6088401C00B26080616880000D50FCF776FE002070BD10B504003E
:405C000009D0227800216068FDF736F90020C0436080002010BD012010BDF0B500231D46002802D00224045F0AE00120F0BD46689F00F6598E4201D1012503E05B1CDBB256
:405C40009C42F4DA15700020F0BD00000148007870470000AC0D00207CB505460024FEF709F9A8796946087000A8062229460130FDF7F9F80021684604F0DEFC0C2806D0FA
:405C8000072806D01F2806D0122806D006E0022404E0042402E0272400E0012420467CBD01480121417270474C16002010B500F05FF9FFF7FDF9FFF701FA10BD70B504464C
:405CC0000025FEF7D7F8002C06D0A079012803D8214602F07BFC00E00125284670BD01460120002902D05020088000207047000001460120002905D00348542200785043C7
:405D00000880002070470000AE0D002010B502460D49FE204870032410460CF0A9FE002810D10CF04DFE00280CD105F061FA002808D100F013FB002804D104F023FF0028F1
:405D400000D10024204610BDAC0D002070B50025044600280ED0A07901280BD8FEF78AF8A0790028204602D002F0D6FF03E002F0ABFF00E00125284670BD0000014610B580
:405D80000120002904D006220248FDF76CF8002010BD0000B80D002001460120002903D0087802490870002070470000AE0D00200148007A704700004C16002038B504469D
:405DC0000120002C20D0617801291DD800290BD0FF25E535FEF74EF80C4828180088C0B22070072803D00EE0FF25CD35F2E70020694608706846FFF775F969460878012833
:405E000001D108202070002038BD000000102E40014A002192681047AC0D002008B500226B461A7026280CD0094A342852680BD0352805D1900703D50021352005F0B4FA6C
:405E400008BD19462620F9E7D007F9D03420F5E7AC0D002001490872704700004C160020F8B504460120002C26D06178012902D92278092A20D8002905D0FF25E535207881
:405E8000092803D004E0FF25CD35F8E708202070FDF7F0FF2078114F114E08280DD00020FFF75CF970780128207810D00D4969180880FE2070700020F8BD0120FFF74EF972
:405EC0000720B8810549203188800120F2E7B8810248217820308180EBE70000C0112E40AC0D002000102E4070B50E46050001D0002400E00C4C002C11D0E28A500609D574
:405F0000D107C90F022002F09BFFE08A40218843E08204E0D107C90F012002F091FF3146284602F079FC70BDAC150020F8B50546002004460D4E009013E0224669462846B5
:405F400000F0D6FF0098002801D00CF073FDA878214602F099FAA878214602F087FA641CE4B2308AA042E8D8F8BD00007816002038B51E4CFFF79CF8042813D0052811D086
:405F8000062812D003282AD007280AD100206946087002460120FEF7ADFFFFF789F80128FBD138BD00F077FB38BD02F0C3FA00F072FB02F03FFB8007800F0228F4D10C4808
:405FC00041880029F0D05B21095D0029ECD101210170A07D0140022002F032FF38BD02F0ADFA0120FFF794F838BD0000AC150020D20D0020F8B50646002402F08FFF054603
:40600000304602F0A5FF03460A480021068A0DE001228A401046174628401F40002803D0002F01D1224394B2491CC9B28E42EFD82046F8BD781600201CB500206946487075
:406040006846FFF7BBFE01AA69460A20FEF752FF6946042008561CBD70B50D4601F028FB04000BD02079002808D0FDF703FFE178A0782A4602F056FC002070BD022070BD34
:406080000148007870470000841500204030C07E002800D00120704700B500F001F800BD902148430749084A40186030417F491CC9B24177D289914201D300214177C8B263
:4060C000704700008C1500207816002013B501F0EFFA04000BD001F08CFE002807D0214601AA0A310620FEF705FF00201CBD02201CBD000010B50C4601F0DAFA00280AD041
:4061000001F077FE002806D0224604490A20FEF7F1FE002010BD022010BD00006D150020F3B581B0074601460026029802F0EEFE0446002F01D0002500E0154D002D21D0E0
:40614000284601F0EBFA032C04D13946029802F039FF06463846029902F088F9032C06D0002C10D00121384601F0DEFB03E03146384603F025F9284602F06CF80221284603
:4061800002F082F8FEBD3846029902F06FF9FEBDAC15002010B5044600F066FA002804D103F0D8FD002801D00C2010BD2078611C02F0BAFCFF2801D01F2010BD02F000FDE3
:4061C000FF280AD02178621C02F0DEF8044821780068026B601C904710BD072010BD0000F80D002010B503F0B5FD002801D00C2010BD02F07BFC03480068C06A8047002043
:4062000010BD0000F80D002070B50D46044610210CF050FB1021601806460CF04BFB334610221946204603F0C3FD102130460CF041FB02202870204604F0DAFB70BD0000E3
:40624000F8B504464078217802028006870FE0781143A67809050002090D0643084601F027FA00210546F2B2002812D0002C10D0022F0ED0032F0CD0002A0AD00279092A28
:4062800007D0002A05D0134A5A23527E1B5C9A4207D82889002104F0E0FA20460CF0CAFBFF21002914D10C48224600682946436930469847C0B2FF280AD128464030817E52
:4062C000F2B2491C8176FF232146284600F0E3F8F8BD000044150020140E00200020704710B5044603F036FD002801D00C2010BD2078611C02F018FCFF2808D002F050FB17
:40630000044821780068426B601C904710BD1F2010BD0000F80D002010B500F06BF904F031FC002010BD10B5044600786178E2780843A17811430843217908436179084324
:4063400005D003F0F9FC002803D00C2010BD122010BD204602F0E0FC002010BD10B5FCF7EDFA02F0FDFD044803F060FD02F022FB012000F003F810BD54150020F1B586B0D8
:4063800003A8009005A8019028489F22817A114081726846FDF79AFD002845D169460989C90705D0224806990068C2686846904769460989890706D5002835D11D480068D0
:4063C000816A0698884700282ED11B4E0025757075737571F575357675767575B570F570B5713746F5730120D03738731F20F880FF2130467972A0300176457600F0D0FA97
:4064000000242046069901F09FFC002803D1641C2406240EF5D0FD720749BD72B573C0310D704D704D600D7207B0F0BD44150020140E0020F80D00208C15002070B5054628
:406440000E46084602F06AFD0446304602F080FD0121A9400A46224001400A4301D0012070BD002070BD10B50446084602F070FD0121A140014201D0012010BD002010BD8D
:4064800010B5FEF715FE032804D102F057F80120FEF73EFE10BDFEB51C4616460F46054601F0D8FEA878FFF7F7FD02460190334639460094284600F00DF8002808D1A878E4
:4064C0000199FFF711FDFF2C02D138460CF0B2FAFEBD0000FFB585B005460E980C46FF2810D02B49C00009680A5840180179C0795278814201D9012601E09006860F684692
:40650000038108E06078A1788006860FE0780002014368460181284601F076FC070007D021462846079A00F077FC384609B0F0BD304600F025FD04AE0346039002AA294678
:406540000096204600F0B1FB3C20405D002818D0284601F059FC012813D0684600890096C0B20190A878231DFF22079902F008F968460089039BC2B2A878079902F048FC97
:40658000D3E7684600890021C0B20091E9E70000100E0020F8B5002600253046FFF72AFD07001DD090201149704340186030447F12E0601CFCF72CFBCCB23846E040C00766
:4065C000C00F07D02146304601F048FF21463046FFF7A6FD6D1CEDB20548018AA942E8D8761C3606360ED7D0F8BD00008C1500207816002010B502F0DDF90020FFF7BEFE83
:406600000CF0AEFA002010BDF8B5002400F0B2F80123012800D10124104F00203E4620360425082203E0002801D0002100E031460979002907D001290BD002290BD0114637
:4066400081402143CCB2401C0006000EEBD07C70F8BD1C43F7E72C43F5E700008C15002010B5FFF7D1FF10BD10B5044604F0DCFB002802D1601C00F001F810BD1CB500240E
:406680000094062269460194FCF7DEFB002800D1122420461CBD10B5FCF717F80446FEF707FD012809D0FEF703FD022805D0FBF78DFD2046FCF70DF8EEE72046FCF709F897
:4066C00010BD10B50B4681791943817103D08078114602F06BFB10BD10B582798A43827102D1807802F076FB10BD000030B50C4C0220A28A0B4B9978002901D0022906D1BF
:406700001D785B78EB18282B01D9032002E0032900D101205105490DC0020143A18230BDC0112E40C80D002000B500F029F8002807D0012805D0032801D0042801D00020CC
:4067400000BD012000BD014600B50020C90701D000F010F800BD014600B50020C90701D000F008F800BD00000148006870470000C00D002001480088000A704720102E401D
:406780000448008B410501D5042070474007800F7047000000102E4010B501F011FF044601F04EFF0146204601F032FF10BD00000148406870470000C00D002038B504464A
:4067C000000610D5FFF7DCFF01280CD1684601F0C5FE6846007800F023FB012001F0A2FD0220FFF73DFF600708D507480179012904D1002101712620FFF710FB03480068A3
:4068000001692046884738BDCC0D0020F80D002070B505460C49007800240870FFF7AAFF012803D1FFF7B8FF022803D3284602F0DFF907E0284600F0EBF8040002D1034802
:4068400001210170204670BDC80D00204C16002070B50446FFF78EFF002801D00C2070BDA27B01211F48002A827801D00A4301E05208520082706279012A14D0C17849085C
:406880004900C170184D2868016820468847207901280CD06188208803F00EF82080207904280FD015E0C2780A43C270EAE72868C168E01D8847E01D02F01AFA0B48808CF9
:4068C000208006E02868C168E01D8847E01D02F00FFA074920798870204602F097F9002070BD00008C150020F80D002044150020C80D002008B50178FFF73CFF814201D12F
:406900000C2008BD002914D0072069460870FFF70BFF012807D10121684600F0D9F8012801D0092008BDFFF7E1FE02F0A3F9012011E0FFF7F9FE012806D1684601F00EFE84
:406940006846007800F0A0FA02F08AF9FFF712FF0028FBD10220FFF783FE002008BD000070B505460C49007800244870FFF702FF012803D1FFF710FF022803D3284602F007
:40698000F5F907E0284600F05DF8040002D1034801214170204670BDC80D00204C16002038B568460BF0DCFF002801D01F2038BD01210098C902018041800025057145719A
:4069C000857107214173857302F020F9009C202200212046FCF750FA25702A460021601CFCF74AFA204602F003F9204602F0BEF900980CF01FF8062200210448FCF73CFA7B
:406A000002480C388560002038BD0000CC0D0020F8B504460025684600950BF0A1FF002801D007250AE0064E009830602278611C401CFCF718FA3168207808702846F8BD0C
:406A4000C00D0020F8B504460025684600950BF087FF002801D007250AE0064E009870602278611C401CFCF7FEF97168207808702846F8BDC00D00200346084800B5834215
:406A800009D8184600F014FE002804D00089984201D1012000BD002000BD0000FF0E0000074A9179491C8906890E917138220A4092014907090E114308430249084070472D
:406AC0008C150020FF0E0000C006C00E70470000F8B507460E4600240D4803E0002C01D0002500E005462979002905D0641C2406240EF3D00020F8BD0021204601F024F9DD
:406B00002E712046FFF7CCFF28813C700120F8BDAC15002010B503F07FF90222002100F003F801F0F3FE10BD10B5094B40074907000F090F185A595A40185043C008642140
:406B4000FCF766F8002800D1012080B210BD0000945D0100F7B53D20405C88B015460C46002802D02878042802D200200BB0F0BD6946087200262046FFF788FA012800D0E7
:406B80000126204603A938300191009023460327A17E34333246206A03F062F902A8089900900B46019120463A4603A9243003F0DFF802466846007A2870204601F0B0F834
:406BC0001046D3E7FFB587B00C4605461078694608723D20005D1746002826D000262046FFF754FA012800D00126204603A93830019100902346A17E34333246206A03F0A7
:406C00002FF902A80090291D019120462B1D03A924300A9A03F0ACF802006846007A388002D1204601F07CF810460BB0F0BDF0B505463C20405C89B016460C4600280CD020
:406C4000307869460873002806D000272046FFF71DFA012803D003E01F2009B0F0BD012703200890204604A93830019100902346E17E34333A46E06903F0F2F86846007BA8
:406C800003A928180290009120462B46019504A92430089A03F0A0F802466846007B3070204601F047F81046D7E7FFB505463C20405C89B016460C46002810D0084601F04A
:406CC000A3F801280BD0308869468883002809D000272046FFF7DAF9012805D005E000200DB0F0BD0220FBE70127204603A93830019100902346E17E34333A46E06903F00C
:406D0000AFF8291D2B1D07A8129A6D4607C5204603A924300C9A03F05FF802466846808B3080204601F006F81046D9E770B50D460446FFF7ABF901280AD0E87AA97A0002EC
:406D40000143A07801F0DEFC012808D0002070BD00222421204602F001FD242070BD28214C200155204600F0B1FB282070BD0000002801D0002000E003484030C07F0128D2
:406D800000D0002070470000AC1500200146002049070ED50021084B03E0002901D0002200E01A461279022A04D0491C0906090EF3D0704701207047AC150020014600204E
:406DC00049070ED50021084B03E0002901D0002200E01A461279022A04D0491C0906090EF3D0704701207047AC15002010B5044680346068002803D00BF030FE00206060D5
:406E000010BD4030417070474030817070474030017070470171704792001018C166704770B53C2501F096F9040004D020460021433001F01BFCFF222946204600F0E2FB99
:406E4000002C02D0A07801F007F970BD10B5002801D0002000E00348002802D0008903F043FD10BDAC15002010B5002801D0002000E00448002804D00179072901D100F0FF
:406E800047F810BDAC15002010B501F063F9002802D0807801F0E0F810BD00207047000070B50546008A00281ED01049F122897A1140C90618D5294640314A8A098A521C33
:406EC0004A4392B2D10800D10121540801E0621A94B2A042FBD9FEF7B9FE012804D1298AA878224601F0D4FC70BD00004415002010B50023054C0B60248A944204D992005D
:406F00001018C26E0A60C36610BD00007816002038B5044600200090A079002814D14020015D052901D00E290ED168460BF028FD002809D12046009902F0EEFB03481021E5
:406F4000C28A2046FFF7BDFB38BD00004415002010B50B4604460146184602F067F8002802D020460BF070FD10BD13B5044601AA11460620FDF7BEFF6846818861811CBDFB
:406F8000002800D10220704770470000F8B504462346401D543300909A1EA078911E01F0F9FA25464035A88A298A8000FBF730FE401E81B2688A884203D96982A07801F08F
:406FC00079FF698A8C20015120460021433001F04DFB27480088E88102F01EFFE989891C8AB26179FFF7A0FD01F090FC02F014FF2A8A6179FFF798FD074601F07BFC688A84
:40700000002806D01B49088A032212021043088202E0002001F042FF1648803801886E8A002E0CD0304648431349FBF7DBFE0004000C01D0401C80B21049488002E00F4880
:4070400000214180288A704381B2A07801F09CFEFF2228374932B9B21346204602F030FCE98AA07801F010FEA07801F01FFAF8BD80102E40E0112E4071020000D20D002080
:407080007FB504468034616805460E46183108226846FBF7E8FE31462031082202A8FBF7E2FE102168460BF005FC6068102108300BF000FC60682B46083024331022694623
:4070C00002F076FE7FBD10B504460821FFF704FB10212046FFF700FB207905281FD006281DD008281AD12189002003F075FB072020712046FEF7CAFF0146204640300129FE
:4071000013D00E21017000210176204600F0B6FF2046FFF76BFE2046FFF7C2FE10BD20890122002103F03CFBE1E70521EAE70000FFB581B01F4604460821FFF7CDFA1021FA
:407140002046FFF7C9FA2079082803D0092804D0042203E00422012501E009220025204600F03EFE264600204036307022712046FFF73CFE0398002D02D0012808D00BE0E6
:4071800001280AD120890022029903F009FB04E02189029803F020FB012700203076012F04D0204600F06AFF05B0F0BD02983073204602F0FFFA054605480121C28A20462B
:4071C000FFF77FFA002DEFD109202071ECE700004415002070B50C460546FEF757FF012809D108212846FFF777FA0023012221462846FFF79DFF70BD10B5044600F0F0FD59
:407200002046FFF7F3FD00214034217010BD70B505461A24FEF73AFF012809D108212846FFF75AFA0023012221462846FFF780FF70BD0000F8B50446002000900E466846E9
